{
  "_format": "hh-sol-artifact-1",
  "contractName": "AVAXGods",
  "sourceName": "contracts/AVAXGods.sol",
  "abi": [
    {
      "inputs": [
        {
          "internalType": "string",
          "name": "_metadataURI",
          "type": "string"
        }
      ],
      "stateMutability": "nonpayable",
      "type": "constructor"
    },
    {
      "anonymous": false,
      "inputs": [
        {
          "indexed": true,
          "internalType": "address",
          "name": "account",
          "type": "address"
        },
        {
          "indexed": true,
          "internalType": "address",
          "name": "operator",
          "type": "address"
        },
        {
          "indexed": false,
          "internalType": "bool",
          "name": "approved",
          "type": "bool"
        }
      ],
      "name": "ApprovalForAll",
      "type": "event"
    },
    {
      "anonymous": false,
      "inputs": [
        {
          "indexed": false,
          "internalType": "string",
          "name": "battleName",
          "type": "string"
        },
        {
          "indexed": true,
          "internalType": "address",
          "name": "winner",
          "type": "address"
        }
      ],
      "name": "BattleEnded",
      "type": "event"
    },
    {
      "anonymous": false,
      "inputs": [
        {
          "indexed": true,
          "internalType": "string",
          "name": "battleName",
          "type": "string"
        },
        {
          "indexed": true,
          "internalType": "bool",
          "name": "isFirstMove",
          "type": "bool"
        }
      ],
      "name": "BattleMove",
      "type": "event"
    },
    {
      "anonymous": false,
      "inputs": [
        {
          "indexed": false,
          "internalType": "bytes32",
          "name": "battleHash",
          "type": "bytes32"
        },
        {
          "indexed": true,
          "internalType": "address",
          "name": "player1",
          "type": "address"
        },
        {
          "indexed": true,
          "internalType": "address",
          "name": "player2",
          "type": "address"
        }
      ],
      "name": "BattleStarted",
      "type": "event"
    },
    {
      "anonymous": false,
      "inputs": [
        {
          "indexed": false,
          "internalType": "bytes32",
          "name": "battleHash",
          "type": "bytes32"
        },
        {
          "indexed": true,
          "internalType": "address",
          "name": "player1",
          "type": "address"
        },
        {
          "indexed": true,
          "internalType": "address",
          "name": "player2",
          "type": "address"
        }
      ],
      "name": "NewBattle",
      "type": "event"
    },
    {
      "anonymous": false,
      "inputs": [
        {
          "indexed": true,
          "internalType": "address",
          "name": "owner",
          "type": "address"
        },
        {
          "indexed": false,
          "internalType": "uint256",
          "name": "id",
          "type": "uint256"
        },
        {
          "indexed": false,
          "internalType": "uint256",
          "name": "attackStrength",
          "type": "uint256"
        },
        {
          "indexed": false,
          "internalType": "uint256",
          "name": "defenseStrength",
          "type": "uint256"
        }
      ],
      "name": "NewGameToken",
      "type": "event"
    },
    {
      "anonymous": false,
      "inputs": [
        {
          "indexed": true,
          "internalType": "address",
          "name": "owner",
          "type": "address"
        },
        {
          "indexed": false,
          "internalType": "string",
          "name": "name",
          "type": "string"
        }
      ],
      "name": "NewPlayer",
      "type": "event"
    },
    {
      "anonymous": false,
      "inputs": [
        {
          "indexed": true,
          "internalType": "address",
          "name": "previousOwner",
          "type": "address"
        },
        {
          "indexed": true,
          "internalType": "address",
          "name": "newOwner",
          "type": "address"
        }
      ],
      "name": "OwnershipTransferred",
      "type": "event"
    },
    {
      "anonymous": false,
      "inputs": [
        {
          "indexed": false,
          "internalType": "address[2]",
          "name": "damagedPlayers",
          "type": "address[2]"
        }
      ],
      "name": "RoundEnded",
      "type": "event"
    },
    {
      "anonymous": false,
      "inputs": [
        {
          "indexed": true,
          "internalType": "address",
          "name": "operator",
          "type": "address"
        },
        {
          "indexed": true,
          "internalType": "address",
          "name": "from",
          "type": "address"
        },
        {
          "indexed": true,
          "internalType": "address",
          "name": "to",
          "type": "address"
        },
        {
          "indexed": false,
          "internalType": "uint256[]",
          "name": "ids",
          "type": "uint256[]"
        },
        {
          "indexed": false,
          "internalType": "uint256[]",
          "name": "values",
          "type": "uint256[]"
        }
      ],
      "name": "TransferBatch",
      "type": "event"
    },
    {
      "anonymous": false,
      "inputs": [
        {
          "indexed": true,
          "internalType": "address",
          "name": "operator",
          "type": "address"
        },
        {
          "indexed": true,
          "internalType": "address",
          "name": "from",
          "type": "address"
        },
        {
          "indexed": true,
          "internalType": "address",
          "name": "to",
          "type": "address"
        },
        {
          "indexed": false,
          "internalType": "uint256",
          "name": "id",
          "type": "uint256"
        },
        {
          "indexed": false,
          "internalType": "uint256",
          "name": "value",
          "type": "uint256"
        }
      ],
      "name": "TransferSingle",
      "type": "event"
    },
    {
      "anonymous": false,
      "inputs": [
        {
          "indexed": false,
          "internalType": "string",
          "name": "value",
          "type": "string"
        },
        {
          "indexed": true,
          "internalType": "uint256",
          "name": "id",
          "type": "uint256"
        }
      ],
      "name": "URI",
      "type": "event"
    },
    {
      "inputs": [],
      "name": "CELESTION",
      "outputs": [
        {
          "internalType": "uint256",
          "name": "",
          "type": "uint256"
        }
      ],
      "stateMutability": "view",
      "type": "function"
    },
    {
      "inputs": [],
      "name": "DEVIL",
      "outputs": [
        {
          "internalType": "uint256",
          "name": "",
          "type": "uint256"
        }
      ],
      "stateMutability": "view",
      "type": "function"
    },
    {
      "inputs": [],
      "name": "FIREBIRD",
      "outputs": [
        {
          "internalType": "uint256",
          "name": "",
          "type": "uint256"
        }
      ],
      "stateMutability": "view",
      "type": "function"
    },
    {
      "inputs": [],
      "name": "GRIFFIN",
      "outputs": [
        {
          "internalType": "uint256",
          "name": "",
          "type": "uint256"
        }
      ],
      "stateMutability": "view",
      "type": "function"
    },
    {
      "inputs": [],
      "name": "KAMO",
      "outputs": [
        {
          "internalType": "uint256",
          "name": "",
          "type": "uint256"
        }
      ],
      "stateMutability": "view",
      "type": "function"
    },
    {
      "inputs": [],
      "name": "KUKULKAN",
      "outputs": [
        {
          "internalType": "uint256",
          "name": "",
          "type": "uint256"
        }
      ],
      "stateMutability": "view",
      "type": "function"
    },
    {
      "inputs": [],
      "name": "MAX_ATTACK_DEFEND_STRENGTH",
      "outputs": [
        {
          "internalType": "uint256",
          "name": "",
          "type": "uint256"
        }
      ],
      "stateMutability": "view",
      "type": "function"
    },
    {
      "inputs": [
        {
          "internalType": "uint8",
          "name": "_choice",
          "type": "uint8"
        },
        {
          "internalType": "string",
          "name": "_battleName",
          "type": "string"
        }
      ],
      "name": "attackOrDefendChoice",
      "outputs": [],
      "stateMutability": "nonpayable",
      "type": "function"
    },
    {
      "inputs": [
        {
          "internalType": "address",
          "name": "account",
          "type": "address"
        },
        {
          "internalType": "uint256",
          "name": "id",
          "type": "uint256"
        }
      ],
      "name": "balanceOf",
      "outputs": [
        {
          "internalType": "uint256",
          "name": "",
          "type": "uint256"
        }
      ],
      "stateMutability": "view",
      "type": "function"
    },
    {
      "inputs": [
        {
          "internalType": "address[]",
          "name": "accounts",
          "type": "address[]"
        },
        {
          "internalType": "uint256[]",
          "name": "ids",
          "type": "uint256[]"
        }
      ],
      "name": "balanceOfBatch",
      "outputs": [
        {
          "internalType": "uint256[]",
          "name": "",
          "type": "uint256[]"
        }
      ],
      "stateMutability": "view",
      "type": "function"
    },
    {
      "inputs": [],
      "name": "baseURI",
      "outputs": [
        {
          "internalType": "string",
          "name": "",
          "type": "string"
        }
      ],
      "stateMutability": "view",
      "type": "function"
    },
    {
      "inputs": [
        {
          "internalType": "string",
          "name": "",
          "type": "string"
        }
      ],
      "name": "battleInfo",
      "outputs": [
        {
          "internalType": "uint256",
          "name": "",
          "type": "uint256"
        }
      ],
      "stateMutability": "view",
      "type": "function"
    },
    {
      "inputs": [
        {
          "internalType": "uint256",
          "name": "",
          "type": "uint256"
        }
      ],
      "name": "battles",
      "outputs": [
        {
          "internalType": "enum AVAXGods.BattleStatus",
          "name": "battleStatus",
          "type": "uint8"
        },
        {
          "internalType": "bytes32",
          "name": "battleHash",
          "type": "bytes32"
        },
        {
          "internalType": "string",
          "name": "name",
          "type": "string"
        },
        {
          "internalType": "address",
          "name": "winner",
          "type": "address"
        }
      ],
      "stateMutability": "view",
      "type": "function"
    },
    {
      "inputs": [
        {
          "internalType": "string",
          "name": "_name",
          "type": "string"
        }
      ],
      "name": "createBattle",
      "outputs": [
        {
          "components": [
            {
              "internalType": "enum AVAXGods.BattleStatus",
              "name": "battleStatus",
              "type": "uint8"
            },
            {
              "internalType": "bytes32",
              "name": "battleHash",
              "type": "bytes32"
            },
            {
              "internalType": "string",
              "name": "name",
              "type": "string"
            },
            {
              "internalType": "address[2]",
              "name": "players",
              "type": "address[2]"
            },
            {
              "internalType": "uint8[2]",
              "name": "moves",
              "type": "uint8[2]"
            },
            {
              "internalType": "address",
              "name": "winner",
              "type": "address"
            }
          ],
          "internalType": "struct AVAXGods.Battle",
          "name": "",
          "type": "tuple"
        }
      ],
      "stateMutability": "nonpayable",
      "type": "function"
    },
    {
      "inputs": [
        {
          "internalType": "string",
          "name": "_name",
          "type": "string"
        }
      ],
      "name": "createRandomGameToken",
      "outputs": [],
      "stateMutability": "nonpayable",
      "type": "function"
    },
    {
      "inputs": [],
      "name": "drinkPotion",
      "outputs": [],
      "stateMutability": "nonpayable",
      "type": "function"
    },
    {
      "inputs": [
        {
          "internalType": "uint256",
          "name": "id",
          "type": "uint256"
        }
      ],
      "name": "exists",
      "outputs": [
        {
          "internalType": "bool",
          "name": "",
          "type": "bool"
        }
      ],
      "stateMutability": "view",
      "type": "function"
    },
    {
      "inputs": [
        {
          "internalType": "uint256",
          "name": "",
          "type": "uint256"
        }
      ],
      "name": "gameTokens",
      "outputs": [
        {
          "internalType": "string",
          "name": "name",
          "type": "string"
        },
        {
          "internalType": "uint256",
          "name": "id",
          "type": "uint256"
        },
        {
          "internalType": "uint256",
          "name": "attackStrength",
          "type": "uint256"
        },
        {
          "internalType": "uint256",
          "name": "defenseStrength",
          "type": "uint256"
        }
      ],
      "stateMutability": "view",
      "type": "function"
    },
    {
      "inputs": [],
      "name": "getAllBattles",
      "outputs": [
        {
          "components": [
            {
              "internalType": "enum AVAXGods.BattleStatus",
              "name": "battleStatus",
              "type": "uint8"
            },
            {
              "internalType": "bytes32",
              "name": "battleHash",
              "type": "bytes32"
            },
            {
              "internalType": "string",
              "name": "name",
              "type": "string"
            },
            {
              "internalType": "address[2]",
              "name": "players",
              "type": "address[2]"
            },
            {
              "internalType": "uint8[2]",
              "name": "moves",
              "type": "uint8[2]"
            },
            {
              "internalType": "address",
              "name": "winner",
              "type": "address"
            }
          ],
          "internalType": "struct AVAXGods.Battle[]",
          "name": "",
          "type": "tuple[]"
        }
      ],
      "stateMutability": "view",
      "type": "function"
    },
    {
      "inputs": [],
      "name": "getAllPlayerTokens",
      "outputs": [
        {
          "components": [
            {
              "internalType": "string",
              "name": "name",
              "type": "string"
            },
            {
              "internalType": "uint256",
              "name": "id",
              "type": "uint256"
            },
            {
              "internalType": "uint256",
              "name": "attackStrength",
              "type": "uint256"
            },
            {
              "internalType": "uint256",
              "name": "defenseStrength",
              "type": "uint256"
            }
          ],
          "internalType": "struct AVAXGods.GameToken[]",
          "name": "",
          "type": "tuple[]"
        }
      ],
      "stateMutability": "view",
      "type": "function"
    },
    {
      "inputs": [],
      "name": "getAllPlayers",
      "outputs": [
        {
          "components": [
            {
              "internalType": "address",
              "name": "playerAddress",
              "type": "address"
            },
            {
              "internalType": "string",
              "name": "playerName",
              "type": "string"
            },
            {
              "internalType": "uint256",
              "name": "playerMana",
              "type": "uint256"
            },
            {
              "internalType": "uint256",
              "name": "playerHealth",
              "type": "uint256"
            },
            {
              "internalType": "bool",
              "name": "inBattle",
              "type": "bool"
            }
          ],
          "internalType": "struct AVAXGods.Player[]",
          "name": "",
          "type": "tuple[]"
        }
      ],
      "stateMutability": "view",
      "type": "function"
    },
    {
      "inputs": [
        {
          "internalType": "string",
          "name": "_name",
          "type": "string"
        }
      ],
      "name": "getBattle",
      "outputs": [
        {
          "components": [
            {
              "internalType": "enum AVAXGods.BattleStatus",
              "name": "battleStatus",
              "type": "uint8"
            },
            {
              "internalType": "bytes32",
              "name": "battleHash",
              "type": "bytes32"
            },
            {
              "internalType": "string",
              "name": "name",
              "type": "string"
            },
            {
              "internalType": "address[2]",
              "name": "players",
              "type": "address[2]"
            },
            {
              "internalType": "uint8[2]",
              "name": "moves",
              "type": "uint8[2]"
            },
            {
              "internalType": "address",
              "name": "winner",
              "type": "address"
            }
          ],
          "internalType": "struct AVAXGods.Battle",
          "name": "",
          "type": "tuple"
        }
      ],
      "stateMutability": "view",
      "type": "function"
    },
    {
      "inputs": [
        {
          "internalType": "string",
          "name": "_battleName",
          "type": "string"
        }
      ],
      "name": "getBattleMoves",
      "outputs": [
        {
          "internalType": "uint256",
          "name": "P1Move",
          "type": "uint256"
        },
        {
          "internalType": "uint256",
          "name": "P2Move",
          "type": "uint256"
        }
      ],
      "stateMutability": "view",
      "type": "function"
    },
    {
      "inputs": [
        {
          "internalType": "address",
          "name": "addr",
          "type": "address"
        }
      ],
      "name": "getPlayer",
      "outputs": [
        {
          "components": [
            {
              "internalType": "address",
              "name": "playerAddress",
              "type": "address"
            },
            {
              "internalType": "string",
              "name": "playerName",
              "type": "string"
            },
            {
              "internalType": "uint256",
              "name": "playerMana",
              "type": "uint256"
            },
            {
              "internalType": "uint256",
              "name": "playerHealth",
              "type": "uint256"
            },
            {
              "internalType": "bool",
              "name": "inBattle",
              "type": "bool"
            }
          ],
          "internalType": "struct AVAXGods.Player",
          "name": "",
          "type": "tuple"
        }
      ],
      "stateMutability": "view",
      "type": "function"
    },
    {
      "inputs": [
        {
          "internalType": "address",
          "name": "addr",
          "type": "address"
        }
      ],
      "name": "getPlayerToken",
      "outputs": [
        {
          "components": [
            {
              "internalType": "string",
              "name": "name",
              "type": "string"
            },
            {
              "internalType": "uint256",
              "name": "id",
              "type": "uint256"
            },
            {
              "internalType": "uint256",
              "name": "attackStrength",
              "type": "uint256"
            },
            {
              "internalType": "uint256",
              "name": "defenseStrength",
              "type": "uint256"
            }
          ],
          "internalType": "struct AVAXGods.GameToken",
          "name": "",
          "type": "tuple"
        }
      ],
      "stateMutability": "view",
      "type": "function"
    },
    {
      "inputs": [],
      "name": "getTotalSupply",
      "outputs": [
        {
          "internalType": "uint256",
          "name": "",
          "type": "uint256"
        }
      ],
      "stateMutability": "view",
      "type": "function"
    },
    {
      "inputs": [
        {
          "internalType": "address",
          "name": "account",
          "type": "address"
        },
        {
          "internalType": "address",
          "name": "operator",
          "type": "address"
        }
      ],
      "name": "isApprovedForAll",
      "outputs": [
        {
          "internalType": "bool",
          "name": "",
          "type": "bool"
        }
      ],
      "stateMutability": "view",
      "type": "function"
    },
    {
      "inputs": [
        {
          "internalType": "string",
          "name": "_name",
          "type": "string"
        }
      ],
      "name": "isBattle",
      "outputs": [
        {
          "internalType": "bool",
          "name": "",
          "type": "bool"
        }
      ],
      "stateMutability": "view",
      "type": "function"
    },
    {
      "inputs": [
        {
          "internalType": "address",
          "name": "addr",
          "type": "address"
        }
      ],
      "name": "isPlayer",
      "outputs": [
        {
          "internalType": "bool",
          "name": "",
          "type": "bool"
        }
      ],
      "stateMutability": "view",
      "type": "function"
    },
    {
      "inputs": [
        {
          "internalType": "address",
          "name": "addr",
          "type": "address"
        }
      ],
      "name": "isPlayerToken",
      "outputs": [
        {
          "internalType": "bool",
          "name": "",
          "type": "bool"
        }
      ],
      "stateMutability": "view",
      "type": "function"
    },
    {
      "inputs": [
        {
          "internalType": "string",
          "name": "_name",
          "type": "string"
        }
      ],
      "name": "joinBattle",
      "outputs": [
        {
          "components": [
            {
              "internalType": "enum AVAXGods.BattleStatus",
              "name": "battleStatus",
              "type": "uint8"
            },
            {
              "internalType": "bytes32",
              "name": "battleHash",
              "type": "bytes32"
            },
            {
              "internalType": "string",
              "name": "name",
              "type": "string"
            },
            {
              "internalType": "address[2]",
              "name": "players",
              "type": "address[2]"
            },
            {
              "internalType": "uint8[2]",
              "name": "moves",
              "type": "uint8[2]"
            },
            {
              "internalType": "address",
              "name": "winner",
              "type": "address"
            }
          ],
          "internalType": "struct AVAXGods.Battle",
          "name": "",
          "type": "tuple"
        }
      ],
      "stateMutability": "nonpayable",
      "type": "function"
    },
    {
      "inputs": [],
      "name": "owner",
      "outputs": [
        {
          "internalType": "address",
          "name": "",
          "type": "address"
        }
      ],
      "stateMutability": "view",
      "type": "function"
    },
    {
      "inputs": [
        {
          "internalType": "address",
          "name": "",
          "type": "address"
        }
      ],
      "name": "playerInfo",
      "outputs": [
        {
          "internalType": "uint256",
          "name": "",
          "type": "uint256"
        }
      ],
      "stateMutability": "view",
      "type": "function"
    },
    {
      "inputs": [
        {
          "internalType": "address",
          "name": "",
          "type": "address"
        }
      ],
      "name": "playerTokenInfo",
      "outputs": [
        {
          "internalType": "uint256",
          "name": "",
          "type": "uint256"
        }
      ],
      "stateMutability": "view",
      "type": "function"
    },
    {
      "inputs": [
        {
          "internalType": "uint256",
          "name": "",
          "type": "uint256"
        }
      ],
      "name": "players",
      "outputs": [
        {
          "internalType": "address",
          "name": "playerAddress",
          "type": "address"
        },
        {
          "internalType": "string",
          "name": "playerName",
          "type": "string"
        },
        {
          "internalType": "uint256",
          "name": "playerMana",
          "type": "uint256"
        },
        {
          "internalType": "uint256",
          "name": "playerHealth",
          "type": "uint256"
        },
        {
          "internalType": "bool",
          "name": "inBattle",
          "type": "bool"
        }
      ],
      "stateMutability": "view",
      "type": "function"
    },
    {
      "inputs": [
        {
          "internalType": "string",
          "name": "_battleName",
          "type": "string"
        }
      ],
      "name": "quitBattle",
      "outputs": [],
      "stateMutability": "nonpayable",
      "type": "function"
    },
    {
      "inputs": [
        {
          "internalType": "string",
          "name": "_name",
          "type": "string"
        },
        {
          "internalType": "string",
          "name": "_gameTokenName",
          "type": "string"
        }
      ],
      "name": "registerPlayer",
      "outputs": [],
      "stateMutability": "nonpayable",
      "type": "function"
    },
    {
      "inputs": [],
      "name": "renounceOwnership",
      "outputs": [],
      "stateMutability": "nonpayable",
      "type": "function"
    },
    {
      "inputs": [
        {
          "internalType": "address",
          "name": "from",
          "type": "address"
        },
        {
          "internalType": "address",
          "name": "to",
          "type": "address"
        },
        {
          "internalType": "uint256[]",
          "name": "ids",
          "type": "uint256[]"
        },
        {
          "internalType": "uint256[]",
          "name": "amounts",
          "type": "uint256[]"
        },
        {
          "internalType": "bytes",
          "name": "data",
          "type": "bytes"
        }
      ],
      "name": "safeBatchTransferFrom",
      "outputs": [],
      "stateMutability": "nonpayable",
      "type": "function"
    },
    {
      "inputs": [
        {
          "internalType": "address",
          "name": "from",
          "type": "address"
        },
        {
          "internalType": "address",
          "name": "to",
          "type": "address"
        },
        {
          "internalType": "uint256",
          "name": "id",
          "type": "uint256"
        },
        {
          "internalType": "uint256",
          "name": "amount",
          "type": "uint256"
        },
        {
          "internalType": "bytes",
          "name": "data",
          "type": "bytes"
        }
      ],
      "name": "safeTransferFrom",
      "outputs": [],
      "stateMutability": "nonpayable",
      "type": "function"
    },
    {
      "inputs": [
        {
          "internalType": "address",
          "name": "operator",
          "type": "address"
        },
        {
          "internalType": "bool",
          "name": "approved",
          "type": "bool"
        }
      ],
      "name": "setApprovalForAll",
      "outputs": [],
      "stateMutability": "nonpayable",
      "type": "function"
    },
    {
      "inputs": [
        {
          "internalType": "string",
          "name": "newuri",
          "type": "string"
        }
      ],
      "name": "setURI",
      "outputs": [],
      "stateMutability": "nonpayable",
      "type": "function"
    },
    {
      "inputs": [
        {
          "internalType": "bytes4",
          "name": "interfaceId",
          "type": "bytes4"
        }
      ],
      "name": "supportsInterface",
      "outputs": [
        {
          "internalType": "bool",
          "name": "",
          "type": "bool"
        }
      ],
      "stateMutability": "view",
      "type": "function"
    },
    {
      "inputs": [
        {
          "internalType": "uint256",
          "name": "tokenId",
          "type": "uint256"
        }
      ],
      "name": "tokenURI",
      "outputs": [
        {
          "internalType": "string",
          "name": "",
          "type": "string"
        }
      ],
      "stateMutability": "view",
      "type": "function"
    },
    {
      "inputs": [],
      "name": "totalSupply",
      "outputs": [
        {
          "internalType": "uint256",
          "name": "",
          "type": "uint256"
        }
      ],
      "stateMutability": "view",
      "type": "function"
    },
    {
      "inputs": [
        {
          "internalType": "uint256",
          "name": "id",
          "type": "uint256"
        }
      ],
      "name": "totalSupply",
      "outputs": [
        {
          "internalType": "uint256",
          "name": "",
          "type": "uint256"
        }
      ],
      "stateMutability": "view",
      "type": "function"
    },
    {
      "inputs": [
        {
          "internalType": "address",
          "name": "newOwner",
          "type": "address"
        }
      ],
      "name": "transferOwnership",
      "outputs": [],
      "stateMutability": "nonpayable",
      "type": "function"
    },
    {
      "inputs": [
        {
          "internalType": "uint256",
          "name": "",
          "type": "uint256"
        }
      ],
      "name": "uri",
      "outputs": [
        {
          "internalType": "string",
          "name": "",
          "type": "string"
        }
      ],
      "stateMutability": "view",
      "type": "function"
    }
  ],
  "bytecode": "0x60806040523462000ab45762005080803803806200001d8162000af9565b92833981019060208183031262000ab4578051906001600160401b03821162000ab4570181601f8201121562000ab4578051906001600160401b0382116200073c5762000074601f8301601f191660200162000af9565b928284526020838301011162000ab45760005b82811062000a9e57600083850160200152835184906001600160401b0381116200073c57600254600181811c9116801562000a93575b60208210146200071b57601f811162000a51575b50806020601f8211600114620009d957600091620009cd575b508160011b916000199060031b1c1916176002555b60038054336001600160a01b0319821681179092556040516001600160a01b03909116907f8be0079c531659141344cd1fd0a4f28419497f9722a3daafe3b4186f6b6457e090600090a380516001600160401b0381116200073c57600554600181811c91168015620009c2575b60208210146200071b57601f81116200098b575b50602091601f8211600114620009215791819260009262000915575b50508160011b916000199060031b1c1916176005555b604051608081016001600160401b038111828210176200073c57604052620001d962000ad9565b6000815281526020810190600082526040810160008152606082019060008252600b54680100000000000000008110156200073c576001810180600b558110156200076857600b600052925180519460029490941b7f0175b7a638427703f0dbe7bb9bbf987a2551717b34e79f33b5b1008d1fa01db90193906001600160401b0386116200073c578454600181811c911680156200090a575b60208210146200071b57601f8111620008d4575b50602090601f871160011462000865579580916003969760009262000859575b50508160011b9160001990871b1c19161785555b5160018501555160028401555191015560405160a081016001600160401b038111828210176200073c5760405260008152620002f562000ad9565b600081526020820152600060408201526000606082015260006080820152600a5490680100000000000000008210156200073c576001820180600a558210156200076857600a6000528051600583027fc65a7bb8d6351c1cf70c95a316cc6a92839c986682d98bc35f958f4883f9d2a890810180546001600160a01b0319166001600160a01b039390931692909217909155602082015180519093906001600160401b0381116200073c5760016005830284010154600181811c911680156200084e575b60208210146200071b57601f811162000810575b506020601f82116001146200078a57918160059260049594608097986000926200077e575b50508160011b916000199060031b1c1916176001838302850101555b60408601516002838302850101556060860151600383830285010155020101910151151560ff801983541691161790556200044862000ab9565b60008152600060208201526200045d62000ab9565b60008082526020820152604051916001600160401b0360c08401908111908411176200073c5760c0830160405260008352600060208401526200049f62000ad9565b60008152604084015260608301526080820152600060a0820152600c5490680100000000000000008210156200073c576001820180600c558210156200076857600c60005280517fdf6966c971051c3d54ec59162606531493a51404a002842f56009d7e5cf4a8c79060038110156200075257600784028201805460ff191660ff929092169190911781556020830151600182015560408301518051600290920191906001600160401b0382116200073c57825490600182811c9216801562000731575b60208310146200071b5781601f849311620006d9575b50602090601f83116001146200066e5760009262000662575b50508160011b916000199060031b1c19161790555b606082015160005b600281106200063c575050608082015192600093845b6002811062000614576007830284016005810187905560a086015160069190910180546001600160a01b0319166001600160a01b0392909216919091179055604051614527908162000b398239f35b9094602060019160ff885116908460031b60ff811b9283911b169119161796019101620005c5565b81516001600160a01b0316600360078702850183010155602090910190600101620005af565b01519050868062000592565b6000858152602081209350601f198516905b818110620006c05750908460019594939210620006a6575b505050811b019055620005a7565b015160001960f88460031b161c1916905586808062000698565b9293602060018192878601518155019501930162000680565b6200070990856000526020600020601f850160051c8101916020861062000710575b601f0160051c019062000b1f565b8762000579565b9091508190620006fb565b634e487b7160e01b600052602260045260246000fd5b91607f169162000563565b634e487b7160e01b600052604160045260246000fd5b634e487b7160e01b600052602160045260246000fd5b634e487b7160e01b600052603260045260246000fd5b015190508880620003f2565b60016005840285010160005260206000209560005b601f1984168110620007f7575082608096976004969593600193600596601f19811610620007dd575b505050811b016001838302850101556200040e565b015160001960f88460031b161c19169055888080620007c8565b828201518855600190970196602092830192016200079f565b62000847906001600585028601016000526020600020601f840160051c810191602085106200071057601f0160051c019062000b1f565b85620003cd565b90607f1690620003b9565b015190508780620002a6565b90601f198716918660005260206000209260005b818110620008bb57509160019391896003999a9410620008a2575b505050811b018555620002ba565b015160001983891b60f8161c1916905587808062000894565b9293602060018192878601518155019501930162000879565b6200090390866000526020600020601f890160051c81019160208a106200071057601f0160051c019062000b1f565b8662000286565b90607f169062000272565b0151905082806200019c565b601f19821692600560005260206000209160005b858110620009725750836001951062000958575b505050811b01600555620001b2565b015160001960f88460031b161c1916905582808062000949565b9192602060018192868501518155019401920162000935565b620009bb9060056000526020600020601f840160051c810191602085106200071057601f0160051c019062000b1f565b8262000180565b90607f16906200016c565b905082015183620000ea565b60026000908152600080516020620050608339815191529250601f198416905b81811062000a385750908360019493921062000a1e575b5050811b01600255620000ff565b84015160001960f88460031b161c19169055838062000a10565b91926020600181928689015181550194019201620009f9565b600260005262000a8c9060008051602062005060833981519152601f840160051c810191602085106200071057601f0160051c019062000b1f565b82620000d1565b90607f1690620000bd565b8060208092840101518282870101520162000087565b600080fd5b60408051919082016001600160401b038111838210176200073c57604052565b60405190602082016001600160401b038111838210176200073c57604052565b6040519190601f01601f191682016001600160401b038111838210176200073c57604052565b81811062000b2b575050565b6000815560010162000b1f56fe6080604052600436101561001257600080fd5b60003560e01c8062fdd58e14612edb578063015a379214612df257806301ffc9a714612d8457806302fe530514612c5d5780630677aa4e14612c4157806309c95e1014612c1e5780630daea2cd14612c025780630e89341c14612b5157806310898e4c14612b195780631107ae3d14612adf57806316801d1714612a9557806318160ddd146109ee5780632711162e14612a5b5780632ca04522146128de5780632eb2c2d61461249d5780633835e2b5146124415780634b114691146124075780634e1273f4146122695780634f558e791461223b5780635c12cd4b146122035780635c93fc3d1461211a578063606d2e96146120935780636c0360eb14611fb1578063703730a514611f95578063715018a614611f33578063811e0acc14611e37578063845f433b14611b465780638da5cb5b14611b1d578063996d7bea14611a4a5780639b09cc87146119f45780639e4ecd11146119d85780639ec40aa3146119a0578063a1b4f57c14611795578063a22cb465146116a8578063ba27495614610af4578063bd85b03914610ac8578063bf034b6914610a39578063bf103a4d14610a0c578063c4e41b22146109ee578063c87b56dd146108e2578063d2198cc5146108c6578063de96cefc146108aa578063e985e9c514610854578063efa1c4821461076b578063f1da73391461074f578063f242432a14610386578063f2fde38b146102ba5763f71d96cb1461022b57600080fd5b346102b55760203660031901126102b557600435600a548110156102b557600a6000526005602060002091020160018060a01b0381541661026e600183016132bd565b9160028101549060ff60046003830154920154169061029f604051958695865260a0602087015260a0860190612f59565b9260408501526060840152151560808301520390f35b600080fd5b346102b55760203660031901126102b5576102d3612f0a565b6102db6133a1565b6001600160a01b0390811690811561033257600380546001600160a01b03198116841790915560405160009390929091167f8be0079c531659141344cd1fd0a4f28419497f9722a3daafe3b4186f6b6457e08484a3f35b60405162461bcd60e51b815260206004820152602660248201527f4f776e61626c653a206e6577206f776e657220697320746865207a65726f206160448201526564647265737360d01b6064820152608490fd5b346102b55760a03660031901126102b55761039f612f0a565b6103a7612f20565b90608480356001600160401b0381116102b5576103c890369060040161305a565b6001600160a01b03919083831633148015610724575b6103e7906134ae565b828516156103f58115613512565b610400604435613725565b61040b606435613725565b91858716156106c4575b610604575b5050604435600052602094600086526040600020848616600052865260406000205461044a60643582101561356c565b604435600052600087526040600020858716600052875260643590036040600020556044356000526000865260406000208482166000528652604060002061049560643582546135cb565b905560405160443581526064358782015284821690858716907fc3d58168c5ae7397731d063d5bbf3d657854427343f4c083240f7aacaa2d0f6260403392a4803b6104dd575b005b60a06000610527958895604051978896879586938563f23a6e6160e01b9d8e87523360048801521660248601526044356044860152606435606486015284015260a4830190612f59565b0393165af1600091816105d5575b506105ab575050600190610547613641565b6308c379a014610576575b5061055957005b60405162461bcd60e51b815280610572600482016136d0565b0390fd5b61057e61365f565b908161058a5750610552565b61057260405192839262461bcd60e51b845260048401526024830190612f59565b6001600160e01b0319161490506104db5760405162461bcd60e51b815280610572600482016135f8565b6105f6919250843d86116105fd575b6105ee818361301e565b8101906135d8565b9084610535565b503d6105e4565b92959194909360005b84518110156106b557610620818661349a565b519061062c818861349a565b518260005260046020526040600020548181106106605761065b9360005260046020520360406000205561347e565b61060d565b60405162461bcd60e51b815260206004820152602860248201527f455243313135353a206275726e20616d6f756e74206578636565647320746f74604482015267616c537570706c7960c01b60648201528b90fd5b5093509390949150858061041a565b959260009794919592975b865181101561071657806106e6610711928b61349a565b516106f1828a61349a565b51600052600460205261070a60406000209182546135cb565b905561347e565b6106cf565b509295969194909396610415565b5082841660005260016020526040600020336000526020526103e760ff6040600020541690506103de565b346102b55760003660031901126102b557602060405160048152f35b346102b55760003660031901126102b557600a546107888161315d565b90610796604051928361301e565b808252600a6000908152602091828401917fc65a7bb8d6351c1cf70c95a316cc6a92839c986682d98bc35f958f4883f9d2a8835b8383106108315750505050604051918083019381845251809452604083019360408160051b85010192916000955b8287106108055785850386f35b909192938280610821600193603f198a82030186528851613206565b96019201960195929190926107f8565b600586600192610843859a999a613770565b8152019201920191909594956107ca565b346102b55760403660031901126102b55761086d612f0a565b610875612f20565b9060018060a01b03809116600052600160205260406000209116600052602052602060ff604060002054166040519015158152f35b346102b55760003660031901126102b557602060405160018152f35b346102b55760003660031901126102b557602060405160008152f35b346102b5576020806003193601126102b5576108ff60043561440e565b9060405191826000916005549261091584613283565b6001948686821691826000146109c9575050600114610987575b509264173539b7b760d91b6006939285602f60f81b61096f975261095b825180938a8785019101612f36565b01918201520360191981018552018361301e565b610983604051928284938452830190612f59565b0390f35b8591506005600052816000206000905b8282106109b157505083010164173539b7b760d91b61092f565b80548983018501528895508793909101908601610997565b60ff1916818701528215159092028501909101915064173539b7b760d91b905061092f565b346102b55760003660031901126102b5576020600654604051908152f35b346102b55760203660031901126102b5576020610a2f610a2a612f0a565b613860565b6040519015158152f35b346102b55760203660031901126102b557600435600b548110156102b557600b600052610ab49060021b7f0175b7a638427703f0dbe7bb9bbf987a2551717b34e79f33b5b1008d1fa01db901610a8e816132bd565b906001810154906003600282015491015490604051948594608086526080860190612f59565b926020850152604084015260608301520390f35b346102b55760203660031901126102b55760043560005260046020526020604060002054604051908152f35b346102b55760403660031901126102b55760043560ff81168091036102b55760249081356001600160401b0381116102b557610b3490369060040161305a565b90610b3e82613a9e565b8051600381101561161f57600103611634578051600381101561161f576002146115e0576060810190815160018060a01b0381511633149081156115c9575b501561158557608001518151516001600160a01b0316330361157d576000905b600260ff8316101561147957611fe060ff9260051b160151166115395751516001600160a01b031633036115325760005b60018214808015611528575b156114e457156114dd5760036040610bf1336137c0565b015110155b1561148e5760405191610c2784519360208181880196610c1781838a612f36565b810160098152030190205461324e565b5090600260ff8416101561147957601f6005610c5d93600786831c160101931683549060031b60ff811b9283911b169119161790565b90556080610c6a83613a9e565b0180515160ff166114705760ff60005b166002039060ff82116111f357516020015160ff166114665760ff8060005b1691160360ff81116111135760ff16906001820361145b57610cc96001915b604051809281928751928391612f36565b8101039020901515907f54b82b77e7ae55a8e6c9e89deba70c7191dea2a3b08ae647b380e9f981d6a0f86000604051a315610d0057005b610d0990613a9e565b606081015180516001600160a01b03163314908115611444575b50156113ec57608081015160ff815116151590816113db575b501561138d5760018060a01b0360608201515116600052600760205260406000205460ff608083015151166060610d7e60018060a01b038286015151166137c0565b0151606084015151604090610d9b906001600160a01b03166138df565b015160608581015151919291610db9906001600160a01b03166138df565b01519260405194610dc986612fe8565b8552602085015260408401526060830152608082015260018060a01b0360206060840151015116600052600760205260406000205460ff602060808501510151166060610e2460018060a01b036020838801510151166137c0565b0151606085015160200151604090610e44906001600160a01b03166138df565b015160608681015160200151919291610e65906001600160a01b03166138df565b01519260405194610e7586612fe8565b8552602085015260408401526060830152608082015260405191610e9883612fb2565b60008352600060208401528260208201516001811480809161137f575b1561113d575050506060810151604083015111611062575050606082015151610ee89083906001600160a01b03166142cb565b505b604051906000825b600282106110425750505060407fc6bf860cbc15f7020f73993a671f01bbb1831a8a7a12c126ca735eb632e7577591a160006080820151526000602060808301510152610f43816040810151614261565b610f4b614055565b60018060a01b03606083015151166000526008602052806002610f72604060002054613363565b500155600a03600a811161102d5760018060a01b036060830151511660005260086020526003610fa6604060002054613363565b500155610fb1614055565b60018060a01b03602060608401510151166000526008602052806002610fdb604060002054613363565b500155600a0391600a831161101957506020606060018060a01b0392015101511660005260086020526003611014604060002054613363565b500155005b634e487b7160e01b60009081526011600452fd5b82634e487b7160e01b60005260116004526000fd5b82516001600160a01b031681526020928301926001929092019101610ef2565b606082015160408201518110611098575050506060820151602001516110929083906001600160a01b03166142cb565b50610eea565b6002929350906110d9916110bb60036110b18451613382565b5001918254614048565b905560608101516110d160036110b18751613382565b905551613382565b500180546002199283820192918311611128576002926110fa925551613382565b5001805491820191821161111357556060810151610eea565b83634e487b7160e01b60005260116004526000fd5b85634e487b7160e01b60005260116004526000fd5b80611371575b1561122b575061115c60408401516080850151906135cb565b60608301519092909183831061118b5750505060608401515161109292508491506001600160a01b03166142cb565b6002936111be93806080880151116000146112085750505060408401515b60036111b58651613382565b50015551613382565b50018054600219810192908311611128576002926111dd925551613382565b5001805490600382018092116111f35755610eea565b84634e487b7160e01b60005260116004526000fd5b61121191614048565b6060880151602001516001600160a01b03169091526111a9565b6002148080611363575b156112ff575061124e60408301516080840151906135cb565b6060840151909290918383106112805750505060608401516020015161109292508491506001600160a01b03166142cb565b6002936112aa93806080850151116000146112df5750505060408101515b60036111b58351613382565b500180549160038301809311611128576002926112c8925551613382565b500180546002198101919082116111f35755610eea565b6112e891614048565b6060880151516001600160a01b031690915261129e565b905080611355575b611313575b5050610eea565b61131f60029151613382565b5001805491600383018093116111285760029261133d925551613382565b5001805490600382018092116111f35755838061130c565b506002602083015114611307565b506001602085015114611235565b506002602085015114611143565b506001602086015114610eb5565b60405162461bcd60e51b8152602060048201526021818401527f506c6179657273207374696c6c206e65656420746f206d616b652061206d6f766044820152606560f81b6064820152608490fd5b60ff91506020015116151583610d3c565b60405162461bcd60e51b815260206004820152602b818401527f4f6e6c7920706c617965727320696e207468697320626174746c652063616e2060448201526a6d616b652061206d6f766560a81b6064820152608490fd5b602001516001600160a01b03163314905083610d23565b610cc9600091610cb8565b60ff806001610c99565b60ff6001610c7a565b85634e487b7160e01b60005260326004526000fd5b60405162461bcd60e51b8152602060048201526022818601527f4d616e61206e6f742073756666696369656e7420666f722061747461636b696e604482015261672160f01b6064820152608490fd5b6001610bf6565b60405162461bcd60e51b815260206004820152601f818701527f43686f6963652073686f756c64206265206569746865722031206f72203221006044820152606490fd5b5060028314610bda565b6001610bce565b60405162461bcd60e51b815260206004820152601d818601527f596f75206861766520616c7265616479206d6164652061206d6f7665210000006044820152606490fd5b600190610b9d565b60405162461bcd60e51b815260206004820152601a818701527f596f7520617265206e6f7420696e207468697320626174746c650000000000006044820152606490fd5b602001516001600160a01b03163314905086610b7d565b60405162461bcd60e51b8152602060048201526018818601527710985d1d1b19481a185cc8185b1c9958591e48195b99195960421b6044820152606490fd5b84634e487b7160e01b60005260216004526000fd5b60405162461bcd60e51b8152602060048201526041818601527f426174746c65206e6f7420737461727465642e20506c656173652074656c6c2060448201527f616e6f7468657220706c6179657220746f206a6f696e2074686520626174746c6064820152606560f81b608482015260a490fd5b346102b55760403660031901126102b5576116c1612f0a565b60243590811515908183036102b5576001600160a01b03169133831461173e576117109033600052600160205260406000208460005260205260406000209060ff801983541691151516179055565b6040519081527f17307eab39ab6107e8899845ad3d59bd9653f200f220920489ca2b5937696c3160203392a3005b60405162461bcd60e51b815260206004820152602960248201527f455243313135353a2073657474696e6720617070726f76616c20737461747573604482015268103337b91039b2b63360b91b6064820152608490fd5b346102b5576020806003193601126102b5576004356001600160401b0381116102b5576117c690369060040161305a565b906117cf61398f565b506117d982613a9e565b918251600381101561198a5761194b576060830180515190916001600160a01b0391821633146118fc57608061180e336137c0565b01516118c357846118289160018252338686510152614261565b8082515116600052600783526004611844604060002054613382565b500160ff1990600182825416179055818484510151166000526007845260016004611873604060002054613382565b50019182541617905582840151915151166040519182527f3726b144f253954160bd0bb1f002a28f904f6e83596cbb62e9e1f2082644ca93833393a36109836040519282849384528301906130ae565b60405162461bcd60e51b8152600481018590526011602482015270416c726561647920696e20626174746c6560781b6044820152606490fd5b60405162461bcd60e51b815260048101859052602160248201527f4f6e6c7920706c617965722074776f2063616e206a6f696e206120626174746c6044820152606560f81b6064820152608490fd5b60405162461bcd60e51b8152600481018390526017602482015276426174746c6520616c726561647920737461727465642160481b6044820152606490fd5b634e487b7160e01b600052602160045260246000fd5b346102b55760203660031901126102b5576004356001600160401b0381116102b5576119d36104db91369060040161305a565b613b7a565b346102b55760003660031901126102b557602060405160058152f35b346102b55760203660031901126102b5576004356001600160401b0381116102b5576080611a30611a2b604093369060040161305a565b613a9e565b015160ff6020818351169201511682519182526020820152f35b346102b55760203660031901126102b5576004356001600160401b0381116102b557611a2b611a7d91369060040161305a565b6060810190815160018060a01b0390818151163314908115611b0d575b5015611ac8578251518116338103611abc575060206104db93510151166142cb565b90506104db92506142cb565b60405162461bcd60e51b815260206004820152601b60248201527f596f7520617265206e6f7420696e207468697320626174746c652100000000006044820152606490fd5b6020015182163314905084611a9a565b346102b55760003660031901126102b5576003546040516001600160a01b039091168152602090f35b346102b55760403660031901126102b5576001600160401b036004358181116102b557611b7790369060040161305a565b6024358281116102b557611b8f90369060040161305a565b611b983361374a565b611df657600a54604051611bab81612fe8565b33815260209485820185815260408301600a8152606084019160198352608085019360008552600160401b871015611dca5760018701600a55611bed87613382565b969096611de0575186546001600160a01b0319166001600160a01b03919091161786559051805160018701929091908211611dca57611c2c8354613283565b8b601f8211611d8e575b50508a90601f8311600114611cf25794611cbc94611ccf989484600495611ce29d9a957f81ef79d1cda814a60c0fc60792e648a06d9c6bae67176346d1cc8b63030bfccd9f9d9a600092611ce7575b50508160011b916000199060031b1c19161790555b51600285015551600384015551151591019060ff801983541691151516179055565b3360005260078752604060002055613b7a565b6040519182918583523395830190612f59565b0390a2005b015190503880611c85565b60008481528c8120929190601f198516908e5b828210611d7657505094600185611ce29d9a957f81ef79d1cda814a60c0fc60792e648a06d9c6bae67176346d1cc8b63030bfccd9f9d9a95611cbc9a95600499611ccf9f9b10611d5d575b505050811b019055611c9a565b015160001960f88460031b161c19169055388080611d50565b80600186978294978701518155019601940190611d05565b611db991856000528160002090601f860160051c8201928610611dc0575b601f0160051c0190613b17565b8b8b611c36565b9091508190611dac565b634e487b7160e01b600052604160045260246000fd5b634e487b7160e01b600052600060045260246000fd5b60405162461bcd60e51b8152602060048201526019602482015278141b185e595c88185b1c9958591e481c9959da5cdd195c9959603a1b6044820152606490fd5b346102b55760003660031901126102b55760196060611e55336137c0565b01511015611ef55760016080611e6a336137c0565b0151151503611eb5573360005260076020526003611e8c604060002054613382565b500180549060058201809211611e9f5755005b634e487b7160e01b600052601160045260246000fd5b60405162461bcd60e51b8152602060048201526018602482015277506c61796572206d75737420626520696e20626174746c6560401b6044820152606490fd5b60405162461bcd60e51b81526020600482015260166024820152751219585b1d1a081a5cc8185b1c9958591e48199d5b1b60521b6044820152606490fd5b346102b55760003660031901126102b557611f4c6133a1565b600380546001600160a01b0319811690915560405160009182906001600160a01b03167f8be0079c531659141344cd1fd0a4f28419497f9722a3daafe3b4186f6b6457e08284a3f35b346102b55760003660031901126102b557602060405160028152f35b346102b55760003660031901126102b557604051600090600554611fd481613283565b80835260019180831690811561206b5750600114612011575b61098383611ffd8187038261301e565b604051918291602083526020830190612f59565b6005600090815260209450917f036b6384b5eca791c62761152d0c79bb0604c104a5fb6f4eb0703f3154bb3db05b82841061205857505050810190910190611ffd81611fed565b805485850187015292850192810161203f565b6109839550611ffd93506020915091849260ff191682840152151560051b8201019350611fed565b346102b55760203660031901126102b557600435600c548110156102b5576120fa90600c6000526007602060002091020160ff815416906121106001820154916120df600282016132bd565b90600660018060a01b039101541692604051958680966130a1565b6020850152608060408501526080840190612f59565b9060608301520390f35b346102b55760003660031901126102b557600c546121378161315d565b90612145604051928361301e565b808252600c6000908152602091828401917fdf6966c971051c3d54ec59162606531493a51404a002842f56009d7e5cf4a8c7835b8383106121e05750505050604051918083019381845251809452604083019360408160051b85010192916000955b8287106121b45785850386f35b9091929382806121d0600193603f198a820301865288516130ae565b96019201960195929190926121a7565b6007866001926121f2859a999a6139de565b815201920192019190959495612179565b346102b55760203660031901126102b557610983612227612222612f0a565b6137c0565b604051918291602083526020830190613206565b346102b55760203660031901126102b557600435600052600460205260206040600020541515604051908152f35b346102b55760403660031901126102b5576004356001600160401b038082116102b557366023830112156102b5578160040135906122a68261315d565b926122b4604051948561301e565b82845260209260248486019160051b830101913683116102b557602401905b8282106123e8575050506024359081116102b5576122f5903690600401613174565b82518151036123915782519261230a8461315d565b93612318604051958661301e565b808552612327601f199161315d565b01368486013760005b815181101561237a57612375906123656001600160a01b03612352838661349a565b511661235e838761349a565b51906133f9565b61236f828861349a565b5261347e565b612330565b5050506109836040519282849384528301906131d2565b60405162461bcd60e51b815260048101839052602960248201527f455243313135353a206163636f756e747320616e6420696473206c656e677468604482015268040dad2e6dac2e8c6d60bb1b6064820152608490fd5b81356001600160a01b03811681036102b55781529084019084016122d3565b346102b55760203660031901126102b5576001600160a01b03612428612f0a565b1660005260076020526020604060002054604051908152f35b346102b55760203660031901126102b5576004356001600160401b0381116102b55761248a60206124778193369060040161305a565b8160405193828580945193849201612f36565b8101600981520301902054604051908152f35b346102b55760031960a0368201126102b5576124b7612f0a565b906124c0612f20565b906001600160401b03604480358281116102b5576124e2903690600401613174565b9060649081358481116102b5576124fd903690600401613174565b9460849485359081116102b55761251890369060040161305a565b6001600160a01b0398891698909190338a1480156128b5575b61253a906134ae565b85518851036128625788169586156125528115613512565b8a1561281f575b61275a575b60005b86518110156125f157806125786125ec928961349a565b518c612584838d61349a565b51918060005282602092600084526040600020816000528452604060002054906125b08383101561356c565b8360005260008552604060002090600052845203604060002055600052600081526040600020908b6000525261070a60406000209182546135cb565b612561565b5090919293968998878a604051604081527f4a39dc06d4c0dbc64b70af90fd698a233a518aa5d07e595d983b8c0526c8f7fb612630604083018c6131d2565b918083036020820152806126453394896131d2565b0390a43b61264f57005b604051978896879663bc197c8160e01b9b8c89523360048a01526024890152870160a0905260a48701612681916131d2565b90848783030190870152612694916131d2565b9184830301908401526126a691612f59565b03815a602094600091f16000918161273a575b5061271257505060016126ca613641565b6308c379a0146126db575b61055957005b6126e361365f565b806126ee57506126d5565b60405162461bcd60e51b815260206004820152908190610572906024830190612f59565b6001600160e01b031916146104db5760405162461bcd60e51b815280610572600482016135f8565b61275391925060203d81116105fd576105ee818361301e565b90836126b9565b96949398929590979160005b855181101561281057612779818761349a565b51612784828961349a565b519080600052602060048152604060002054918383106127bd576127b894939291600491600052520360406000205561347e565b612766565b508b9067616c537570706c7960c01b8f7f455243313135353a206275726e20616d6f756e74206578636565647320746f748e6040519462461bcd60e51b8652600486015260286024860152840152820152fd5b5091979095929893949661255e565b98959996949392919060005b8b5181101561285357808c6106f18261284761284e958f61349a565b519261349a565b61282b565b50909192939496999598612559565b60405162461bcd60e51b815260206004820152602860248201527f455243313135353a2069647320616e6420616d6f756e7473206c656e6774682081860152670dad2e6dac2e8c6d60c31b818701528790fd5b5089600052600160205260406000203360005260205261253a60ff604060002054169050612531565b346102b5576020806003193601126102b5576004356001600160401b0381116102b55761290f90369060040161305a565b9061291861398f565b5061292a6129253361374a565b613b2e565b6129338261395e565b612a1e578060405181810190828252612961816129536040820188612f59565b03601f19810183528261301e565b5190209260405161297181612fb2565b3381526000838201526040519061298782612fb2565b600082526000848301526040519561299e87612fcd565b600087528487015282604087015260608601526080850152600060a08501526129d9600c549283928160405193828580945193849201612f36565b8101600981520301902055600160401b811015611dca5782612a04826001612a0a9401600c5561324e565b90614091565b6109836040519282849384528301906130ae565b6064906040519062461bcd60e51b825260048201526016602482015275426174746c6520616c7265616479206578697374732160501b6044820152fd5b346102b55760203660031901126102b5576001600160a01b03612a7c612f0a565b1660005260086020526020604060002054604051908152f35b346102b55760203660031901126102b5576004356001600160401b0381116102b557612acb611a2b61098392369060040161305a565b6040519182916020835260208301906130ae565b346102b55760203660031901126102b5576004356001600160401b0381116102b557610a2f612b14602092369060040161305a565b61395e565b346102b55760203660031901126102b557610983612b3d612b38612f0a565b6138df565b604051918291602083526020830190612f7e565b346102b5576020806003193601126102b5576040519060008260025491612b7783613283565b92838352600190858282169182600014612be2575050600114612ba2575b5061096f9250038361301e565b849150600260005281600020906000915b858310612bca57505061096f935082010185612b95565b80548389018501528794508693909201918101612bb3565b60ff19168582015261096f95151560051b8501019250879150612b959050565b346102b55760003660031901126102b5576020604051600a8152f35b346102b55760203660031901126102b5576020610a2f612c3c612f0a565b61374a565b346102b55760003660031901126102b557602060405160038152f35b346102b5576020806003193601126102b5576001600160401b036004358181116102b557612c8f90369060040161305a565b91612c986133a1565b8251918211611dca57612cac600254613283565b601f8111612d53575b5080601f8311600114612cef57508192600092612ce4575b50508160011b916000199060031b1c191617600255005b015190508280612ccd565b90601f19831693600260005282600020926000905b868210612d3b5750508360019510612d22575b505050811b01600255005b015160001960f88460031b161c19169055828080612d17565b80600185968294968601518155019501930190612d04565b612d7e90600260005282600020601f850160051c810191848610611dc057601f0160051c0190613b17565b83612cb5565b346102b55760203660031901126102b55760043563ffffffff60e01b81168091036102b557602090636cdb3d1360e11b8114908115612de1575b8115612dd0575b506040519015158152f35b6301ffc9a760e01b14905082612dc5565b6303a24d0760e21b81149150612dbe565b346102b55760003660031901126102b557600b54612e0f8161315d565b90612e1d604051928361301e565b808252600b6000908152602091828401917f0175b7a638427703f0dbe7bb9bbf987a2551717b34e79f33b5b1008d1fa01db9835b838310612eb85750505050604051918083019381845251809452604083019360408160051b85010192916000955b828710612e8c5785850386f35b909192938280612ea8600193603f198a82030186528851612f7e565b9601920196019592919092612e7f565b600486600192612eca859a999a6138a6565b815201920192019190959495612e51565b346102b55760403660031901126102b5576020612f02612ef9612f0a565b602435906133f9565b604051908152f35b600435906001600160a01b03821682036102b557565b602435906001600160a01b03821682036102b557565b60005b838110612f495750506000910152565b8181015183820152602001612f39565b90602091612f7281518092818552858086019101612f36565b601f01601f1916010190565b90606080612f958451608085526080850190612f59565b936020810151602085015260408101516040850152015191015290565b604081019081106001600160401b03821117611dca57604052565b60c081019081106001600160401b03821117611dca57604052565b60a081019081106001600160401b03821117611dca57604052565b608081019081106001600160401b03821117611dca57604052565b90601f801991011681019081106001600160401b03821117611dca57604052565b6001600160401b038111611dca57601f01601f191660200190565b81601f820112156102b5578035906130718261303f565b9261307f604051948561301e565b828452602083830101116102b557816000926020809301838601378301015290565b90600382101561198a5752565b906130ba8183516130a1565b60209182810151838301526130de6040820151610100806040860152840190612f59565b926060820151606084016000905b836002831061313f5750505050608082015190600060a085015b60028210613127575050505060e09060a0600180821b039101511691015290565b828060019260ff875116815201940191019092613106565b83516001600160a01b031682529283019260019290920191016130ec565b6001600160401b038111611dca5760051b60200190565b81601f820112156102b55780359161318b8361315d565b92613199604051948561301e565b808452602092838086019260051b8201019283116102b5578301905b8282106131c3575050505090565b813581529083019083016131b5565b90815180825260208080930193019160005b8281106131f2575050505090565b8351855293810193928101926001016131e4565b9060018060a01b03825116815260808061322f602085015160a0602086015260a0850190612f59565b9360408101516040850152606081015160608501520151151591015290565b600c5481101561326d57600c6000526007602060002091020190600090565b634e487b7160e01b600052603260045260246000fd5b90600182811c921680156132b3575b602083101461329d57565b634e487b7160e01b600052602260045260246000fd5b91607f1691613292565b90604051918260008254926132d184613283565b90818452600194858116908160001461334057506001146132fd575b50506132fb9250038361301e565b565b9093915060005260209081600020936000915b8183106133285750506132fb935082010138806132ed565b85548884018501529485019487945091830191613310565b9150506132fb94506020925060ff191682840152151560051b82010138806132ed565b600b5481101561326d57600b60005260206000209060021b0190600090565b600a5481101561326d57600a6000526005602060002091020190600090565b6003546001600160a01b031633036133b557565b606460405162461bcd60e51b815260206004820152602060248201527f4f776e61626c653a2063616c6c6572206973206e6f7420746865206f776e65726044820152fd5b6001600160a01b031690811561342657600052600060205260406000209060005260205260406000205490565b60405162461bcd60e51b815260206004820152602a60248201527f455243313135353a2061646472657373207a65726f206973206e6f742061207660448201526930b634b21037bbb732b960b11b6064820152608490fd5b6000198114611e9f5760010190565b80511561326d5760200190565b805182101561326d5760209160051b010190565b156134b557565b60405162461bcd60e51b815260206004820152602f60248201527f455243313135353a2063616c6c6572206973206e6f7420746f6b656e206f776e60448201526e195c881b9bdc88185c1c1c9bdd9959608a1b6064820152608490fd5b1561351957565b60405162461bcd60e51b815260206004820152602560248201527f455243313135353a207472616e7366657220746f20746865207a65726f206164604482015264647265737360d81b6064820152608490fd5b1561357357565b60405162461bcd60e51b815260206004820152602a60248201527f455243313135353a20696e73756666696369656e742062616c616e636520666f60448201526939103a3930b739b332b960b11b6064820152608490fd5b91908201809211611e9f57565b908160209103126102b557516001600160e01b0319811681036102b55790565b60809060208152602860208201527f455243313135353a204552433131353552656365697665722072656a656374656040820152676420746f6b656e7360c01b60608201520190565b60009060033d1161364e57565b905060046000803e60005160e01c90565b600060443d106136bc57604051600319913d83016004833e81516001600160401b03918282113d6024840111176136bf578184019485519384116136c7573d850101602084870101116136bf57506136bc9291016020019061301e565b90565b949350505050565b50949350505050565b60809060208152603460208201527f455243313135353a207472616e7366657220746f206e6f6e20455243313135356040820152732932b1b2b4bb32b91034b6b83632b6b2b73a32b960611b60608201520190565b6040519061373282612fb2565b60018252602036818401376137468261348d565b5290565b6001600160a01b031660009081526007602052604090205461376b57600090565b600190565b9060405161377d81612fe8565b608060ff6004839560018060a01b03815416855261379d600182016132bd565b602086015260028101546040860152600381015460608601520154161515910152565b60806040516137ce81612fe8565b60009181838093526060602082015282604082015282606082015201526137f48261374a565b15613823576001600160a01b039091168152600760205260409020546136bc9061381d90613382565b50613770565b60405162461bcd60e51b8152602060048201526015602482015274506c6179657220646f65736e27742065786973742160581b6044820152606490fd5b6001600160a01b031660009081526008602052604090205461376b57600090565b6040519061388e82613003565b60006060838181528260208201528260408201520152565b906040516138b381613003565b6060600382946138c2816132bd565b845260018101546020850152600281015460408501520154910152565b6138e7613881565b506138f181613860565b1561391d5760018060a01b031660005260086020526136bc613917604060002054613363565b506138a6565b60405162461bcd60e51b815260206004820152601960248201527847616d6520746f6b656e20646f65736e27742065786973742160381b6044820152606490fd5b6020613977918160405193828580945193849201612f36565b81016009815203019020541560001461376b57600090565b604090600060a083516139a181612fcd565b809483825283602083015260608183015280516139bd81612fb2565b8136823760608301528051906139d282612fb2565b36823760808201520152565b906040516139eb81612fcd565b809260ff815416600381101561198a5782526001808201549060209182850152600290613a198285016132bd565b60408601526040519182600386016000915b838310613a825750505050509081613a4560a09493612fb2565b60608501526040519060ff6005840154818116845260081c1690820152613a6b81612fb2565b6080840152600601546000196001831b0116910152565b81546001600160a01b0316815291840191908401908601613a2b565b613aa661398f565b50613ab08161395e565b15613ada57613ad4610c1760206136bc938160405193828580945193849201612f36565b506139de565b60405162461bcd60e51b8152602060048201526015602482015274426174746c6520646f65736e27742065786973742160581b6044820152606490fd5b818110613b22575050565b60008155600101613b17565b15613b3557565b60405162461bcd60e51b815260206004820152601c60248201527f506c6561736520526567697374657220506c61796572204669727374000000006044820152606490fd5b6080613b85336137c0565b015161400b57613b976129253361374a565b613b9f613881565b50613ba8614055565b80600a0390600a8211611e9f576040908151602090818101904282523360601b858201526034815260608101966001600160401b0392828910848a1117611dca5760ff60646006928b8a528551902006160660ff8116918215613ff5575b60ff9250613c138a613003565b89521696608082019188835260c060a08201918783520190888252600b5493600160401b851015611dca57600195868601600b55613c5086613363565b959095611de057518051918211611dca57613c6b8654613283565b601f8111613fc5575b508890601f8311600114613f5d576003959493929160009183613f52575b505060001982871b1c191690881b1785555b518685015551600284015551910155336000526008835284600020558351613ccb81612fb2565b600381526203078360ec1b838201523315613f0457613ce987613725565b82865191613cf683612fb2565b81835285368185013781613d098461348d565b526000825b613ec0575b5050505086600052600083528460002033600052835284600020805490838201809211611e9f575584518781528284820152600033917fc3d58168c5ae7397731d063d5bbf3d657854427343f4c083240f7aacaa2d0f62883392a4333b613db8575b5050613d8260065461347e565b60065582519485528401528201527fca8ab07e9ed17d119729fc652dd24df9d8430ca862dda4631925b5b4b99da36260603392a2565b8451838180613df663f23a6e6160e01b95868352336004840152600060248401528c604484015287606484015260a0608484015260a4830190612f59565b03816000335af160009181613ea1575b50613e78575050613e15613641565b6308c379a014613e44575b613e2c575b3880613d75565b825162461bcd60e51b815280610572600482016136d0565b613e4c61365f565b80613e575750613e20565b82610572865192839262461bcd60e51b845260048401526024830190612f59565b6001600160e01b031916149050613e2557825162461bcd60e51b815280610572600482016135f8565b613eb9919250853d87116105fd576105ee818361301e565b9038613e06565b8151811015613eff5780613ed7613ef9928661349a565b51613ee2828561349a565b516000526004895261070a8b6000209182546135cb565b82613d0e565b613d13565b845162461bcd60e51b815260048101849052602160248201527f455243313135353a206d696e7420746f20746865207a65726f206164647265736044820152607360f81b6064820152608490fd5b015190503880613c92565b949392918891601f19821690886000528b6000209160005b8d828210613faf575050978360039910613f97575b505050811b018555613ca4565b015160001983891b60f8161c19169055388080613f8a565b838b015185558d96909401939283019201613f75565b613fef90876000528a600020601f850160051c8101918c8610611dc057601f0160051c0190613b17565b38613c74565b905060ff8214611e9f57600160ff920190613c06565b60405162461bcd60e51b8152602060048201526015602482015274506c6179657220697320696e206120626174746c6560581b6044820152606490fd5b91908203918211611e9f57565b600a60405160208101904482524260408201523360601b60608201526054815261407e81613003565b51902006801561408b5790565b50600590565b929190611de05780519260038085101561198a5760ff1982541660ff80961617825560209081840151906001918285015560029081850160408701518051906001600160401b038211611dca5781906140ea8454613283565b601f8111614231575b508790601f83116001146141cf576000926141c4575b505060001982851b1c191690851b1790555b606086015160005b8381106141a85750505090608085015191600093845b828110614178575050505050600582015560a09091015160069190910180546001600160a01b0319166001600160a01b03929092169190911790559050565b9091928261419c8697848d85995116919060031b60ff811b9283911b169119161790565b96019493929101614139565b81516001600160a01b0316878201840155908501908401614123565b015190503880614109565b90879350601f1983169185600052896000209260005b8b82821061421b5750508411614203575b505050811b01905561411b565b015160001983871b60f8161c191690553880806141f6565b8385015186558b979095019493840193016141e5565b61425b908560005289600020601f850160051c8101918b8610611dc057601f0160051c0190613b17565b386140f3565b9061426b8261395e565b1561428f57612a04610c1760206132fb948160405193828580945193849201612f36565b60405162461bcd60e51b815260206004820152601460248201527310985d1d1b1948191bd95cdb89dd08195e1a5cdd60621b6044820152606490fd5b6142d361398f565b508151600381101561198a576002146143d257600282527fef50ed5920f81c37468aa9114164197f642d73e9ddb502023574253301e6e0466143cc60018060a01b03809316928360a0860152600a60026143b46040880193614336898651614261565b60608901908082515116600052600760205260206040600020549251015116600052604060002054908484614391600461436f85613382565b50019360ff19948581541690556019600361438983613382565b500155613382565b500155600461439f83613382565b50019081541690556019600361438983613382565b50015551604051918291602083526020830190612f59565b0390a290565b60405162461bcd60e51b815260206004820152601460248201527310985d1d1b1948185b1c9958591e48195b99195960621b6044820152606490fd5b80156144d35780816000925b6144bf57506144288261303f565b91614436604051938461301e565b80835281601f196144468361303f565b01916020923684870137905b61445c5750505090565b60001990808201908111611e9f578093600a808204809404811184151516611e9f5761448e60ff928392860290614048565b16603001908111611e9f57855182101561326d5760f81b6001600160f81b03191660001a9085018301539182614452565b916144cb600a9161347e565b92048061441a565b506040516144e081612fb2565b60018152600360fc1b60208201529056fea26469706673582212202b29e3aaeffd6a2756a330ace587b7290a13fc5d989eab4acb86efa9f4422c7d64736f6c63430008100033405787fa12a823e0f2b7631cc41b3ba8828b3321ca811111fa75cd3aa3bb5ace",
  "linkReferences": {},
  "deployedLinkReferences": {}
}