{
  "_format": "hh-sol-artifact-1",
  "contractName": "AVAXGods",
  "sourceName": "contracts/AVAXGods.sol",
  "abi": [
    {
      "inputs": [
        {
          "internalType": "string",
          "name": "_metadataURI",
          "type": "string"
        }
      ],
      "stateMutability": "nonpayable",
      "type": "constructor"
    },
    {
      "anonymous": false,
      "inputs": [
        {
          "indexed": true,
          "internalType": "address",
          "name": "account",
          "type": "address"
        },
        {
          "indexed": true,
          "internalType": "address",
          "name": "operator",
          "type": "address"
        },
        {
          "indexed": false,
          "internalType": "bool",
          "name": "approved",
          "type": "bool"
        }
      ],
      "name": "ApprovalForAll",
      "type": "event"
    },
    {
      "anonymous": false,
      "inputs": [
        {
          "indexed": false,
          "internalType": "string",
          "name": "battleName",
          "type": "string"
        },
        {
          "indexed": true,
          "internalType": "address",
          "name": "winner",
          "type": "address"
        }
      ],
      "name": "BattleEnded",
      "type": "event"
    },
    {
      "anonymous": false,
      "inputs": [
        {
          "indexed": true,
          "internalType": "string",
          "name": "battleName",
          "type": "string"
        },
        {
          "indexed": true,
          "internalType": "bool",
          "name": "isFirstMove",
          "type": "bool"
        }
      ],
      "name": "BattleMove",
      "type": "event"
    },
    {
      "anonymous": false,
      "inputs": [
        {
          "indexed": false,
          "internalType": "bytes32",
          "name": "battleHash",
          "type": "bytes32"
        },
        {
          "indexed": true,
          "internalType": "address",
          "name": "player1",
          "type": "address"
        },
        {
          "indexed": true,
          "internalType": "address",
          "name": "player2",
          "type": "address"
        }
      ],
      "name": "BattleStarted",
      "type": "event"
    },
    {
      "anonymous": false,
      "inputs": [
        {
          "indexed": false,
          "internalType": "bytes32",
          "name": "battleHash",
          "type": "bytes32"
        },
        {
          "indexed": true,
          "internalType": "address",
          "name": "player1",
          "type": "address"
        },
        {
          "indexed": true,
          "internalType": "address",
          "name": "player2",
          "type": "address"
        }
      ],
      "name": "NewBattle",
      "type": "event"
    },
    {
      "anonymous": false,
      "inputs": [
        {
          "indexed": true,
          "internalType": "address",
          "name": "owner",
          "type": "address"
        },
        {
          "indexed": false,
          "internalType": "uint256",
          "name": "id",
          "type": "uint256"
        },
        {
          "indexed": false,
          "internalType": "uint256",
          "name": "attackStrength",
          "type": "uint256"
        },
        {
          "indexed": false,
          "internalType": "uint256",
          "name": "defenseStrength",
          "type": "uint256"
        }
      ],
      "name": "NewGameToken",
      "type": "event"
    },
    {
      "anonymous": false,
      "inputs": [
        {
          "indexed": true,
          "internalType": "address",
          "name": "owner",
          "type": "address"
        },
        {
          "indexed": false,
          "internalType": "string",
          "name": "name",
          "type": "string"
        }
      ],
      "name": "NewPlayer",
      "type": "event"
    },
    {
      "anonymous": false,
      "inputs": [
        {
          "indexed": true,
          "internalType": "address",
          "name": "previousOwner",
          "type": "address"
        },
        {
          "indexed": true,
          "internalType": "address",
          "name": "newOwner",
          "type": "address"
        }
      ],
      "name": "OwnershipTransferred",
      "type": "event"
    },
    {
      "anonymous": false,
      "inputs": [
        {
          "indexed": false,
          "internalType": "string",
          "name": "battleName",
          "type": "string"
        },
        {
          "indexed": true,
          "internalType": "string",
          "name": "player1",
          "type": "string"
        },
        {
          "indexed": true,
          "internalType": "string",
          "name": "player2",
          "type": "string"
        },
        {
          "indexed": false,
          "internalType": "uint256",
          "name": "player1Mana",
          "type": "uint256"
        },
        {
          "indexed": false,
          "internalType": "uint256",
          "name": "player2Mana",
          "type": "uint256"
        },
        {
          "indexed": false,
          "internalType": "uint256",
          "name": "player1Health",
          "type": "uint256"
        },
        {
          "indexed": false,
          "internalType": "uint256",
          "name": "player2Health",
          "type": "uint256"
        }
      ],
      "name": "RoundEnded",
      "type": "event"
    },
    {
      "anonymous": false,
      "inputs": [
        {
          "indexed": true,
          "internalType": "address",
          "name": "operator",
          "type": "address"
        },
        {
          "indexed": true,
          "internalType": "address",
          "name": "from",
          "type": "address"
        },
        {
          "indexed": true,
          "internalType": "address",
          "name": "to",
          "type": "address"
        },
        {
          "indexed": false,
          "internalType": "uint256[]",
          "name": "ids",
          "type": "uint256[]"
        },
        {
          "indexed": false,
          "internalType": "uint256[]",
          "name": "values",
          "type": "uint256[]"
        }
      ],
      "name": "TransferBatch",
      "type": "event"
    },
    {
      "anonymous": false,
      "inputs": [
        {
          "indexed": true,
          "internalType": "address",
          "name": "operator",
          "type": "address"
        },
        {
          "indexed": true,
          "internalType": "address",
          "name": "from",
          "type": "address"
        },
        {
          "indexed": true,
          "internalType": "address",
          "name": "to",
          "type": "address"
        },
        {
          "indexed": false,
          "internalType": "uint256",
          "name": "id",
          "type": "uint256"
        },
        {
          "indexed": false,
          "internalType": "uint256",
          "name": "value",
          "type": "uint256"
        }
      ],
      "name": "TransferSingle",
      "type": "event"
    },
    {
      "anonymous": false,
      "inputs": [
        {
          "indexed": false,
          "internalType": "string",
          "name": "value",
          "type": "string"
        },
        {
          "indexed": true,
          "internalType": "uint256",
          "name": "id",
          "type": "uint256"
        }
      ],
      "name": "URI",
      "type": "event"
    },
    {
      "inputs": [],
      "name": "CELESTION",
      "outputs": [
        {
          "internalType": "uint256",
          "name": "",
          "type": "uint256"
        }
      ],
      "stateMutability": "view",
      "type": "function"
    },
    {
      "inputs": [],
      "name": "DEVIL",
      "outputs": [
        {
          "internalType": "uint256",
          "name": "",
          "type": "uint256"
        }
      ],
      "stateMutability": "view",
      "type": "function"
    },
    {
      "inputs": [],
      "name": "FIREBIRD",
      "outputs": [
        {
          "internalType": "uint256",
          "name": "",
          "type": "uint256"
        }
      ],
      "stateMutability": "view",
      "type": "function"
    },
    {
      "inputs": [],
      "name": "GRIFFIN",
      "outputs": [
        {
          "internalType": "uint256",
          "name": "",
          "type": "uint256"
        }
      ],
      "stateMutability": "view",
      "type": "function"
    },
    {
      "inputs": [],
      "name": "KAMO",
      "outputs": [
        {
          "internalType": "uint256",
          "name": "",
          "type": "uint256"
        }
      ],
      "stateMutability": "view",
      "type": "function"
    },
    {
      "inputs": [],
      "name": "KUKULKAN",
      "outputs": [
        {
          "internalType": "uint256",
          "name": "",
          "type": "uint256"
        }
      ],
      "stateMutability": "view",
      "type": "function"
    },
    {
      "inputs": [],
      "name": "MAX_ATTACK_DEFEND_STRENGTH",
      "outputs": [
        {
          "internalType": "uint256",
          "name": "",
          "type": "uint256"
        }
      ],
      "stateMutability": "view",
      "type": "function"
    },
    {
      "inputs": [
        {
          "internalType": "uint8",
          "name": "_choice",
          "type": "uint8"
        },
        {
          "internalType": "string",
          "name": "_battleName",
          "type": "string"
        }
      ],
      "name": "attackOrDefendChoice",
      "outputs": [],
      "stateMutability": "nonpayable",
      "type": "function"
    },
    {
      "inputs": [
        {
          "internalType": "address",
          "name": "account",
          "type": "address"
        },
        {
          "internalType": "uint256",
          "name": "id",
          "type": "uint256"
        }
      ],
      "name": "balanceOf",
      "outputs": [
        {
          "internalType": "uint256",
          "name": "",
          "type": "uint256"
        }
      ],
      "stateMutability": "view",
      "type": "function"
    },
    {
      "inputs": [
        {
          "internalType": "address[]",
          "name": "accounts",
          "type": "address[]"
        },
        {
          "internalType": "uint256[]",
          "name": "ids",
          "type": "uint256[]"
        }
      ],
      "name": "balanceOfBatch",
      "outputs": [
        {
          "internalType": "uint256[]",
          "name": "",
          "type": "uint256[]"
        }
      ],
      "stateMutability": "view",
      "type": "function"
    },
    {
      "inputs": [],
      "name": "baseURI",
      "outputs": [
        {
          "internalType": "string",
          "name": "",
          "type": "string"
        }
      ],
      "stateMutability": "view",
      "type": "function"
    },
    {
      "inputs": [
        {
          "internalType": "string",
          "name": "",
          "type": "string"
        }
      ],
      "name": "battleInfo",
      "outputs": [
        {
          "internalType": "uint256",
          "name": "",
          "type": "uint256"
        }
      ],
      "stateMutability": "view",
      "type": "function"
    },
    {
      "inputs": [
        {
          "internalType": "uint256",
          "name": "",
          "type": "uint256"
        }
      ],
      "name": "battles",
      "outputs": [
        {
          "internalType": "enum AVAXGods.BattleStatus",
          "name": "battleStatus",
          "type": "uint8"
        },
        {
          "internalType": "bytes32",
          "name": "battleHash",
          "type": "bytes32"
        },
        {
          "internalType": "string",
          "name": "name",
          "type": "string"
        },
        {
          "internalType": "address",
          "name": "winner",
          "type": "address"
        }
      ],
      "stateMutability": "view",
      "type": "function"
    },
    {
      "inputs": [
        {
          "internalType": "string",
          "name": "_name",
          "type": "string"
        }
      ],
      "name": "createBattle",
      "outputs": [
        {
          "components": [
            {
              "internalType": "enum AVAXGods.BattleStatus",
              "name": "battleStatus",
              "type": "uint8"
            },
            {
              "internalType": "bytes32",
              "name": "battleHash",
              "type": "bytes32"
            },
            {
              "internalType": "string",
              "name": "name",
              "type": "string"
            },
            {
              "internalType": "address[2]",
              "name": "players",
              "type": "address[2]"
            },
            {
              "internalType": "uint8[2]",
              "name": "moves",
              "type": "uint8[2]"
            },
            {
              "internalType": "address",
              "name": "winner",
              "type": "address"
            }
          ],
          "internalType": "struct AVAXGods.Battle",
          "name": "",
          "type": "tuple"
        }
      ],
      "stateMutability": "nonpayable",
      "type": "function"
    },
    {
      "inputs": [
        {
          "internalType": "string",
          "name": "_name",
          "type": "string"
        }
      ],
      "name": "createRandomGameToken",
      "outputs": [],
      "stateMutability": "nonpayable",
      "type": "function"
    },
    {
      "inputs": [],
      "name": "drinkPotion",
      "outputs": [],
      "stateMutability": "nonpayable",
      "type": "function"
    },
    {
      "inputs": [
        {
          "internalType": "uint256",
          "name": "id",
          "type": "uint256"
        }
      ],
      "name": "exists",
      "outputs": [
        {
          "internalType": "bool",
          "name": "",
          "type": "bool"
        }
      ],
      "stateMutability": "view",
      "type": "function"
    },
    {
      "inputs": [
        {
          "internalType": "uint256",
          "name": "",
          "type": "uint256"
        }
      ],
      "name": "gameTokens",
      "outputs": [
        {
          "internalType": "string",
          "name": "name",
          "type": "string"
        },
        {
          "internalType": "uint256",
          "name": "id",
          "type": "uint256"
        },
        {
          "internalType": "uint256",
          "name": "attackStrength",
          "type": "uint256"
        },
        {
          "internalType": "uint256",
          "name": "defenseStrength",
          "type": "uint256"
        }
      ],
      "stateMutability": "view",
      "type": "function"
    },
    {
      "inputs": [],
      "name": "getAllBattles",
      "outputs": [
        {
          "components": [
            {
              "internalType": "enum AVAXGods.BattleStatus",
              "name": "battleStatus",
              "type": "uint8"
            },
            {
              "internalType": "bytes32",
              "name": "battleHash",
              "type": "bytes32"
            },
            {
              "internalType": "string",
              "name": "name",
              "type": "string"
            },
            {
              "internalType": "address[2]",
              "name": "players",
              "type": "address[2]"
            },
            {
              "internalType": "uint8[2]",
              "name": "moves",
              "type": "uint8[2]"
            },
            {
              "internalType": "address",
              "name": "winner",
              "type": "address"
            }
          ],
          "internalType": "struct AVAXGods.Battle[]",
          "name": "",
          "type": "tuple[]"
        }
      ],
      "stateMutability": "view",
      "type": "function"
    },
    {
      "inputs": [],
      "name": "getAllPlayerTokens",
      "outputs": [
        {
          "components": [
            {
              "internalType": "string",
              "name": "name",
              "type": "string"
            },
            {
              "internalType": "uint256",
              "name": "id",
              "type": "uint256"
            },
            {
              "internalType": "uint256",
              "name": "attackStrength",
              "type": "uint256"
            },
            {
              "internalType": "uint256",
              "name": "defenseStrength",
              "type": "uint256"
            }
          ],
          "internalType": "struct AVAXGods.GameToken[]",
          "name": "",
          "type": "tuple[]"
        }
      ],
      "stateMutability": "view",
      "type": "function"
    },
    {
      "inputs": [],
      "name": "getAllPlayers",
      "outputs": [
        {
          "components": [
            {
              "internalType": "address",
              "name": "playerAddress",
              "type": "address"
            },
            {
              "internalType": "string",
              "name": "playerName",
              "type": "string"
            },
            {
              "internalType": "uint256",
              "name": "playerMana",
              "type": "uint256"
            },
            {
              "internalType": "uint256",
              "name": "playerHealth",
              "type": "uint256"
            },
            {
              "internalType": "bool",
              "name": "inBattle",
              "type": "bool"
            }
          ],
          "internalType": "struct AVAXGods.Player[]",
          "name": "",
          "type": "tuple[]"
        }
      ],
      "stateMutability": "view",
      "type": "function"
    },
    {
      "inputs": [
        {
          "internalType": "string",
          "name": "_name",
          "type": "string"
        }
      ],
      "name": "getBattle",
      "outputs": [
        {
          "components": [
            {
              "internalType": "enum AVAXGods.BattleStatus",
              "name": "battleStatus",
              "type": "uint8"
            },
            {
              "internalType": "bytes32",
              "name": "battleHash",
              "type": "bytes32"
            },
            {
              "internalType": "string",
              "name": "name",
              "type": "string"
            },
            {
              "internalType": "address[2]",
              "name": "players",
              "type": "address[2]"
            },
            {
              "internalType": "uint8[2]",
              "name": "moves",
              "type": "uint8[2]"
            },
            {
              "internalType": "address",
              "name": "winner",
              "type": "address"
            }
          ],
          "internalType": "struct AVAXGods.Battle",
          "name": "",
          "type": "tuple"
        }
      ],
      "stateMutability": "view",
      "type": "function"
    },
    {
      "inputs": [
        {
          "internalType": "string",
          "name": "_battleName",
          "type": "string"
        }
      ],
      "name": "getBattleMoves",
      "outputs": [
        {
          "internalType": "uint256",
          "name": "P1Move",
          "type": "uint256"
        },
        {
          "internalType": "uint256",
          "name": "P2Move",
          "type": "uint256"
        }
      ],
      "stateMutability": "view",
      "type": "function"
    },
    {
      "inputs": [
        {
          "internalType": "address",
          "name": "addr",
          "type": "address"
        }
      ],
      "name": "getPlayer",
      "outputs": [
        {
          "components": [
            {
              "internalType": "address",
              "name": "playerAddress",
              "type": "address"
            },
            {
              "internalType": "string",
              "name": "playerName",
              "type": "string"
            },
            {
              "internalType": "uint256",
              "name": "playerMana",
              "type": "uint256"
            },
            {
              "internalType": "uint256",
              "name": "playerHealth",
              "type": "uint256"
            },
            {
              "internalType": "bool",
              "name": "inBattle",
              "type": "bool"
            }
          ],
          "internalType": "struct AVAXGods.Player",
          "name": "",
          "type": "tuple"
        }
      ],
      "stateMutability": "view",
      "type": "function"
    },
    {
      "inputs": [
        {
          "internalType": "address",
          "name": "addr",
          "type": "address"
        }
      ],
      "name": "getPlayerToken",
      "outputs": [
        {
          "components": [
            {
              "internalType": "string",
              "name": "name",
              "type": "string"
            },
            {
              "internalType": "uint256",
              "name": "id",
              "type": "uint256"
            },
            {
              "internalType": "uint256",
              "name": "attackStrength",
              "type": "uint256"
            },
            {
              "internalType": "uint256",
              "name": "defenseStrength",
              "type": "uint256"
            }
          ],
          "internalType": "struct AVAXGods.GameToken",
          "name": "",
          "type": "tuple"
        }
      ],
      "stateMutability": "view",
      "type": "function"
    },
    {
      "inputs": [],
      "name": "getTotalSupply",
      "outputs": [
        {
          "internalType": "uint256",
          "name": "",
          "type": "uint256"
        }
      ],
      "stateMutability": "view",
      "type": "function"
    },
    {
      "inputs": [
        {
          "internalType": "address",
          "name": "account",
          "type": "address"
        },
        {
          "internalType": "address",
          "name": "operator",
          "type": "address"
        }
      ],
      "name": "isApprovedForAll",
      "outputs": [
        {
          "internalType": "bool",
          "name": "",
          "type": "bool"
        }
      ],
      "stateMutability": "view",
      "type": "function"
    },
    {
      "inputs": [
        {
          "internalType": "string",
          "name": "_name",
          "type": "string"
        }
      ],
      "name": "isBattle",
      "outputs": [
        {
          "internalType": "bool",
          "name": "",
          "type": "bool"
        }
      ],
      "stateMutability": "view",
      "type": "function"
    },
    {
      "inputs": [
        {
          "internalType": "address",
          "name": "addr",
          "type": "address"
        }
      ],
      "name": "isPlayer",
      "outputs": [
        {
          "internalType": "bool",
          "name": "",
          "type": "bool"
        }
      ],
      "stateMutability": "view",
      "type": "function"
    },
    {
      "inputs": [
        {
          "internalType": "address",
          "name": "addr",
          "type": "address"
        }
      ],
      "name": "isPlayerToken",
      "outputs": [
        {
          "internalType": "bool",
          "name": "",
          "type": "bool"
        }
      ],
      "stateMutability": "view",
      "type": "function"
    },
    {
      "inputs": [
        {
          "internalType": "string",
          "name": "_name",
          "type": "string"
        }
      ],
      "name": "joinBattle",
      "outputs": [
        {
          "components": [
            {
              "internalType": "enum AVAXGods.BattleStatus",
              "name": "battleStatus",
              "type": "uint8"
            },
            {
              "internalType": "bytes32",
              "name": "battleHash",
              "type": "bytes32"
            },
            {
              "internalType": "string",
              "name": "name",
              "type": "string"
            },
            {
              "internalType": "address[2]",
              "name": "players",
              "type": "address[2]"
            },
            {
              "internalType": "uint8[2]",
              "name": "moves",
              "type": "uint8[2]"
            },
            {
              "internalType": "address",
              "name": "winner",
              "type": "address"
            }
          ],
          "internalType": "struct AVAXGods.Battle",
          "name": "",
          "type": "tuple"
        }
      ],
      "stateMutability": "nonpayable",
      "type": "function"
    },
    {
      "inputs": [],
      "name": "owner",
      "outputs": [
        {
          "internalType": "address",
          "name": "",
          "type": "address"
        }
      ],
      "stateMutability": "view",
      "type": "function"
    },
    {
      "inputs": [
        {
          "internalType": "address",
          "name": "",
          "type": "address"
        }
      ],
      "name": "playerInfo",
      "outputs": [
        {
          "internalType": "uint256",
          "name": "",
          "type": "uint256"
        }
      ],
      "stateMutability": "view",
      "type": "function"
    },
    {
      "inputs": [
        {
          "internalType": "address",
          "name": "",
          "type": "address"
        }
      ],
      "name": "playerTokenInfo",
      "outputs": [
        {
          "internalType": "uint256",
          "name": "",
          "type": "uint256"
        }
      ],
      "stateMutability": "view",
      "type": "function"
    },
    {
      "inputs": [
        {
          "internalType": "uint256",
          "name": "",
          "type": "uint256"
        }
      ],
      "name": "players",
      "outputs": [
        {
          "internalType": "address",
          "name": "playerAddress",
          "type": "address"
        },
        {
          "internalType": "string",
          "name": "playerName",
          "type": "string"
        },
        {
          "internalType": "uint256",
          "name": "playerMana",
          "type": "uint256"
        },
        {
          "internalType": "uint256",
          "name": "playerHealth",
          "type": "uint256"
        },
        {
          "internalType": "bool",
          "name": "inBattle",
          "type": "bool"
        }
      ],
      "stateMutability": "view",
      "type": "function"
    },
    {
      "inputs": [
        {
          "internalType": "string",
          "name": "_name",
          "type": "string"
        },
        {
          "internalType": "string",
          "name": "_gameTokenName",
          "type": "string"
        }
      ],
      "name": "registerPlayer",
      "outputs": [],
      "stateMutability": "nonpayable",
      "type": "function"
    },
    {
      "inputs": [],
      "name": "renounceOwnership",
      "outputs": [],
      "stateMutability": "nonpayable",
      "type": "function"
    },
    {
      "inputs": [
        {
          "internalType": "address",
          "name": "from",
          "type": "address"
        },
        {
          "internalType": "address",
          "name": "to",
          "type": "address"
        },
        {
          "internalType": "uint256[]",
          "name": "ids",
          "type": "uint256[]"
        },
        {
          "internalType": "uint256[]",
          "name": "amounts",
          "type": "uint256[]"
        },
        {
          "internalType": "bytes",
          "name": "data",
          "type": "bytes"
        }
      ],
      "name": "safeBatchTransferFrom",
      "outputs": [],
      "stateMutability": "nonpayable",
      "type": "function"
    },
    {
      "inputs": [
        {
          "internalType": "address",
          "name": "from",
          "type": "address"
        },
        {
          "internalType": "address",
          "name": "to",
          "type": "address"
        },
        {
          "internalType": "uint256",
          "name": "id",
          "type": "uint256"
        },
        {
          "internalType": "uint256",
          "name": "amount",
          "type": "uint256"
        },
        {
          "internalType": "bytes",
          "name": "data",
          "type": "bytes"
        }
      ],
      "name": "safeTransferFrom",
      "outputs": [],
      "stateMutability": "nonpayable",
      "type": "function"
    },
    {
      "inputs": [
        {
          "internalType": "address",
          "name": "operator",
          "type": "address"
        },
        {
          "internalType": "bool",
          "name": "approved",
          "type": "bool"
        }
      ],
      "name": "setApprovalForAll",
      "outputs": [],
      "stateMutability": "nonpayable",
      "type": "function"
    },
    {
      "inputs": [
        {
          "internalType": "string",
          "name": "newuri",
          "type": "string"
        }
      ],
      "name": "setURI",
      "outputs": [],
      "stateMutability": "nonpayable",
      "type": "function"
    },
    {
      "inputs": [
        {
          "internalType": "bytes4",
          "name": "interfaceId",
          "type": "bytes4"
        }
      ],
      "name": "supportsInterface",
      "outputs": [
        {
          "internalType": "bool",
          "name": "",
          "type": "bool"
        }
      ],
      "stateMutability": "view",
      "type": "function"
    },
    {
      "inputs": [
        {
          "internalType": "uint256",
          "name": "tokenId",
          "type": "uint256"
        }
      ],
      "name": "tokenURI",
      "outputs": [
        {
          "internalType": "string",
          "name": "",
          "type": "string"
        }
      ],
      "stateMutability": "view",
      "type": "function"
    },
    {
      "inputs": [],
      "name": "totalSupply",
      "outputs": [
        {
          "internalType": "uint256",
          "name": "",
          "type": "uint256"
        }
      ],
      "stateMutability": "view",
      "type": "function"
    },
    {
      "inputs": [
        {
          "internalType": "uint256",
          "name": "id",
          "type": "uint256"
        }
      ],
      "name": "totalSupply",
      "outputs": [
        {
          "internalType": "uint256",
          "name": "",
          "type": "uint256"
        }
      ],
      "stateMutability": "view",
      "type": "function"
    },
    {
      "inputs": [
        {
          "internalType": "address",
          "name": "newOwner",
          "type": "address"
        }
      ],
      "name": "transferOwnership",
      "outputs": [],
      "stateMutability": "nonpayable",
      "type": "function"
    },
    {
      "inputs": [
        {
          "internalType": "uint256",
          "name": "",
          "type": "uint256"
        }
      ],
      "name": "uri",
      "outputs": [
        {
          "internalType": "string",
          "name": "",
          "type": "string"
        }
      ],
      "stateMutability": "view",
      "type": "function"
    }
  ],
  "bytecode": "0x60806040523462000ab45762004ee0803803806200001d8162000af9565b92833981019060208183031262000ab4578051906001600160401b03821162000ab4570181601f8201121562000ab4578051906001600160401b0382116200073c5762000074601f8301601f191660200162000af9565b928284526020838301011162000ab45760005b82811062000a9e57600083850160200152835184906001600160401b0381116200073c57600254600181811c9116801562000a93575b60208210146200071b57601f811162000a51575b50806020601f8211600114620009d957600091620009cd575b508160011b916000199060031b1c1916176002555b60038054336001600160a01b0319821681179092556040516001600160a01b03909116907f8be0079c531659141344cd1fd0a4f28419497f9722a3daafe3b4186f6b6457e090600090a380516001600160401b0381116200073c57600554600181811c91168015620009c2575b60208210146200071b57601f81116200098b575b50602091601f8211600114620009215791819260009262000915575b50508160011b916000199060031b1c1916176005555b604051608081016001600160401b038111828210176200073c57604052620001d962000ad9565b6000815281526020810190600082526040810160008152606082019060008252600b54680100000000000000008110156200073c576001810180600b558110156200076857600b600052925180519460029490941b7f0175b7a638427703f0dbe7bb9bbf987a2551717b34e79f33b5b1008d1fa01db90193906001600160401b0386116200073c578454600181811c911680156200090a575b60208210146200071b57601f8111620008d4575b50602090601f871160011462000865579580916003969760009262000859575b50508160011b9160001990871b1c19161785555b5160018501555160028401555191015560405160a081016001600160401b038111828210176200073c5760405260008152620002f562000ad9565b600081526020820152600060408201526000606082015260006080820152600a5490680100000000000000008210156200073c576001820180600a558210156200076857600a6000528051600583027fc65a7bb8d6351c1cf70c95a316cc6a92839c986682d98bc35f958f4883f9d2a890810180546001600160a01b0319166001600160a01b039390931692909217909155602082015180519093906001600160401b0381116200073c5760016005830284010154600181811c911680156200084e575b60208210146200071b57601f811162000810575b506020601f82116001146200078a57918160059260049594608097986000926200077e575b50508160011b916000199060031b1c1916176001838302850101555b60408601516002838302850101556060860151600383830285010155020101910151151560ff801983541691161790556200044862000ab9565b60008152600060208201526200045d62000ab9565b60008082526020820152604051916001600160401b0360c08401908111908411176200073c5760c0830160405260008352600060208401526200049f62000ad9565b60008152604084015260608301526080820152600060a0820152600c5490680100000000000000008210156200073c576001820180600c558210156200076857600c60005280517fdf6966c971051c3d54ec59162606531493a51404a002842f56009d7e5cf4a8c79060038110156200075257600784028201805460ff191660ff929092169190911781556020830151600182015560408301518051600290920191906001600160401b0382116200073c57825490600182811c9216801562000731575b60208310146200071b5781601f849311620006d9575b50602090601f83116001146200066e5760009262000662575b50508160011b916000199060031b1c19161790555b606082015160005b600281106200063c575050608082015192600093845b6002811062000614576007830284016005810187905560a086015160069190910180546001600160a01b0319166001600160a01b0392909216919091179055604051614387908162000b398239f35b9094602060019160ff885116908460031b60ff811b9283911b169119161796019101620005c5565b81516001600160a01b0316600360078702850183010155602090910190600101620005af565b01519050868062000592565b6000858152602081209350601f198516905b818110620006c05750908460019594939210620006a6575b505050811b019055620005a7565b015160001960f88460031b161c1916905586808062000698565b9293602060018192878601518155019501930162000680565b6200070990856000526020600020601f850160051c8101916020861062000710575b601f0160051c019062000b1f565b8762000579565b9091508190620006fb565b634e487b7160e01b600052602260045260246000fd5b91607f169162000563565b634e487b7160e01b600052604160045260246000fd5b634e487b7160e01b600052602160045260246000fd5b634e487b7160e01b600052603260045260246000fd5b015190508880620003f2565b60016005840285010160005260206000209560005b601f1984168110620007f7575082608096976004969593600193600596601f19811610620007dd575b505050811b016001838302850101556200040e565b015160001960f88460031b161c19169055888080620007c8565b828201518855600190970196602092830192016200079f565b62000847906001600585028601016000526020600020601f840160051c810191602085106200071057601f0160051c019062000b1f565b85620003cd565b90607f1690620003b9565b015190508780620002a6565b90601f198716918660005260206000209260005b818110620008bb57509160019391896003999a9410620008a2575b505050811b018555620002ba565b015160001983891b60f8161c1916905587808062000894565b9293602060018192878601518155019501930162000879565b6200090390866000526020600020601f890160051c81019160208a106200071057601f0160051c019062000b1f565b8662000286565b90607f169062000272565b0151905082806200019c565b601f19821692600560005260206000209160005b858110620009725750836001951062000958575b505050811b01600555620001b2565b015160001960f88460031b161c1916905582808062000949565b9192602060018192868501518155019401920162000935565b620009bb9060056000526020600020601f840160051c810191602085106200071057601f0160051c019062000b1f565b8262000180565b90607f16906200016c565b905082015183620000ea565b6002600090815260008051602062004ec08339815191529250601f198416905b81811062000a385750908360019493921062000a1e575b5050811b01600255620000ff565b84015160001960f88460031b161c19169055838062000a10565b91926020600181928689015181550194019201620009f9565b600260005262000a8c9060008051602062004ec0833981519152601f840160051c810191602085106200071057601f0160051c019062000b1f565b82620000d1565b90607f1690620000bd565b8060208092840101518282870101520162000087565b600080fd5b60408051919082016001600160401b038111838210176200073c57604052565b60405190602082016001600160401b038111838210176200073c57604052565b6040519190601f01601f191682016001600160401b038111838210176200073c57604052565b81811062000b2b575050565b6000815560010162000b1f56fe6080604052600436101561001257600080fd5b60003560e01c8062fdd58e14612cbd578063015a379214612bd457806301ffc9a714612b6657806302fe530514612a3f5780630677aa4e14612a2357806309c95e1014612a005780630daea2cd146129e45780630e89341c1461293357806310898e4c146128fb5780631107ae3d146128c157806316801d171461287757806318160ddd146109e35780632711162e1461283d5780632ca04522146126c05780632eb2c2d61461227f5780633835e2b5146122235780634b114691146121e95780634e1273f41461204b5780634f558e791461201d5780635c12cd4b14611fe55780635c93fc3d14611efc578063606d2e9614611e755780636c0360eb14611d93578063703730a514611d77578063715018a614611d15578063811e0acc14611c2f578063845f433b1461193e5780638da5cb5b146119155780639b09cc87146118bf5780639e4ecd11146118a35780639ec40aa31461186b578063a1b4f57c14611676578063a22cb46514611589578063ba27495614610ae9578063bd85b03914610abd578063bf034b6914610a2e578063bf103a4d14610a01578063c4e41b22146109e3578063c87b56dd146108d7578063d2198cc5146108bb578063de96cefc1461089f578063e985e9c514610849578063efa1c48214610760578063f1da733914610744578063f242432a1461037b578063f2fde38b146102af5763f71d96cb1461022057600080fd5b346102aa5760203660031901126102aa57600435600a548110156102aa57600a6000526005602060002091020160018060a01b0381541661026360018301613089565b9160028101549060ff600460038301549201541690610294604051958695865260a0602087015260a0860190612d3b565b9260408501526060840152151560808301520390f35b600080fd5b346102aa5760203660031901126102aa576102c8612cec565b6102d061316d565b6001600160a01b0390811690811561032757600380546001600160a01b03198116841790915560405160009390929091167f8be0079c531659141344cd1fd0a4f28419497f9722a3daafe3b4186f6b6457e08484a3f35b60405162461bcd60e51b815260206004820152602660248201527f4f776e61626c653a206e6577206f776e657220697320746865207a65726f206160448201526564647265737360d01b6064820152608490fd5b346102aa5760a03660031901126102aa57610394612cec565b61039c612d02565b90608480356001600160401b0381116102aa576103bd903690600401612e3c565b6001600160a01b03919083831633148015610719575b6103dc9061327a565b828516156103ea81156132de565b6103f56044356134f1565b6104006064356134f1565b91858716156106b9575b6105f9575b5050604435600052602094600086526040600020848616600052865260406000205461043f606435821015613338565b604435600052600087526040600020858716600052875260643590036040600020556044356000526000865260406000208482166000528652604060002061048a6064358254613397565b905560405160443581526064358782015284821690858716907fc3d58168c5ae7397731d063d5bbf3d657854427343f4c083240f7aacaa2d0f6260403392a4803b6104d2575b005b60a0600061051c958895604051978896879586938563f23a6e6160e01b9d8e87523360048801521660248601526044356044860152606435606486015284015260a4830190612d3b565b0393165af1600091816105ca575b506105a057505060019061053c61340d565b6308c379a01461056b575b5061054e57005b60405162461bcd60e51b8152806105676004820161349c565b0390fd5b61057361342b565b908161057f5750610547565b61056760405192839262461bcd60e51b845260048401526024830190612d3b565b6001600160e01b0319161490506104d05760405162461bcd60e51b815280610567600482016133c4565b6105eb919250843d86116105f2575b6105e38183612e00565b8101906133a4565b908461052a565b503d6105d9565b92959194909360005b84518110156106aa576106158186613266565b51906106218188613266565b51826000526004602052604060002054818110610655576106509360005260046020520360406000205561324a565b610602565b60405162461bcd60e51b815260206004820152602860248201527f455243313135353a206275726e20616d6f756e74206578636565647320746f74604482015267616c537570706c7960c01b60648201528b90fd5b5093509390949150858061040f565b959260009794919592975b865181101561070b57806106db610706928b613266565b516106e6828a613266565b5160005260046020526106ff6040600020918254613397565b905561324a565b6106c4565b50929596919490939661040a565b5082841660005260016020526040600020336000526020526103dc60ff6040600020541690506103d3565b346102aa5760003660031901126102aa57602060405160048152f35b346102aa5760003660031901126102aa57600a5461077d81612f3f565b9061078b6040519283612e00565b808252600a6000908152602091828401917fc65a7bb8d6351c1cf70c95a316cc6a92839c986682d98bc35f958f4883f9d2a8835b8383106108265750505050604051918083019381845251809452604083019360408160051b85010192916000955b8287106107fa5785850386f35b909192938280610816600193603f198a82030186528851612fe8565b96019201960195929190926107ed565b600586600192610838859a999a61353c565b8152019201920191909594956107bf565b346102aa5760403660031901126102aa57610862612cec565b61086a612d02565b9060018060a01b03809116600052600160205260406000209116600052602052602060ff604060002054166040519015158152f35b346102aa5760003660031901126102aa57602060405160018152f35b346102aa5760003660031901126102aa57602060405160008152f35b346102aa576020806003193601126102aa576108f4600435614273565b9060405191826000916005549261090a8461304f565b6001948686821691826000146109be57505060011461097c575b509264173539b7b760d91b6006939285602f60f81b6109649752610950825180938a8785019101612d18565b019182015203601919810185520183612e00565b610978604051928284938452830190612d3b565b0390f35b8591506005600052816000206000905b8282106109a657505083010164173539b7b760d91b610924565b8054898301850152889550879390910190860161098c565b60ff1916818701528215159092028501909101915064173539b7b760d91b9050610924565b346102aa5760003660031901126102aa576020600654604051908152f35b346102aa5760203660031901126102aa576020610a24610a1f612cec565b61362c565b6040519015158152f35b346102aa5760203660031901126102aa57600435600b548110156102aa57600b600052610aa99060021b7f0175b7a638427703f0dbe7bb9bbf987a2551717b34e79f33b5b1008d1fa01db901610a8381613089565b906001810154906003600282015491015490604051948594608086526080860190612d3b565b926020850152604084015260608301520390f35b346102aa5760203660031901126102aa5760043560005260046020526020604060002054604051908152f35b346102aa5760403660031901126102aa5760043560ff81168091036102aa576024356001600160401b0381116102aa57610b27903690600401612e3c565b90610b318261386a565b805160038110156114fe5760010361151457805160038110156114fe576002146114be576060810190815160018060a01b0381511633149081156114a7575b501561146257608001518151516001600160a01b0316330361145a576000905b600260ff831610156113a957611fe060ff9260051b1601511661141557610bb5613e2e565b336000526008602052806002610bcf60406000205461312f565b500155600a03600a8111611096573360005260086020526003610bf660406000205461312f565b50015551516001600160a01b0316330361140e5760005b600182148015611404575b156113bf5760405191610c4984519360208181880196610c3981838a612d18565b8101600981520301902054613030565b5090600260ff841610156113a957601f6005610c7f93600786831c160101931683549060031b60ff811b9283911b169119161790565b90556080610c8c8361386a565b0180515160ff166113a05760ff60005b166002039060ff821161109657516020015160ff166113965760ff8060005b1691160360ff81116110965760ff16906001820361138b57610ceb6001915b604051809281928751928391612d18565b8101039020901515907f54b82b77e7ae55a8e6c9e89deba70c7191dea2a3b08ae647b380e9f981d6a0f86000604051a315610d2257005b610d2b9061386a565b606081015180516001600160a01b03163314908115611374575b501561131b57608081015160ff8151161515908161130a575b50156112bb5760018060a01b036060820151511660005260076020526040600020549060ff608082015151166060610da160018060a01b0382850151511661358c565b0151606083015151604090610dbe906001600160a01b03166136ab565b015160608481015151919291610ddc906001600160a01b03166136ab565b01519260405195610dec87612dca565b8652602086015260408501526060840152608083015260018060a01b036020606083015101511660005260076020526040600020549160ff602060808401510151166060610e4860018060a01b0360208387015101511661358c565b0151606084015160200151604090610e68906001600160a01b03166136ab565b015160608581015160200151610e86906001600160a01b03166136ab565b01519160405196610e9688612dca565b87528360208801526040870152606086015260808501526020820151600181148080916112b1575b156110ac575050506060810151604084015111610fe7576060820151516104d09390610ef49084906001600160a01b0316614130565b505b60408301917f2bac8c3f6044cb1139104a12b204201700e0e274bbf9e1cf6507f960472ea581610fb68451610f2b845161314e565b5093610f37865161314e565b50946003610f546002610f4a855161314e565b500154935161314e565b500154966001806003610f766002610f6c865161314e565b500154945161314e565b50015493610f8a60405180938193016140ad565b03902097610f9e60405180938193016140ad565b0390209760405195869560a0875260a0870190612d3b565b9360208601526040850152606084015260808301520390a36000608083015152600060206080840151015251614043565b60608301516040820151811061102057506060820151602001516104d0939061101a9084906001600160a01b0316614130565b50610ef6565b611039600361102f845161314e565b5001918254613e21565b9055606081015161104f600361102f865161314e565b9055600261105d825161314e565b5001805460021994918582019182116110965755600261107d825161314e565b5001938454908101908111611096576104d09455610ef6565b634e487b7160e01b600052601160045260246000fd5b806112a7575b156111705750506110cc6040840151608085015190613397565b60608201518181106110f95750506060820151516104d0939061101a9084906001600160a01b0316614130565b8060808601511160001461116257505060408301515b600361111b855161314e565b500155600261112a825161314e565b5001805460021981019190821161109657556002611148845161314e565b500192835460038101809111611096576104d09455610ef6565b61116b91613e21565b61110f565b60021490818061129d575b1561123c5750506111956040820151608083015190613397565b60608401518181106111c55750506060820151602001516104d0939061101a9084906001600160a01b0316614130565b8060808401511160001461122e57505060408101515b60036111e7835161314e565b50015560026111f6825161314e565b50018054906003820180921161109657556002611213845161314e565b50019283546002198101908111611096576104d09455610ef6565b61123791613e21565b6111db565b81611292575b50611251575b6104d092610ef6565b600261125d825161314e565b5001805490600382018092116110965755600261127a845161314e565b50019283546003810180911161109657909355611248565b600291501484611242565b506001811461117b565b50600282146110b2565b5060018314610ebe565b60405162461bcd60e51b815260206004820152602160248201527f506c6179657273207374696c6c206e65656420746f206d616b652061206d6f766044820152606560f81b6064820152608490fd5b60ff91506020015116151582610d5e565b60405162461bcd60e51b815260206004820152602b60248201527f4f6e6c7920706c617965727320696e207468697320626174746c652063616e2060448201526a6d616b652061206d6f766560a81b6064820152608490fd5b602001516001600160a01b03163314905082610d45565b610ceb600091610cda565b60ff806001610cbb565b60ff6001610c9c565b634e487b7160e01b600052603260045260246000fd5b60405162461bcd60e51b815260206004820152601f60248201527f43686f6963652073686f756c64206265206569746865722031206f72203221006044820152606490fd5b5060028214610c18565b6001610c0d565b60405162461bcd60e51b815260206004820152601d60248201527f596f75206861766520616c7265616479206d6164652061206d6f7665210000006044820152606490fd5b600190610b90565b60405162461bcd60e51b815260206004820152601a60248201527f596f7520617265206e6f7420696e207468697320626174746c650000000000006044820152606490fd5b602001516001600160a01b03163314905085610b70565b60405162461bcd60e51b815260206004820152601860248201527710985d1d1b19481a185cc8185b1c9958591e48195b99195960421b6044820152606490fd5b634e487b7160e01b600052602160045260246000fd5b60405162461bcd60e51b815260206004820152604160248201527f426174746c65206e6f7420737461727465642e20506c656173652074656c6c2060448201527f616e6f7468657220706c6179657220746f206a6f696e2074686520626174746c6064820152606560f81b608482015260a490fd5b346102aa5760403660031901126102aa576115a2612cec565b60243590811515908183036102aa576001600160a01b03169133831461161f576115f19033600052600160205260406000208460005260205260406000209060ff801983541691151516179055565b6040519081527f17307eab39ab6107e8899845ad3d59bd9653f200f220920489ca2b5937696c3160203392a3005b60405162461bcd60e51b815260206004820152602960248201527f455243313135353a2073657474696e6720617070726f76616c20737461747573604482015268103337b91039b2b63360b91b6064820152608490fd5b346102aa576020806003193601126102aa576004356001600160401b0381116102aa576116a7903690600401612e3c565b906116b061375b565b506116ba8261386a565b91825160038110156114fe5761182c576060830180515190916001600160a01b0391821633146117dd5760806116ef3361358c565b01516117a457846117099160018252338686510152614043565b808251511660005260078352600461172560406000205461314e565b500160ff199060018282541617905581848451015116600052600784526001600461175460406000205461314e565b50019182541617905582840151915151166040519182527f3726b144f253954160bd0bb1f002a28f904f6e83596cbb62e9e1f2082644ca93833393a3610978604051928284938452830190612e90565b60405162461bcd60e51b8152600481018590526011602482015270416c726561647920696e20626174746c6560781b6044820152606490fd5b60405162461bcd60e51b815260048101859052602160248201527f4f6e6c7920706c617965722074776f2063616e206a6f696e206120626174746c6044820152606560f81b6064820152608490fd5b60405162461bcd60e51b8152600481018390526017602482015276426174746c6520616c726561647920737461727465642160481b6044820152606490fd5b346102aa5760203660031901126102aa576004356001600160401b0381116102aa5761189e6104d0913690600401612e3c565b613946565b346102aa5760003660031901126102aa57602060405160058152f35b346102aa5760203660031901126102aa576004356001600160401b0381116102aa5760806118fb6118f66040933690600401612e3c565b61386a565b015160ff6020818351169201511682519182526020820152f35b346102aa5760003660031901126102aa576003546040516001600160a01b039091168152602090f35b346102aa5760403660031901126102aa576001600160401b036004358181116102aa5761196f903690600401612e3c565b6024358281116102aa57611987903690600401612e3c565b61199033613516565b611bee57600a546040516119a381612dca565b33815260209485820185815260408301600a8152606084019160198352608085019360008552600160401b871015611bc25760018701600a556119e58761314e565b969096611bd8575186546001600160a01b0319166001600160a01b03919091161786559051805160018701929091908211611bc257611a24835461304f565b8b601f8211611b86575b50508a90601f8311600114611aea5794611ab494611ac7989484600495611ada9d9a957f81ef79d1cda814a60c0fc60792e648a06d9c6bae67176346d1cc8b63030bfccd9f9d9a600092611adf575b50508160011b916000199060031b1c19161790555b51600285015551600384015551151591019060ff801983541691151516179055565b3360005260078752604060002055613946565b6040519182918583523395830190612d3b565b0390a2005b015190503880611a7d565b60008481528c8120929190601f198516908e5b828210611b6e57505094600185611ada9d9a957f81ef79d1cda814a60c0fc60792e648a06d9c6bae67176346d1cc8b63030bfccd9f9d9a95611ab49a95600499611ac79f9b10611b55575b505050811b019055611a92565b015160001960f88460031b161c19169055388080611b48565b80600186978294978701518155019601940190611afd565b611bb191856000528160002090601f860160051c8201928610611bb8575b601f0160051c01906138e3565b8b8b611a2e565b9091508190611ba4565b634e487b7160e01b600052604160045260246000fd5b634e487b7160e01b600052600060045260246000fd5b60405162461bcd60e51b8152602060048201526019602482015278141b185e595c88185b1c9958591e481c9959da5cdd195c9959603a1b6044820152606490fd5b346102aa5760003660031901126102aa5760196060611c4d3361358c565b01511015611cd75760016080611c623361358c565b0151151503611c97573360005260076020526003611c8460406000205461314e565b5001805490600582018092116110965755005b60405162461bcd60e51b8152602060048201526018602482015277506c61796572206d75737420626520696e20626174746c6560401b6044820152606490fd5b60405162461bcd60e51b81526020600482015260166024820152751219585b1d1a081a5cc8185b1c9958591e48199d5b1b60521b6044820152606490fd5b346102aa5760003660031901126102aa57611d2e61316d565b600380546001600160a01b0319811690915560405160009182906001600160a01b03167f8be0079c531659141344cd1fd0a4f28419497f9722a3daafe3b4186f6b6457e08284a3f35b346102aa5760003660031901126102aa57602060405160028152f35b346102aa5760003660031901126102aa57604051600090600554611db68161304f565b808352600191808316908115611e4d5750600114611df3575b61097883611ddf81870382612e00565b604051918291602083526020830190612d3b565b6005600090815260209450917f036b6384b5eca791c62761152d0c79bb0604c104a5fb6f4eb0703f3154bb3db05b828410611e3a57505050810190910190611ddf81611dcf565b8054858501870152928501928101611e21565b6109789550611ddf93506020915091849260ff191682840152151560051b8201019350611dcf565b346102aa5760203660031901126102aa57600435600c548110156102aa57611edc90600c6000526007602060002091020160ff81541690611ef2600182015491611ec160028201613089565b90600660018060a01b03910154169260405195868096612e83565b6020850152608060408501526080840190612d3b565b9060608301520390f35b346102aa5760003660031901126102aa57600c54611f1981612f3f565b90611f276040519283612e00565b808252600c6000908152602091828401917fdf6966c971051c3d54ec59162606531493a51404a002842f56009d7e5cf4a8c7835b838310611fc25750505050604051918083019381845251809452604083019360408160051b85010192916000955b828710611f965785850386f35b909192938280611fb2600193603f198a82030186528851612e90565b9601920196019592919092611f89565b600786600192611fd4859a999a6137aa565b815201920192019190959495611f5b565b346102aa5760203660031901126102aa57610978612009612004612cec565b61358c565b604051918291602083526020830190612fe8565b346102aa5760203660031901126102aa57600435600052600460205260206040600020541515604051908152f35b346102aa5760403660031901126102aa576004356001600160401b038082116102aa57366023830112156102aa5781600401359061208882612f3f565b926120966040519485612e00565b82845260209260248486019160051b830101913683116102aa57602401905b8282106121ca575050506024359081116102aa576120d7903690600401612f56565b8251815103612173578251926120ec84612f3f565b936120fa6040519586612e00565b808552612109601f1991612f3f565b01368486013760005b815181101561215c57612157906121476001600160a01b036121348386613266565b51166121408387613266565b51906131c5565b6121518288613266565b5261324a565b612112565b505050610978604051928284938452830190612fb4565b60405162461bcd60e51b815260048101839052602960248201527f455243313135353a206163636f756e747320616e6420696473206c656e677468604482015268040dad2e6dac2e8c6d60bb1b6064820152608490fd5b81356001600160a01b03811681036102aa5781529084019084016120b5565b346102aa5760203660031901126102aa576001600160a01b0361220a612cec565b1660005260076020526020604060002054604051908152f35b346102aa5760203660031901126102aa576004356001600160401b0381116102aa5761226c602061225981933690600401612e3c565b8160405193828580945193849201612d18565b8101600981520301902054604051908152f35b346102aa5760031960a0368201126102aa57612299612cec565b906122a2612d02565b906001600160401b03604480358281116102aa576122c4903690600401612f56565b9060649081358481116102aa576122df903690600401612f56565b9460849485359081116102aa576122fa903690600401612e3c565b6001600160a01b0398891698909190338a148015612697575b61231c9061327a565b855188510361264457881695861561233481156132de565b8a15612601575b61253c575b60005b86518110156123d3578061235a6123ce9289613266565b518c612366838d613266565b519180600052826020926000845260406000208160005284526040600020549061239283831015613338565b8360005260008552604060002090600052845203604060002055600052600081526040600020908b600052526106ff6040600020918254613397565b612343565b5090919293968998878a604051604081527f4a39dc06d4c0dbc64b70af90fd698a233a518aa5d07e595d983b8c0526c8f7fb612412604083018c612fb4565b91808303602082015280612427339489612fb4565b0390a43b61243157005b604051978896879663bc197c8160e01b9b8c89523360048a01526024890152870160a0905260a4870161246391612fb4565b9084878303019087015261247691612fb4565b91848303019084015261248891612d3b565b03815a602094600091f16000918161251c575b506124f457505060016124ac61340d565b6308c379a0146124bd575b61054e57005b6124c561342b565b806124d057506124b7565b60405162461bcd60e51b815260206004820152908190610567906024830190612d3b565b6001600160e01b031916146104d05760405162461bcd60e51b815280610567600482016133c4565b61253591925060203d81116105f2576105e38183612e00565b908361249b565b96949398929590979160005b85518110156125f25761255b8187613266565b516125668289613266565b5190806000526020600481526040600020549183831061259f5761259a94939291600491600052520360406000205561324a565b612548565b508b9067616c537570706c7960c01b8f7f455243313135353a206275726e20616d6f756e74206578636565647320746f748e6040519462461bcd60e51b8652600486015260286024860152840152820152fd5b50919790959298939496612340565b98959996949392919060005b8b5181101561263557808c6106e682612629612630958f613266565b5192613266565b61260d565b5090919293949699959861233b565b60405162461bcd60e51b815260206004820152602860248201527f455243313135353a2069647320616e6420616d6f756e7473206c656e6774682081860152670dad2e6dac2e8c6d60c31b818701528790fd5b5089600052600160205260406000203360005260205261231c60ff604060002054169050612313565b346102aa576020806003193601126102aa576004356001600160401b0381116102aa576126f1903690600401612e3c565b906126fa61375b565b5061270c61270733613516565b6138fa565b6127158261372a565b612800578060405181810190828252612743816127356040820188612d3b565b03601f198101835282612e00565b5190209260405161275381612d94565b3381526000838201526040519061276982612d94565b600082526000848301526040519561278087612daf565b600087528487015282604087015260608601526080850152600060a08501526127bb600c549283928160405193828580945193849201612d18565b8101600981520301902055600160401b811015611bc257826127e68260016127ec9401600c55613030565b90613e73565b610978604051928284938452830190612e90565b6064906040519062461bcd60e51b825260048201526016602482015275426174746c6520616c7265616479206578697374732160501b6044820152fd5b346102aa5760203660031901126102aa576001600160a01b0361285e612cec565b1660005260086020526020604060002054604051908152f35b346102aa5760203660031901126102aa576004356001600160401b0381116102aa576128ad6118f6610978923690600401612e3c565b604051918291602083526020830190612e90565b346102aa5760203660031901126102aa576004356001600160401b0381116102aa57610a246128f66020923690600401612e3c565b61372a565b346102aa5760203660031901126102aa5761097861291f61291a612cec565b6136ab565b604051918291602083526020830190612d60565b346102aa576020806003193601126102aa5760405190600082600254916129598361304f565b928383526001908582821691826000146129c4575050600114612984575b5061096492500383612e00565b849150600260005281600020906000915b8583106129ac575050610964935082010185612977565b80548389018501528794508693909201918101612995565b60ff19168582015261096495151560051b85010192508791506129779050565b346102aa5760003660031901126102aa576020604051600a8152f35b346102aa5760203660031901126102aa576020610a24612a1e612cec565b613516565b346102aa5760003660031901126102aa57602060405160038152f35b346102aa576020806003193601126102aa576001600160401b036004358181116102aa57612a71903690600401612e3c565b91612a7a61316d565b8251918211611bc257612a8e60025461304f565b601f8111612b35575b5080601f8311600114612ad157508192600092612ac6575b50508160011b916000199060031b1c191617600255005b015190508280612aaf565b90601f19831693600260005282600020926000905b868210612b1d5750508360019510612b04575b505050811b01600255005b015160001960f88460031b161c19169055828080612af9565b80600185968294968601518155019501930190612ae6565b612b6090600260005282600020601f850160051c810191848610611bb857601f0160051c01906138e3565b83612a97565b346102aa5760203660031901126102aa5760043563ffffffff60e01b81168091036102aa57602090636cdb3d1360e11b8114908115612bc3575b8115612bb2575b506040519015158152f35b6301ffc9a760e01b14905082612ba7565b6303a24d0760e21b81149150612ba0565b346102aa5760003660031901126102aa57600b54612bf181612f3f565b90612bff6040519283612e00565b808252600b6000908152602091828401917f0175b7a638427703f0dbe7bb9bbf987a2551717b34e79f33b5b1008d1fa01db9835b838310612c9a5750505050604051918083019381845251809452604083019360408160051b85010192916000955b828710612c6e5785850386f35b909192938280612c8a600193603f198a82030186528851612d60565b9601920196019592919092612c61565b600486600192612cac859a999a613672565b815201920192019190959495612c33565b346102aa5760403660031901126102aa576020612ce4612cdb612cec565b602435906131c5565b604051908152f35b600435906001600160a01b03821682036102aa57565b602435906001600160a01b03821682036102aa57565b60005b838110612d2b5750506000910152565b8181015183820152602001612d1b565b90602091612d5481518092818552858086019101612d18565b601f01601f1916010190565b90606080612d778451608085526080850190612d3b565b936020810151602085015260408101516040850152015191015290565b604081019081106001600160401b03821117611bc257604052565b60c081019081106001600160401b03821117611bc257604052565b60a081019081106001600160401b03821117611bc257604052565b608081019081106001600160401b03821117611bc257604052565b90601f801991011681019081106001600160401b03821117611bc257604052565b6001600160401b038111611bc257601f01601f191660200190565b81601f820112156102aa57803590612e5382612e21565b92612e616040519485612e00565b828452602083830101116102aa57816000926020809301838601378301015290565b9060038210156114fe5752565b90612e9c818351612e83565b6020918281015183830152612ec06040820151610100806040860152840190612d3b565b926060820151606084016000905b8360028310612f215750505050608082015190600060a085015b60028210612f09575050505060e09060a0600180821b039101511691015290565b828060019260ff875116815201940191019092612ee8565b83516001600160a01b03168252928301926001929092019101612ece565b6001600160401b038111611bc25760051b60200190565b81601f820112156102aa57803591612f6d83612f3f565b92612f7b6040519485612e00565b808452602092838086019260051b8201019283116102aa578301905b828210612fa5575050505090565b81358152908301908301612f97565b90815180825260208080930193019160005b828110612fd4575050505090565b835185529381019392810192600101612fc6565b9060018060a01b038251168152608080613011602085015160a0602086015260a0850190612d3b565b9360408101516040850152606081015160608501520151151591015290565b600c548110156113a957600c6000526007602060002091020190600090565b90600182811c9216801561307f575b602083101461306957565b634e487b7160e01b600052602260045260246000fd5b91607f169161305e565b906040519182600082549261309d8461304f565b90818452600194858116908160001461310c57506001146130c9575b50506130c792500383612e00565b565b9093915060005260209081600020936000915b8183106130f45750506130c7935082010138806130b9565b855488840185015294850194879450918301916130dc565b9150506130c794506020925060ff191682840152151560051b82010138806130b9565b600b548110156113a957600b60005260206000209060021b0190600090565b600a548110156113a957600a6000526005602060002091020190600090565b6003546001600160a01b0316330361318157565b606460405162461bcd60e51b815260206004820152602060248201527f4f776e61626c653a2063616c6c6572206973206e6f7420746865206f776e65726044820152fd5b6001600160a01b03169081156131f257600052600060205260406000209060005260205260406000205490565b60405162461bcd60e51b815260206004820152602a60248201527f455243313135353a2061646472657373207a65726f206973206e6f742061207660448201526930b634b21037bbb732b960b11b6064820152608490fd5b60001981146110965760010190565b8051156113a95760200190565b80518210156113a95760209160051b010190565b1561328157565b60405162461bcd60e51b815260206004820152602f60248201527f455243313135353a2063616c6c6572206973206e6f7420746f6b656e206f776e60448201526e195c881b9bdc88185c1c1c9bdd9959608a1b6064820152608490fd5b156132e557565b60405162461bcd60e51b815260206004820152602560248201527f455243313135353a207472616e7366657220746f20746865207a65726f206164604482015264647265737360d81b6064820152608490fd5b1561333f57565b60405162461bcd60e51b815260206004820152602a60248201527f455243313135353a20696e73756666696369656e742062616c616e636520666f60448201526939103a3930b739b332b960b11b6064820152608490fd5b9190820180921161109657565b908160209103126102aa57516001600160e01b0319811681036102aa5790565b60809060208152602860208201527f455243313135353a204552433131353552656365697665722072656a656374656040820152676420746f6b656e7360c01b60608201520190565b60009060033d1161341a57565b905060046000803e60005160e01c90565b600060443d1061348857604051600319913d83016004833e81516001600160401b03918282113d60248401111761348b57818401948551938411613493573d8501016020848701011161348b575061348892910160200190612e00565b90565b949350505050565b50949350505050565b60809060208152603460208201527f455243313135353a207472616e7366657220746f206e6f6e20455243313135356040820152732932b1b2b4bb32b91034b6b83632b6b2b73a32b960611b60608201520190565b604051906134fe82612d94565b600182526020368184013761351282613259565b5290565b6001600160a01b031660009081526007602052604090205461353757600090565b600190565b9060405161354981612dca565b608060ff6004839560018060a01b03815416855261356960018201613089565b602086015260028101546040860152600381015460608601520154161515910152565b608060405161359a81612dca565b60009181838093526060602082015282604082015282606082015201526135c082613516565b156135ef576001600160a01b03909116815260076020526040902054613488906135e99061314e565b5061353c565b60405162461bcd60e51b8152602060048201526015602482015274506c6179657220646f65736e27742065786973742160581b6044820152606490fd5b6001600160a01b031660009081526008602052604090205461353757600090565b6040519061365a82612de5565b60006060838181528260208201528260408201520152565b9060405161367f81612de5565b60606003829461368e81613089565b845260018101546020850152600281015460408501520154910152565b6136b361364d565b506136bd8161362c565b156136e95760018060a01b031660005260086020526134886136e360406000205461312f565b50613672565b60405162461bcd60e51b815260206004820152601960248201527847616d6520746f6b656e20646f65736e27742065786973742160381b6044820152606490fd5b6020613743918160405193828580945193849201612d18565b81016009815203019020541560001461353757600090565b604090600060a0835161376d81612daf565b8094838252836020830152606081830152805161378981612d94565b81368237606083015280519061379e82612d94565b36823760808201520152565b906040516137b781612daf565b809260ff81541660038110156114fe57825260018082015490602091828501526002906137e5828501613089565b60408601526040519182600386016000915b83831061384e575050505050908161381160a09493612d94565b60608501526040519060ff6005840154818116845260081c169082015261383781612d94565b6080840152600601546000196001831b0116910152565b81546001600160a01b03168152918401919084019086016137f7565b61387261375b565b5061387c8161372a565b156138a6576138a0610c396020613488938160405193828580945193849201612d18565b506137aa565b60405162461bcd60e51b8152602060048201526015602482015274426174746c6520646f65736e27742065786973742160581b6044820152606490fd5b8181106138ee575050565b600081556001016138e3565b1561390157565b60405162461bcd60e51b815260206004820152601c60248201527f506c6561736520526567697374657220506c61796572204669727374000000006044820152606490fd5b60806139513361358c565b0151613de45761396361270733613516565b61396b61364d565b50613974613e2e565b80600a0390600a821161109657604090815193602090600660ff6064848901896139b8334284909160349282526001600160601b03199060601b1660208201520190565b03996139cc601f199b8c8101835282612e00565b51902006160660ff8116908115613dd0575b60ff91508551926139ee84612de5565b83521695828201918783528581019185835260608201888152600b5493600160401b851015611bc257600195868601600b55613a298661312f565b959095611bd85751938451906001600160401b038211611bc257613a4d875461304f565b601f8111613da0575b508990601f8311600114613d3d57508190600396600092613d32575b505060001982871b1c191690881b1785555b518685015551600284015551910155336000526008835284600020558351613aab81612d94565b600381526203078360ec1b838201523315613ce457613ac9876134f1565b82865191613ad683612d94565b81835285368185013781613ae984613259565b526000825b613ca0575b5050505086600052600083528460002033600052835284600020805490838201809211611096575584518781528284820152600033917fc3d58168c5ae7397731d063d5bbf3d657854427343f4c083240f7aacaa2d0f62883392a4333b613b98575b5050613b6260065461324a565b60065582519485528401528201527fca8ab07e9ed17d119729fc652dd24df9d8430ca862dda4631925b5b4b99da36260603392a2565b8451838180613bd663f23a6e6160e01b95868352336004840152600060248401528c604484015287606484015260a0608484015260a4830190612d3b565b03816000335af160009181613c81575b50613c58575050613bf561340d565b6308c379a014613c24575b613c0c575b3880613b55565b825162461bcd60e51b8152806105676004820161349c565b613c2c61342b565b80613c375750613c00565b82610567865192839262461bcd60e51b845260048401526024830190612d3b565b6001600160e01b031916149050613c0557825162461bcd60e51b815280610567600482016133c4565b613c99919250853d87116105f2576105e38183612e00565b9038613be6565b8151811015613cdf5780613cb7613cd99286613266565b51613cc28285613266565b51600052600489526106ff8b600020918254613397565b82613aee565b613af3565b845162461bcd60e51b815260048101849052602160248201527f455243313135353a206d696e7420746f20746865207a65726f206164647265736044820152607360f81b6064820152608490fd5b015190503880613a72565b9082918a931690886000528b6000209160005b8d828210613d8a575050978360039910613d72575b505050811b018555613a84565b015160001983891b60f8161c19169055388080613d65565b838b015185558d96909401939283019201613d50565b613dca90886000528b600020601f850160051c8101918d8610611bb857601f0160051c01906138e3565b38613a56565b5060ff811461109657600160ff91016139de565b60405162461bcd60e51b8152602060048201526015602482015274506c6179657220697320696e206120626174746c6560581b6044820152606490fd5b9190820391821161109657565b600a6040516020810190613e6081612735334286909160349282526001600160601b03199060601b1660208201520190565b519020068015613e6d5790565b50600590565b929190611bd8578051926003808510156114fe5760ff1982541660ff80961617825560209081840151906001918285015560029081850160408701518051906001600160401b038211611bc2578190613ecc845461304f565b601f8111614013575b508790601f8311600114613fb157600092613fa6575b505060001982851b1c191690851b1790555b606086015160005b838110613f8a5750505090608085015191600093845b828110613f5a575050505050600582015560a09091015160069190910180546001600160a01b0319166001600160a01b03929092169190911790559050565b90919282613f7e8697848d85995116919060031b60ff811b9283911b169119161790565b96019493929101613f1b565b81516001600160a01b0316878201840155908501908401613f05565b015190503880613eeb565b90879350601f1983169185600052896000209260005b8b828210613ffd5750508411613fe5575b505050811b019055613efd565b015160001983871b60f8161c19169055388080613fd8565b8385015186558b97909501949384019301613fc7565b61403d908560005289600020601f850160051c8101918b8610611bb857601f0160051c01906138e3565b38613ed5565b9061404d8261372a565b15614071576127e6610c3960206130c7948160405193828580945193849201612d18565b60405162461bcd60e51b815260206004820152601460248201527310985d1d1b1948191bd95cdb89dd08195e1a5cdd60621b6044820152606490fd5b6000929181546140bc8161304f565b9260019180831690811561411557506001146140d9575b50505050565b90919293945060005260209081600020906000915b85831061410457505050500190388080806140d3565b8054858401529183019181016140ee565b60ff19168452505050811515909102019150388080806140d3565b61413861375b565b50815160038110156114fe5760021461423757600282527fef50ed5920f81c37468aa9114164197f642d73e9ddb502023574253301e6e04661423160018060a01b03809316928360a0860152600a6002614219604088019361419b898651614043565b606089019080825151166000526007602052602060406000205492510151166000526040600020549084846141f660046141d48561314e565b50019360ff1994858154169055601960036141ee8361314e565b50015561314e565b50015560046142048361314e565b5001908154169055601960036141ee8361314e565b50015551604051918291602083526020830190612d3b565b0390a290565b60405162461bcd60e51b815260206004820152601460248201527310985d1d1b1948185b1c9958591e48195b99195960621b6044820152606490fd5b80156143335780816000925b61431f57508061428e83612e21565b9261429c6040519485612e00565b808452601f196142ab82612e21565b01366020860137915b6142bd57505090565b81600019918284019384116110965783600a808304809504811185151516611096576142ef60ff938492870290613e21565b1660300191821161109657855111156113a95760f81b6001600160f81b03191660001a908401601f0153806142b4565b9161432b600a9161324a565b92048061427f565b5060405161434081612d94565b60018152600360fc1b60208201529056fea2646970667358221220848397af770a509cfbcf347fe3c6e835916967f369643bbe6dea4df2da8e877564736f6c63430008100033405787fa12a823e0f2b7631cc41b3ba8828b3321ca811111fa75cd3aa3bb5ace",
  "linkReferences": {},
  "deployedLinkReferences": {}
}