{
  "_format": "hh-sol-artifact-1",
  "contractName": "AVAXGods",
  "sourceName": "contracts/AVAXGods.sol",
  "abi": [
    {
      "inputs": [
        {
          "internalType": "string",
          "name": "_metadataURI",
          "type": "string"
        }
      ],
      "stateMutability": "nonpayable",
      "type": "constructor"
    },
    {
      "anonymous": false,
      "inputs": [
        {
          "indexed": true,
          "internalType": "address",
          "name": "account",
          "type": "address"
        },
        {
          "indexed": true,
          "internalType": "address",
          "name": "operator",
          "type": "address"
        },
        {
          "indexed": false,
          "internalType": "bool",
          "name": "approved",
          "type": "bool"
        }
      ],
      "name": "ApprovalForAll",
      "type": "event"
    },
    {
      "anonymous": false,
      "inputs": [
        {
          "indexed": false,
          "internalType": "string",
          "name": "battleName",
          "type": "string"
        },
        {
          "indexed": true,
          "internalType": "address",
          "name": "winner",
          "type": "address"
        }
      ],
      "name": "BattleEnded",
      "type": "event"
    },
    {
      "anonymous": false,
      "inputs": [
        {
          "indexed": true,
          "internalType": "string",
          "name": "battleName",
          "type": "string"
        },
        {
          "indexed": true,
          "internalType": "bool",
          "name": "isFirstMove",
          "type": "bool"
        }
      ],
      "name": "BattleMove",
      "type": "event"
    },
    {
      "anonymous": false,
      "inputs": [
        {
          "indexed": false,
          "internalType": "bytes32",
          "name": "battleHash",
          "type": "bytes32"
        },
        {
          "indexed": true,
          "internalType": "address",
          "name": "player1",
          "type": "address"
        },
        {
          "indexed": true,
          "internalType": "address",
          "name": "player2",
          "type": "address"
        }
      ],
      "name": "BattleStarted",
      "type": "event"
    },
    {
      "anonymous": false,
      "inputs": [
        {
          "indexed": false,
          "internalType": "bytes32",
          "name": "battleHash",
          "type": "bytes32"
        },
        {
          "indexed": true,
          "internalType": "address",
          "name": "player1",
          "type": "address"
        },
        {
          "indexed": true,
          "internalType": "address",
          "name": "player2",
          "type": "address"
        }
      ],
      "name": "NewBattle",
      "type": "event"
    },
    {
      "anonymous": false,
      "inputs": [
        {
          "indexed": true,
          "internalType": "address",
          "name": "owner",
          "type": "address"
        },
        {
          "indexed": false,
          "internalType": "uint256",
          "name": "id",
          "type": "uint256"
        },
        {
          "indexed": false,
          "internalType": "uint256",
          "name": "attackStrength",
          "type": "uint256"
        },
        {
          "indexed": false,
          "internalType": "uint256",
          "name": "defenseStrength",
          "type": "uint256"
        }
      ],
      "name": "NewGameToken",
      "type": "event"
    },
    {
      "anonymous": false,
      "inputs": [
        {
          "indexed": true,
          "internalType": "address",
          "name": "owner",
          "type": "address"
        },
        {
          "indexed": false,
          "internalType": "string",
          "name": "name",
          "type": "string"
        }
      ],
      "name": "NewPlayer",
      "type": "event"
    },
    {
      "anonymous": false,
      "inputs": [
        {
          "indexed": true,
          "internalType": "address",
          "name": "previousOwner",
          "type": "address"
        },
        {
          "indexed": true,
          "internalType": "address",
          "name": "newOwner",
          "type": "address"
        }
      ],
      "name": "OwnershipTransferred",
      "type": "event"
    },
    {
      "anonymous": false,
      "inputs": [
        {
          "indexed": false,
          "internalType": "string",
          "name": "battleName",
          "type": "string"
        },
        {
          "indexed": true,
          "internalType": "string",
          "name": "player1",
          "type": "string"
        },
        {
          "indexed": true,
          "internalType": "string",
          "name": "player2",
          "type": "string"
        },
        {
          "indexed": false,
          "internalType": "uint256",
          "name": "player1Mana",
          "type": "uint256"
        },
        {
          "indexed": false,
          "internalType": "uint256",
          "name": "player2Mana",
          "type": "uint256"
        },
        {
          "indexed": false,
          "internalType": "uint256",
          "name": "player1Health",
          "type": "uint256"
        },
        {
          "indexed": false,
          "internalType": "uint256",
          "name": "player2Health",
          "type": "uint256"
        }
      ],
      "name": "RoundEnded",
      "type": "event"
    },
    {
      "anonymous": false,
      "inputs": [
        {
          "indexed": true,
          "internalType": "address",
          "name": "operator",
          "type": "address"
        },
        {
          "indexed": true,
          "internalType": "address",
          "name": "from",
          "type": "address"
        },
        {
          "indexed": true,
          "internalType": "address",
          "name": "to",
          "type": "address"
        },
        {
          "indexed": false,
          "internalType": "uint256[]",
          "name": "ids",
          "type": "uint256[]"
        },
        {
          "indexed": false,
          "internalType": "uint256[]",
          "name": "values",
          "type": "uint256[]"
        }
      ],
      "name": "TransferBatch",
      "type": "event"
    },
    {
      "anonymous": false,
      "inputs": [
        {
          "indexed": true,
          "internalType": "address",
          "name": "operator",
          "type": "address"
        },
        {
          "indexed": true,
          "internalType": "address",
          "name": "from",
          "type": "address"
        },
        {
          "indexed": true,
          "internalType": "address",
          "name": "to",
          "type": "address"
        },
        {
          "indexed": false,
          "internalType": "uint256",
          "name": "id",
          "type": "uint256"
        },
        {
          "indexed": false,
          "internalType": "uint256",
          "name": "value",
          "type": "uint256"
        }
      ],
      "name": "TransferSingle",
      "type": "event"
    },
    {
      "anonymous": false,
      "inputs": [
        {
          "indexed": false,
          "internalType": "string",
          "name": "value",
          "type": "string"
        },
        {
          "indexed": true,
          "internalType": "uint256",
          "name": "id",
          "type": "uint256"
        }
      ],
      "name": "URI",
      "type": "event"
    },
    {
      "inputs": [],
      "name": "CELESTION",
      "outputs": [
        {
          "internalType": "uint256",
          "name": "",
          "type": "uint256"
        }
      ],
      "stateMutability": "view",
      "type": "function"
    },
    {
      "inputs": [],
      "name": "DEVIL",
      "outputs": [
        {
          "internalType": "uint256",
          "name": "",
          "type": "uint256"
        }
      ],
      "stateMutability": "view",
      "type": "function"
    },
    {
      "inputs": [],
      "name": "FIREBIRD",
      "outputs": [
        {
          "internalType": "uint256",
          "name": "",
          "type": "uint256"
        }
      ],
      "stateMutability": "view",
      "type": "function"
    },
    {
      "inputs": [],
      "name": "GRIFFIN",
      "outputs": [
        {
          "internalType": "uint256",
          "name": "",
          "type": "uint256"
        }
      ],
      "stateMutability": "view",
      "type": "function"
    },
    {
      "inputs": [],
      "name": "KAMO",
      "outputs": [
        {
          "internalType": "uint256",
          "name": "",
          "type": "uint256"
        }
      ],
      "stateMutability": "view",
      "type": "function"
    },
    {
      "inputs": [],
      "name": "KUKULKAN",
      "outputs": [
        {
          "internalType": "uint256",
          "name": "",
          "type": "uint256"
        }
      ],
      "stateMutability": "view",
      "type": "function"
    },
    {
      "inputs": [],
      "name": "MAX_ATTACK_DEFEND_STRENGTH",
      "outputs": [
        {
          "internalType": "uint256",
          "name": "",
          "type": "uint256"
        }
      ],
      "stateMutability": "view",
      "type": "function"
    },
    {
      "inputs": [
        {
          "internalType": "uint8",
          "name": "_choice",
          "type": "uint8"
        },
        {
          "internalType": "string",
          "name": "_battleName",
          "type": "string"
        }
      ],
      "name": "attackOrDefendChoice",
      "outputs": [],
      "stateMutability": "nonpayable",
      "type": "function"
    },
    {
      "inputs": [
        {
          "internalType": "address",
          "name": "account",
          "type": "address"
        },
        {
          "internalType": "uint256",
          "name": "id",
          "type": "uint256"
        }
      ],
      "name": "balanceOf",
      "outputs": [
        {
          "internalType": "uint256",
          "name": "",
          "type": "uint256"
        }
      ],
      "stateMutability": "view",
      "type": "function"
    },
    {
      "inputs": [
        {
          "internalType": "address[]",
          "name": "accounts",
          "type": "address[]"
        },
        {
          "internalType": "uint256[]",
          "name": "ids",
          "type": "uint256[]"
        }
      ],
      "name": "balanceOfBatch",
      "outputs": [
        {
          "internalType": "uint256[]",
          "name": "",
          "type": "uint256[]"
        }
      ],
      "stateMutability": "view",
      "type": "function"
    },
    {
      "inputs": [],
      "name": "baseURI",
      "outputs": [
        {
          "internalType": "string",
          "name": "",
          "type": "string"
        }
      ],
      "stateMutability": "view",
      "type": "function"
    },
    {
      "inputs": [
        {
          "internalType": "string",
          "name": "",
          "type": "string"
        }
      ],
      "name": "battleInfo",
      "outputs": [
        {
          "internalType": "uint256",
          "name": "",
          "type": "uint256"
        }
      ],
      "stateMutability": "view",
      "type": "function"
    },
    {
      "inputs": [
        {
          "internalType": "uint256",
          "name": "",
          "type": "uint256"
        }
      ],
      "name": "battles",
      "outputs": [
        {
          "internalType": "enum AVAXGods.BattleStatus",
          "name": "battleStatus",
          "type": "uint8"
        },
        {
          "internalType": "bytes32",
          "name": "battleHash",
          "type": "bytes32"
        },
        {
          "internalType": "string",
          "name": "name",
          "type": "string"
        },
        {
          "internalType": "address",
          "name": "winner",
          "type": "address"
        }
      ],
      "stateMutability": "view",
      "type": "function"
    },
    {
      "inputs": [
        {
          "internalType": "string",
          "name": "_name",
          "type": "string"
        }
      ],
      "name": "createBattle",
      "outputs": [
        {
          "components": [
            {
              "internalType": "enum AVAXGods.BattleStatus",
              "name": "battleStatus",
              "type": "uint8"
            },
            {
              "internalType": "bytes32",
              "name": "battleHash",
              "type": "bytes32"
            },
            {
              "internalType": "string",
              "name": "name",
              "type": "string"
            },
            {
              "internalType": "address[2]",
              "name": "players",
              "type": "address[2]"
            },
            {
              "internalType": "uint8[2]",
              "name": "moves",
              "type": "uint8[2]"
            },
            {
              "internalType": "address",
              "name": "winner",
              "type": "address"
            }
          ],
          "internalType": "struct AVAXGods.Battle",
          "name": "",
          "type": "tuple"
        }
      ],
      "stateMutability": "nonpayable",
      "type": "function"
    },
    {
      "inputs": [
        {
          "internalType": "string",
          "name": "_name",
          "type": "string"
        }
      ],
      "name": "createRandomGameToken",
      "outputs": [],
      "stateMutability": "nonpayable",
      "type": "function"
    },
    {
      "inputs": [],
      "name": "drinkPotion",
      "outputs": [],
      "stateMutability": "nonpayable",
      "type": "function"
    },
    {
      "inputs": [
        {
          "internalType": "uint256",
          "name": "id",
          "type": "uint256"
        }
      ],
      "name": "exists",
      "outputs": [
        {
          "internalType": "bool",
          "name": "",
          "type": "bool"
        }
      ],
      "stateMutability": "view",
      "type": "function"
    },
    {
      "inputs": [
        {
          "internalType": "uint256",
          "name": "",
          "type": "uint256"
        }
      ],
      "name": "gameTokens",
      "outputs": [
        {
          "internalType": "string",
          "name": "name",
          "type": "string"
        },
        {
          "internalType": "uint256",
          "name": "id",
          "type": "uint256"
        },
        {
          "internalType": "uint256",
          "name": "attackStrength",
          "type": "uint256"
        },
        {
          "internalType": "uint256",
          "name": "defenseStrength",
          "type": "uint256"
        }
      ],
      "stateMutability": "view",
      "type": "function"
    },
    {
      "inputs": [],
      "name": "getAllBattles",
      "outputs": [
        {
          "components": [
            {
              "internalType": "enum AVAXGods.BattleStatus",
              "name": "battleStatus",
              "type": "uint8"
            },
            {
              "internalType": "bytes32",
              "name": "battleHash",
              "type": "bytes32"
            },
            {
              "internalType": "string",
              "name": "name",
              "type": "string"
            },
            {
              "internalType": "address[2]",
              "name": "players",
              "type": "address[2]"
            },
            {
              "internalType": "uint8[2]",
              "name": "moves",
              "type": "uint8[2]"
            },
            {
              "internalType": "address",
              "name": "winner",
              "type": "address"
            }
          ],
          "internalType": "struct AVAXGods.Battle[]",
          "name": "",
          "type": "tuple[]"
        }
      ],
      "stateMutability": "view",
      "type": "function"
    },
    {
      "inputs": [],
      "name": "getAllPlayerTokens",
      "outputs": [
        {
          "components": [
            {
              "internalType": "string",
              "name": "name",
              "type": "string"
            },
            {
              "internalType": "uint256",
              "name": "id",
              "type": "uint256"
            },
            {
              "internalType": "uint256",
              "name": "attackStrength",
              "type": "uint256"
            },
            {
              "internalType": "uint256",
              "name": "defenseStrength",
              "type": "uint256"
            }
          ],
          "internalType": "struct AVAXGods.GameToken[]",
          "name": "",
          "type": "tuple[]"
        }
      ],
      "stateMutability": "view",
      "type": "function"
    },
    {
      "inputs": [],
      "name": "getAllPlayers",
      "outputs": [
        {
          "components": [
            {
              "internalType": "address",
              "name": "playerAddress",
              "type": "address"
            },
            {
              "internalType": "string",
              "name": "playerName",
              "type": "string"
            },
            {
              "internalType": "uint256",
              "name": "playerMana",
              "type": "uint256"
            },
            {
              "internalType": "uint256",
              "name": "playerHealth",
              "type": "uint256"
            },
            {
              "internalType": "bool",
              "name": "inBattle",
              "type": "bool"
            }
          ],
          "internalType": "struct AVAXGods.Player[]",
          "name": "",
          "type": "tuple[]"
        }
      ],
      "stateMutability": "view",
      "type": "function"
    },
    {
      "inputs": [
        {
          "internalType": "string",
          "name": "_name",
          "type": "string"
        }
      ],
      "name": "getBattle",
      "outputs": [
        {
          "components": [
            {
              "internalType": "enum AVAXGods.BattleStatus",
              "name": "battleStatus",
              "type": "uint8"
            },
            {
              "internalType": "bytes32",
              "name": "battleHash",
              "type": "bytes32"
            },
            {
              "internalType": "string",
              "name": "name",
              "type": "string"
            },
            {
              "internalType": "address[2]",
              "name": "players",
              "type": "address[2]"
            },
            {
              "internalType": "uint8[2]",
              "name": "moves",
              "type": "uint8[2]"
            },
            {
              "internalType": "address",
              "name": "winner",
              "type": "address"
            }
          ],
          "internalType": "struct AVAXGods.Battle",
          "name": "",
          "type": "tuple"
        }
      ],
      "stateMutability": "view",
      "type": "function"
    },
    {
      "inputs": [
        {
          "internalType": "string",
          "name": "_battleName",
          "type": "string"
        }
      ],
      "name": "getBattleMoves",
      "outputs": [
        {
          "internalType": "uint256",
          "name": "P1Move",
          "type": "uint256"
        },
        {
          "internalType": "uint256",
          "name": "P2Move",
          "type": "uint256"
        }
      ],
      "stateMutability": "view",
      "type": "function"
    },
    {
      "inputs": [
        {
          "internalType": "address",
          "name": "addr",
          "type": "address"
        }
      ],
      "name": "getPlayer",
      "outputs": [
        {
          "components": [
            {
              "internalType": "address",
              "name": "playerAddress",
              "type": "address"
            },
            {
              "internalType": "string",
              "name": "playerName",
              "type": "string"
            },
            {
              "internalType": "uint256",
              "name": "playerMana",
              "type": "uint256"
            },
            {
              "internalType": "uint256",
              "name": "playerHealth",
              "type": "uint256"
            },
            {
              "internalType": "bool",
              "name": "inBattle",
              "type": "bool"
            }
          ],
          "internalType": "struct AVAXGods.Player",
          "name": "",
          "type": "tuple"
        }
      ],
      "stateMutability": "view",
      "type": "function"
    },
    {
      "inputs": [
        {
          "internalType": "address",
          "name": "addr",
          "type": "address"
        }
      ],
      "name": "getPlayerToken",
      "outputs": [
        {
          "components": [
            {
              "internalType": "string",
              "name": "name",
              "type": "string"
            },
            {
              "internalType": "uint256",
              "name": "id",
              "type": "uint256"
            },
            {
              "internalType": "uint256",
              "name": "attackStrength",
              "type": "uint256"
            },
            {
              "internalType": "uint256",
              "name": "defenseStrength",
              "type": "uint256"
            }
          ],
          "internalType": "struct AVAXGods.GameToken",
          "name": "",
          "type": "tuple"
        }
      ],
      "stateMutability": "view",
      "type": "function"
    },
    {
      "inputs": [],
      "name": "getTotalSupply",
      "outputs": [
        {
          "internalType": "uint256",
          "name": "",
          "type": "uint256"
        }
      ],
      "stateMutability": "view",
      "type": "function"
    },
    {
      "inputs": [
        {
          "internalType": "address",
          "name": "account",
          "type": "address"
        },
        {
          "internalType": "address",
          "name": "operator",
          "type": "address"
        }
      ],
      "name": "isApprovedForAll",
      "outputs": [
        {
          "internalType": "bool",
          "name": "",
          "type": "bool"
        }
      ],
      "stateMutability": "view",
      "type": "function"
    },
    {
      "inputs": [
        {
          "internalType": "string",
          "name": "_name",
          "type": "string"
        }
      ],
      "name": "isBattle",
      "outputs": [
        {
          "internalType": "bool",
          "name": "",
          "type": "bool"
        }
      ],
      "stateMutability": "view",
      "type": "function"
    },
    {
      "inputs": [
        {
          "internalType": "address",
          "name": "addr",
          "type": "address"
        }
      ],
      "name": "isPlayer",
      "outputs": [
        {
          "internalType": "bool",
          "name": "",
          "type": "bool"
        }
      ],
      "stateMutability": "view",
      "type": "function"
    },
    {
      "inputs": [
        {
          "internalType": "address",
          "name": "addr",
          "type": "address"
        }
      ],
      "name": "isPlayerToken",
      "outputs": [
        {
          "internalType": "bool",
          "name": "",
          "type": "bool"
        }
      ],
      "stateMutability": "view",
      "type": "function"
    },
    {
      "inputs": [
        {
          "internalType": "string",
          "name": "_name",
          "type": "string"
        }
      ],
      "name": "joinBattle",
      "outputs": [
        {
          "components": [
            {
              "internalType": "enum AVAXGods.BattleStatus",
              "name": "battleStatus",
              "type": "uint8"
            },
            {
              "internalType": "bytes32",
              "name": "battleHash",
              "type": "bytes32"
            },
            {
              "internalType": "string",
              "name": "name",
              "type": "string"
            },
            {
              "internalType": "address[2]",
              "name": "players",
              "type": "address[2]"
            },
            {
              "internalType": "uint8[2]",
              "name": "moves",
              "type": "uint8[2]"
            },
            {
              "internalType": "address",
              "name": "winner",
              "type": "address"
            }
          ],
          "internalType": "struct AVAXGods.Battle",
          "name": "",
          "type": "tuple"
        }
      ],
      "stateMutability": "nonpayable",
      "type": "function"
    },
    {
      "inputs": [],
      "name": "owner",
      "outputs": [
        {
          "internalType": "address",
          "name": "",
          "type": "address"
        }
      ],
      "stateMutability": "view",
      "type": "function"
    },
    {
      "inputs": [
        {
          "internalType": "address",
          "name": "",
          "type": "address"
        }
      ],
      "name": "playerInfo",
      "outputs": [
        {
          "internalType": "uint256",
          "name": "",
          "type": "uint256"
        }
      ],
      "stateMutability": "view",
      "type": "function"
    },
    {
      "inputs": [
        {
          "internalType": "address",
          "name": "",
          "type": "address"
        }
      ],
      "name": "playerTokenInfo",
      "outputs": [
        {
          "internalType": "uint256",
          "name": "",
          "type": "uint256"
        }
      ],
      "stateMutability": "view",
      "type": "function"
    },
    {
      "inputs": [
        {
          "internalType": "uint256",
          "name": "",
          "type": "uint256"
        }
      ],
      "name": "players",
      "outputs": [
        {
          "internalType": "address",
          "name": "playerAddress",
          "type": "address"
        },
        {
          "internalType": "string",
          "name": "playerName",
          "type": "string"
        },
        {
          "internalType": "uint256",
          "name": "playerMana",
          "type": "uint256"
        },
        {
          "internalType": "uint256",
          "name": "playerHealth",
          "type": "uint256"
        },
        {
          "internalType": "bool",
          "name": "inBattle",
          "type": "bool"
        }
      ],
      "stateMutability": "view",
      "type": "function"
    },
    {
      "inputs": [
        {
          "internalType": "string",
          "name": "_battleName",
          "type": "string"
        }
      ],
      "name": "quitBattle",
      "outputs": [],
      "stateMutability": "nonpayable",
      "type": "function"
    },
    {
      "inputs": [
        {
          "internalType": "string",
          "name": "_name",
          "type": "string"
        },
        {
          "internalType": "string",
          "name": "_gameTokenName",
          "type": "string"
        }
      ],
      "name": "registerPlayer",
      "outputs": [],
      "stateMutability": "nonpayable",
      "type": "function"
    },
    {
      "inputs": [],
      "name": "renounceOwnership",
      "outputs": [],
      "stateMutability": "nonpayable",
      "type": "function"
    },
    {
      "inputs": [
        {
          "internalType": "address",
          "name": "from",
          "type": "address"
        },
        {
          "internalType": "address",
          "name": "to",
          "type": "address"
        },
        {
          "internalType": "uint256[]",
          "name": "ids",
          "type": "uint256[]"
        },
        {
          "internalType": "uint256[]",
          "name": "amounts",
          "type": "uint256[]"
        },
        {
          "internalType": "bytes",
          "name": "data",
          "type": "bytes"
        }
      ],
      "name": "safeBatchTransferFrom",
      "outputs": [],
      "stateMutability": "nonpayable",
      "type": "function"
    },
    {
      "inputs": [
        {
          "internalType": "address",
          "name": "from",
          "type": "address"
        },
        {
          "internalType": "address",
          "name": "to",
          "type": "address"
        },
        {
          "internalType": "uint256",
          "name": "id",
          "type": "uint256"
        },
        {
          "internalType": "uint256",
          "name": "amount",
          "type": "uint256"
        },
        {
          "internalType": "bytes",
          "name": "data",
          "type": "bytes"
        }
      ],
      "name": "safeTransferFrom",
      "outputs": [],
      "stateMutability": "nonpayable",
      "type": "function"
    },
    {
      "inputs": [
        {
          "internalType": "address",
          "name": "operator",
          "type": "address"
        },
        {
          "internalType": "bool",
          "name": "approved",
          "type": "bool"
        }
      ],
      "name": "setApprovalForAll",
      "outputs": [],
      "stateMutability": "nonpayable",
      "type": "function"
    },
    {
      "inputs": [
        {
          "internalType": "string",
          "name": "newuri",
          "type": "string"
        }
      ],
      "name": "setURI",
      "outputs": [],
      "stateMutability": "nonpayable",
      "type": "function"
    },
    {
      "inputs": [
        {
          "internalType": "bytes4",
          "name": "interfaceId",
          "type": "bytes4"
        }
      ],
      "name": "supportsInterface",
      "outputs": [
        {
          "internalType": "bool",
          "name": "",
          "type": "bool"
        }
      ],
      "stateMutability": "view",
      "type": "function"
    },
    {
      "inputs": [
        {
          "internalType": "uint256",
          "name": "tokenId",
          "type": "uint256"
        }
      ],
      "name": "tokenURI",
      "outputs": [
        {
          "internalType": "string",
          "name": "",
          "type": "string"
        }
      ],
      "stateMutability": "view",
      "type": "function"
    },
    {
      "inputs": [],
      "name": "totalSupply",
      "outputs": [
        {
          "internalType": "uint256",
          "name": "",
          "type": "uint256"
        }
      ],
      "stateMutability": "view",
      "type": "function"
    },
    {
      "inputs": [
        {
          "internalType": "uint256",
          "name": "id",
          "type": "uint256"
        }
      ],
      "name": "totalSupply",
      "outputs": [
        {
          "internalType": "uint256",
          "name": "",
          "type": "uint256"
        }
      ],
      "stateMutability": "view",
      "type": "function"
    },
    {
      "inputs": [
        {
          "internalType": "address",
          "name": "newOwner",
          "type": "address"
        }
      ],
      "name": "transferOwnership",
      "outputs": [],
      "stateMutability": "nonpayable",
      "type": "function"
    },
    {
      "inputs": [
        {
          "internalType": "uint256",
          "name": "",
          "type": "uint256"
        }
      ],
      "name": "uri",
      "outputs": [
        {
          "internalType": "string",
          "name": "",
          "type": "string"
        }
      ],
      "stateMutability": "view",
      "type": "function"
    }
  ],
  "bytecode": "0x60806040523462000ab457620050af803803806200001d8162000af9565b92833981019060208183031262000ab4578051906001600160401b03821162000ab4570181601f8201121562000ab4578051906001600160401b0382116200073c5762000074601f8301601f191660200162000af9565b928284526020838301011162000ab45760005b82811062000a9e57600083850160200152835184906001600160401b0381116200073c57600254600181811c9116801562000a93575b60208210146200071b57601f811162000a51575b50806020601f8211600114620009d957600091620009cd575b508160011b916000199060031b1c1916176002555b60038054336001600160a01b0319821681179092556040516001600160a01b03909116907f8be0079c531659141344cd1fd0a4f28419497f9722a3daafe3b4186f6b6457e090600090a380516001600160401b0381116200073c57600554600181811c91168015620009c2575b60208210146200071b57601f81116200098b575b50602091601f8211600114620009215791819260009262000915575b50508160011b916000199060031b1c1916176005555b604051608081016001600160401b038111828210176200073c57604052620001d962000ad9565b6000815281526020810190600082526040810160008152606082019060008252600b54680100000000000000008110156200073c576001810180600b558110156200076857600b600052925180519460029490941b7f0175b7a638427703f0dbe7bb9bbf987a2551717b34e79f33b5b1008d1fa01db90193906001600160401b0386116200073c578454600181811c911680156200090a575b60208210146200071b57601f8111620008d4575b50602090601f871160011462000865579580916003969760009262000859575b50508160011b9160001990871b1c19161785555b5160018501555160028401555191015560405160a081016001600160401b038111828210176200073c5760405260008152620002f562000ad9565b600081526020820152600060408201526000606082015260006080820152600a5490680100000000000000008210156200073c576001820180600a558210156200076857600a6000528051600583027fc65a7bb8d6351c1cf70c95a316cc6a92839c986682d98bc35f958f4883f9d2a890810180546001600160a01b0319166001600160a01b039390931692909217909155602082015180519093906001600160401b0381116200073c5760016005830284010154600181811c911680156200084e575b60208210146200071b57601f811162000810575b506020601f82116001146200078a57918160059260049594608097986000926200077e575b50508160011b916000199060031b1c1916176001838302850101555b60408601516002838302850101556060860151600383830285010155020101910151151560ff801983541691161790556200044862000ab9565b60008152600060208201526200045d62000ab9565b60008082526020820152604051916001600160401b0360c08401908111908411176200073c5760c0830160405260008352600060208401526200049f62000ad9565b60008152604084015260608301526080820152600060a0820152600c5490680100000000000000008210156200073c576001820180600c558210156200076857600c60005280517fdf6966c971051c3d54ec59162606531493a51404a002842f56009d7e5cf4a8c79060038110156200075257600784028201805460ff191660ff929092169190911781556020830151600182015560408301518051600290920191906001600160401b0382116200073c57825490600182811c9216801562000731575b60208310146200071b5781601f849311620006d9575b50602090601f83116001146200066e5760009262000662575b50508160011b916000199060031b1c19161790555b606082015160005b600281106200063c575050608082015192600093845b6002811062000614576007830284016005810187905560a086015160069190910180546001600160a01b0319166001600160a01b0392909216919091179055604051614556908162000b398239f35b9094602060019160ff885116908460031b60ff811b9283911b169119161796019101620005c5565b81516001600160a01b0316600360078702850183010155602090910190600101620005af565b01519050868062000592565b6000858152602081209350601f198516905b818110620006c05750908460019594939210620006a6575b505050811b019055620005a7565b015160001960f88460031b161c1916905586808062000698565b9293602060018192878601518155019501930162000680565b6200070990856000526020600020601f850160051c8101916020861062000710575b601f0160051c019062000b1f565b8762000579565b9091508190620006fb565b634e487b7160e01b600052602260045260246000fd5b91607f169162000563565b634e487b7160e01b600052604160045260246000fd5b634e487b7160e01b600052602160045260246000fd5b634e487b7160e01b600052603260045260246000fd5b015190508880620003f2565b60016005840285010160005260206000209560005b601f1984168110620007f7575082608096976004969593600193600596601f19811610620007dd575b505050811b016001838302850101556200040e565b015160001960f88460031b161c19169055888080620007c8565b828201518855600190970196602092830192016200079f565b62000847906001600585028601016000526020600020601f840160051c810191602085106200071057601f0160051c019062000b1f565b85620003cd565b90607f1690620003b9565b015190508780620002a6565b90601f198716918660005260206000209260005b818110620008bb57509160019391896003999a9410620008a2575b505050811b018555620002ba565b015160001983891b60f8161c1916905587808062000894565b9293602060018192878601518155019501930162000879565b6200090390866000526020600020601f890160051c81019160208a106200071057601f0160051c019062000b1f565b8662000286565b90607f169062000272565b0151905082806200019c565b601f19821692600560005260206000209160005b858110620009725750836001951062000958575b505050811b01600555620001b2565b015160001960f88460031b161c1916905582808062000949565b9192602060018192868501518155019401920162000935565b620009bb9060056000526020600020601f840160051c810191602085106200071057601f0160051c019062000b1f565b8262000180565b90607f16906200016c565b905082015183620000ea565b600260009081526000805160206200508f8339815191529250601f198416905b81811062000a385750908360019493921062000a1e575b5050811b01600255620000ff565b84015160001960f88460031b161c19169055838062000a10565b91926020600181928689015181550194019201620009f9565b600260005262000a8c906000805160206200508f833981519152601f840160051c810191602085106200071057601f0160051c019062000b1f565b82620000d1565b90607f1690620000bd565b8060208092840101518282870101520162000087565b600080fd5b60408051919082016001600160401b038111838210176200073c57604052565b60405190602082016001600160401b038111838210176200073c57604052565b6040519190601f01601f191682016001600160401b038111838210176200073c57604052565b81811062000b2b575050565b6000815560010162000b1f56fe6080604052600436101561001257600080fd5b60003560e01c8062fdd58e14612e8c578063015a379214612da357806301ffc9a714612d3557806302fe530514612c0e5780630677aa4e14612bf257806309c95e1014612bcf5780630daea2cd14612bb35780630e89341c14612b0257806310898e4c14612aca5780631107ae3d14612a9057806316801d1714612a4657806318160ddd146109ee5780632711162e14612a0c5780632ca045221461288f5780632eb2c2d61461244e5780633835e2b5146123f25780634b114691146123b85780634e1273f41461221a5780634f558e79146121ec5780635c12cd4b146121b45780635c93fc3d146120cb578063606d2e96146120445780636c0360eb14611f62578063703730a514611f46578063715018a614611ee4578063811e0acc14611de8578063845f433b14611af75780638da5cb5b14611ace578063996d7bea146119fb5780639b09cc87146119a55780639e4ecd11146119895780639ec40aa314611951578063a1b4f57c14611746578063a22cb46514611659578063ba27495614610af4578063bd85b03914610ac8578063bf034b6914610a39578063bf103a4d14610a0c578063c4e41b22146109ee578063c87b56dd146108e2578063d2198cc5146108c6578063de96cefc146108aa578063e985e9c514610854578063efa1c4821461076b578063f1da73391461074f578063f242432a14610386578063f2fde38b146102ba5763f71d96cb1461022b57600080fd5b346102b55760203660031901126102b557600435600a548110156102b557600a6000526005602060002091020160018060a01b0381541661026e6001830161326e565b9160028101549060ff60046003830154920154169061029f604051958695865260a0602087015260a0860190612f0a565b9260408501526060840152151560808301520390f35b600080fd5b346102b55760203660031901126102b5576102d3612ebb565b6102db613352565b6001600160a01b0390811690811561033257600380546001600160a01b03198116841790915560405160009390929091167f8be0079c531659141344cd1fd0a4f28419497f9722a3daafe3b4186f6b6457e08484a3f35b60405162461bcd60e51b815260206004820152602660248201527f4f776e61626c653a206e6577206f776e657220697320746865207a65726f206160448201526564647265737360d01b6064820152608490fd5b346102b55760a03660031901126102b55761039f612ebb565b6103a7612ed1565b90608480356001600160401b0381116102b5576103c890369060040161300b565b6001600160a01b03919083831633148015610724575b6103e79061345f565b828516156103f581156134c3565b6104006044356136d6565b61040b6064356136d6565b91858716156106c4575b610604575b5050604435600052602094600086526040600020848616600052865260406000205461044a60643582101561351d565b6044356000526000875260406000208587166000528752606435900360406000205560443560005260008652604060002084821660005286526040600020610495606435825461357c565b905560405160443581526064358782015284821690858716907fc3d58168c5ae7397731d063d5bbf3d657854427343f4c083240f7aacaa2d0f6260403392a4803b6104dd575b005b60a06000610527958895604051978896879586938563f23a6e6160e01b9d8e87523360048801521660248601526044356044860152606435606486015284015260a4830190612f0a565b0393165af1600091816105d5575b506105ab5750506001906105476135f2565b6308c379a014610576575b5061055957005b60405162461bcd60e51b81528061057260048201613681565b0390fd5b61057e613610565b908161058a5750610552565b61057260405192839262461bcd60e51b845260048401526024830190612f0a565b6001600160e01b0319161490506104db5760405162461bcd60e51b815280610572600482016135a9565b6105f6919250843d86116105fd575b6105ee8183612fcf565b810190613589565b9084610535565b503d6105e4565b92959194909360005b84518110156106b557610620818661344b565b519061062c818861344b565b518260005260046020526040600020548181106106605761065b9360005260046020520360406000205561342f565b61060d565b60405162461bcd60e51b815260206004820152602860248201527f455243313135353a206275726e20616d6f756e74206578636565647320746f74604482015267616c537570706c7960c01b60648201528b90fd5b5093509390949150858061041a565b959260009794919592975b865181101561071657806106e6610711928b61344b565b516106f1828a61344b565b51600052600460205261070a604060002091825461357c565b905561342f565b6106cf565b509295969194909396610415565b5082841660005260016020526040600020336000526020526103e760ff6040600020541690506103de565b346102b55760003660031901126102b557602060405160048152f35b346102b55760003660031901126102b557600a546107888161310e565b906107966040519283612fcf565b808252600a6000908152602091828401917fc65a7bb8d6351c1cf70c95a316cc6a92839c986682d98bc35f958f4883f9d2a8835b8383106108315750505050604051918083019381845251809452604083019360408160051b85010192916000955b8287106108055785850386f35b909192938280610821600193603f198a820301865288516131b7565b96019201960195929190926107f8565b600586600192610843859a999a613721565b8152019201920191909594956107ca565b346102b55760403660031901126102b55761086d612ebb565b610875612ed1565b9060018060a01b03809116600052600160205260406000209116600052602052602060ff604060002054166040519015158152f35b346102b55760003660031901126102b557602060405160018152f35b346102b55760003660031901126102b557602060405160008152f35b346102b5576020806003193601126102b5576108ff600435614442565b9060405191826000916005549261091584613234565b6001948686821691826000146109c9575050600114610987575b509264173539b7b760d91b6006939285602f60f81b61096f975261095b825180938a8785019101612ee7565b019182015203601919810185520183612fcf565b610983604051928284938452830190612f0a565b0390f35b8591506005600052816000206000905b8282106109b157505083010164173539b7b760d91b61092f565b80548983018501528895508793909101908601610997565b60ff1916818701528215159092028501909101915064173539b7b760d91b905061092f565b346102b55760003660031901126102b5576020600654604051908152f35b346102b55760203660031901126102b5576020610a2f610a2a612ebb565b613811565b6040519015158152f35b346102b55760203660031901126102b557600435600b548110156102b557600b600052610ab49060021b7f0175b7a638427703f0dbe7bb9bbf987a2551717b34e79f33b5b1008d1fa01db901610a8e8161326e565b906001810154906003600282015491015490604051948594608086526080860190612f0a565b926020850152604084015260608301520390f35b346102b55760203660031901126102b55760043560005260046020526020604060002054604051908152f35b346102b55760403660031901126102b55760043560ff81168091036102b55760249081356001600160401b0381116102b557610b3490369060040161300b565b90610b3e82613a4f565b805160038110156115d0576001036115e557805160038110156115d057600214611591576060810190815160018060a01b03815116331490811561157a575b501561153657608001518151516001600160a01b0316330361152e576000905b600260ff8316101561142a57611fe060ff9260051b160151166114ea5751516001600160a01b031633036114e35760005b600182148080156114d9575b15611495571561148e5760036040610bf133613771565b015110155b1561143f5760405191610c2784519360208181880196610c1781838a612ee7565b81016009815203019020546131ff565b5090600260ff8416101561142a57601f6005610c5d93600786831c160101931683549060031b60ff811b9283911b169119161790565b90556080610c6a83613a4f565b0180515160ff166114215760ff60005b166002039060ff821161140c57516020015160ff166114025760ff8060005b1691160360ff81116113ed5760ff1690600182036113e257610cc96001915b604051809281928751928391612ee7565b8101039020901515907f54b82b77e7ae55a8e6c9e89deba70c7191dea2a3b08ae647b380e9f981d6a0f86000604051a315610d0057005b610d0990613a4f565b606081015180516001600160a01b031633149081156113cb575b501561137357608081015160ff81511615159081611362575b50156113145760018060a01b036060820151511660005260076020526040600020549060ff608082015151166060610d7f60018060a01b03828501515116613771565b0151606083015151604090610d9c906001600160a01b0316613890565b015160608481015151919291610dba906001600160a01b0316613890565b01519260405195610dca87612f99565b8652602086015260408501526060840152608083015260018060a01b036020606083015101511660005260076020526040600020549160ff602060808401510151166060610e2660018060a01b03602083870151015116613771565b0151606084015160200151604090610e46906001600160a01b0316613890565b015160608581015160200151919391610e67906001600160a01b0316613890565b01519060405196610e7788612f99565b875280602088015260408701928352606087019384526080870191825260208501516001811480809161130a575b15611106575050505060608301519051116110315750606082015151610fcd9390610eda9084906001600160a01b03166142ff565b505b60408301917f2bac8c3f6044cb1139104a12b204201700e0e274bbf9e1cf6507f960472ea581610f9c8451610f118451613333565b5093610f1d8651613333565b50946003610f3a6002610f308551613333565b5001549351613333565b500154966001806003610f5c6002610f528651613333565b5001549451613333565b50015493610f70604051809381930161427c565b03902097610f84604051809381930161427c565b0390209760405195869560a0875260a0870190612f0a565b9360208601526040850152606084015260808301520390a36000608083015152600060206080840151015251614212565b610fd5614006565b336000526008602052806002610fef604060002054613314565b500155600f0390600f821161101d57503360005260086020526003611018604060002054613314565b500155005b634e487b7160e01b60009081526011600452fd5b51604082015181106110665750606082015160200151610fcd93906110609084906001600160a01b03166142ff565b50610edc565b61107f60036110758451613333565b5001918254613ff9565b9055606081015161109560036110758651613333565b905560026110a38251613333565b5001805460021994918582019182116110f1575560026110c38251613333565b50019384549081019081116110dc57610fcd9455610edc565b85634e487b7160e01b60005260116004526000fd5b86634e487b7160e01b60005260116004526000fd5b9394929380611300575b156111c357505050611125825182519061357c565b60608401519181831061115557505050606083015151610fcd9491506110609084906001600160a01b03166142ff565b518210156111b4575050515b600361116d8551613333565b500155600261117c8251613333565b500180546002198101919082116110dc5755600261119a8451613333565b5001928354600381018091116110dc57610fcd9455610edc565b6111be9250613ff9565b611161565b9193506002909114915081806112f6575b156112925750506111ee604083015160808401519061357c565b905181811061121b575050606082015160200151610fcd93906110609084906001600160a01b03166142ff565b8060808401511160001461128457505060408101515b600361123d8351613333565b500155600261124c8251613333565b5001805490600382018092116110dc575560026112698451613333565b500192835460021981019081116110dc57610fcd9455610edc565b61128d91613ff9565b611231565b909150816112eb575b506112aa575b610fcd92610edc565b60026112b68251613333565b5001805490600382018092116110dc575560026112d38451613333565b5001928354600381018091116110dc579093556112a1565b60029150148561129b565b50600181146111d4565b5060028214611110565b5060018314610ea5565b60405162461bcd60e51b8152602060048201526021818401527f506c6179657273207374696c6c206e65656420746f206d616b652061206d6f766044820152606560f81b6064820152608490fd5b60ff91506020015116151583610d3c565b60405162461bcd60e51b815260206004820152602b818401527f4f6e6c7920706c617965727320696e207468697320626174746c652063616e2060448201526a6d616b652061206d6f766560a81b6064820152608490fd5b602001516001600160a01b03163314905083610d23565b610cc9600091610cb8565b83634e487b7160e01b60005260116004526000fd5b60ff806001610c99565b84634e487b7160e01b60005260116004526000fd5b60ff6001610c7a565b85634e487b7160e01b60005260326004526000fd5b60405162461bcd60e51b8152602060048201526022818601527f4d616e61206e6f742073756666696369656e7420666f722061747461636b696e604482015261672160f01b6064820152608490fd5b6001610bf6565b60405162461bcd60e51b815260206004820152601f818701527f43686f6963652073686f756c64206265206569746865722031206f72203221006044820152606490fd5b5060028314610bda565b6001610bce565b60405162461bcd60e51b815260206004820152601d818601527f596f75206861766520616c7265616479206d6164652061206d6f7665210000006044820152606490fd5b600190610b9d565b60405162461bcd60e51b815260206004820152601a818701527f596f7520617265206e6f7420696e207468697320626174746c650000000000006044820152606490fd5b602001516001600160a01b03163314905086610b7d565b60405162461bcd60e51b8152602060048201526018818601527710985d1d1b19481a185cc8185b1c9958591e48195b99195960421b6044820152606490fd5b84634e487b7160e01b60005260216004526000fd5b60405162461bcd60e51b8152602060048201526041818601527f426174746c65206e6f7420737461727465642e20506c656173652074656c6c2060448201527f616e6f7468657220706c6179657220746f206a6f696e2074686520626174746c6064820152606560f81b608482015260a490fd5b346102b55760403660031901126102b557611672612ebb565b60243590811515908183036102b5576001600160a01b0316913383146116ef576116c19033600052600160205260406000208460005260205260406000209060ff801983541691151516179055565b6040519081527f17307eab39ab6107e8899845ad3d59bd9653f200f220920489ca2b5937696c3160203392a3005b60405162461bcd60e51b815260206004820152602960248201527f455243313135353a2073657474696e6720617070726f76616c20737461747573604482015268103337b91039b2b63360b91b6064820152608490fd5b346102b5576020806003193601126102b5576004356001600160401b0381116102b55761177790369060040161300b565b90611780613940565b5061178a82613a4f565b918251600381101561193b576118fc576060830180515190916001600160a01b0391821633146118ad5760806117bf33613771565b015161187457846117d99160018252338686510152614212565b80825151166000526007835260046117f5604060002054613333565b500160ff1990600182825416179055818484510151166000526007845260016004611824604060002054613333565b50019182541617905582840151915151166040519182527f3726b144f253954160bd0bb1f002a28f904f6e83596cbb62e9e1f2082644ca93833393a361098360405192828493845283019061305f565b60405162461bcd60e51b8152600481018590526011602482015270416c726561647920696e20626174746c6560781b6044820152606490fd5b60405162461bcd60e51b815260048101859052602160248201527f4f6e6c7920706c617965722074776f2063616e206a6f696e206120626174746c6044820152606560f81b6064820152608490fd5b60405162461bcd60e51b8152600481018390526017602482015276426174746c6520616c726561647920737461727465642160481b6044820152606490fd5b634e487b7160e01b600052602160045260246000fd5b346102b55760203660031901126102b5576004356001600160401b0381116102b5576119846104db91369060040161300b565b613b2b565b346102b55760003660031901126102b557602060405160058152f35b346102b55760203660031901126102b5576004356001600160401b0381116102b55760806119e16119dc604093369060040161300b565b613a4f565b015160ff6020818351169201511682519182526020820152f35b346102b55760203660031901126102b5576004356001600160401b0381116102b5576119dc611a2e91369060040161300b565b6060810190815160018060a01b0390818151163314908115611abe575b5015611a79578251518116338103611a6d575060206104db93510151166142ff565b90506104db92506142ff565b60405162461bcd60e51b815260206004820152601b60248201527f596f7520617265206e6f7420696e207468697320626174746c652100000000006044820152606490fd5b6020015182163314905084611a4b565b346102b55760003660031901126102b5576003546040516001600160a01b039091168152602090f35b346102b55760403660031901126102b5576001600160401b036004358181116102b557611b2890369060040161300b565b6024358281116102b557611b4090369060040161300b565b611b49336136fb565b611da757600a54604051611b5c81612f99565b33815260209485820185815260408301600a8152606084019160198352608085019360008552600160401b871015611d7b5760018701600a55611b9e87613333565b969096611d91575186546001600160a01b0319166001600160a01b03919091161786559051805160018701929091908211611d7b57611bdd8354613234565b8b601f8211611d3f575b50508a90601f8311600114611ca35794611c6d94611c80989484600495611c939d9a957f81ef79d1cda814a60c0fc60792e648a06d9c6bae67176346d1cc8b63030bfccd9f9d9a600092611c98575b50508160011b916000199060031b1c19161790555b51600285015551600384015551151591019060ff801983541691151516179055565b3360005260078752604060002055613b2b565b6040519182918583523395830190612f0a565b0390a2005b015190503880611c36565b60008481528c8120929190601f198516908e5b828210611d2757505094600185611c939d9a957f81ef79d1cda814a60c0fc60792e648a06d9c6bae67176346d1cc8b63030bfccd9f9d9a95611c6d9a95600499611c809f9b10611d0e575b505050811b019055611c4b565b015160001960f88460031b161c19169055388080611d01565b80600186978294978701518155019601940190611cb6565b611d6a91856000528160002090601f860160051c8201928610611d71575b601f0160051c0190613ac8565b8b8b611be7565b9091508190611d5d565b634e487b7160e01b600052604160045260246000fd5b634e487b7160e01b600052600060045260246000fd5b60405162461bcd60e51b8152602060048201526019602482015278141b185e595c88185b1c9958591e481c9959da5cdd195c9959603a1b6044820152606490fd5b346102b55760003660031901126102b55760196060611e0633613771565b01511015611ea65760016080611e1b33613771565b0151151503611e66573360005260076020526003611e3d604060002054613333565b500180549060058201809211611e505755005b634e487b7160e01b600052601160045260246000fd5b60405162461bcd60e51b8152602060048201526018602482015277506c61796572206d75737420626520696e20626174746c6560401b6044820152606490fd5b60405162461bcd60e51b81526020600482015260166024820152751219585b1d1a081a5cc8185b1c9958591e48199d5b1b60521b6044820152606490fd5b346102b55760003660031901126102b557611efd613352565b600380546001600160a01b0319811690915560405160009182906001600160a01b03167f8be0079c531659141344cd1fd0a4f28419497f9722a3daafe3b4186f6b6457e08284a3f35b346102b55760003660031901126102b557602060405160028152f35b346102b55760003660031901126102b557604051600090600554611f8581613234565b80835260019180831690811561201c5750600114611fc2575b61098383611fae81870382612fcf565b604051918291602083526020830190612f0a565b6005600090815260209450917f036b6384b5eca791c62761152d0c79bb0604c104a5fb6f4eb0703f3154bb3db05b82841061200957505050810190910190611fae81611f9e565b8054858501870152928501928101611ff0565b6109839550611fae93506020915091849260ff191682840152151560051b8201019350611f9e565b346102b55760203660031901126102b557600435600c548110156102b5576120ab90600c6000526007602060002091020160ff815416906120c16001820154916120906002820161326e565b90600660018060a01b03910154169260405195868096613052565b6020850152608060408501526080840190612f0a565b9060608301520390f35b346102b55760003660031901126102b557600c546120e88161310e565b906120f66040519283612fcf565b808252600c6000908152602091828401917fdf6966c971051c3d54ec59162606531493a51404a002842f56009d7e5cf4a8c7835b8383106121915750505050604051918083019381845251809452604083019360408160051b85010192916000955b8287106121655785850386f35b909192938280612181600193603f198a8203018652885161305f565b9601920196019592919092612158565b6007866001926121a3859a999a61398f565b81520192019201919095949561212a565b346102b55760203660031901126102b5576109836121d86121d3612ebb565b613771565b6040519182916020835260208301906131b7565b346102b55760203660031901126102b557600435600052600460205260206040600020541515604051908152f35b346102b55760403660031901126102b5576004356001600160401b038082116102b557366023830112156102b5578160040135906122578261310e565b926122656040519485612fcf565b82845260209260248486019160051b830101913683116102b557602401905b828210612399575050506024359081116102b5576122a6903690600401613125565b8251815103612342578251926122bb8461310e565b936122c96040519586612fcf565b8085526122d8601f199161310e565b01368486013760005b815181101561232b57612326906123166001600160a01b03612303838661344b565b511661230f838761344b565b51906133aa565b612320828861344b565b5261342f565b6122e1565b505050610983604051928284938452830190613183565b60405162461bcd60e51b815260048101839052602960248201527f455243313135353a206163636f756e747320616e6420696473206c656e677468604482015268040dad2e6dac2e8c6d60bb1b6064820152608490fd5b81356001600160a01b03811681036102b5578152908401908401612284565b346102b55760203660031901126102b5576001600160a01b036123d9612ebb565b1660005260076020526020604060002054604051908152f35b346102b55760203660031901126102b5576004356001600160401b0381116102b55761243b60206124288193369060040161300b565b8160405193828580945193849201612ee7565b8101600981520301902054604051908152f35b346102b55760031960a0368201126102b557612468612ebb565b90612471612ed1565b906001600160401b03604480358281116102b557612493903690600401613125565b9060649081358481116102b5576124ae903690600401613125565b9460849485359081116102b5576124c990369060040161300b565b6001600160a01b0398891698909190338a148015612866575b6124eb9061345f565b855188510361281357881695861561250381156134c3565b8a156127d0575b61270b575b60005b86518110156125a2578061252961259d928961344b565b518c612535838d61344b565b51918060005282602092600084526040600020816000528452604060002054906125618383101561351d565b8360005260008552604060002090600052845203604060002055600052600081526040600020908b6000525261070a604060002091825461357c565b612512565b5090919293968998878a604051604081527f4a39dc06d4c0dbc64b70af90fd698a233a518aa5d07e595d983b8c0526c8f7fb6125e1604083018c613183565b918083036020820152806125f6339489613183565b0390a43b61260057005b604051978896879663bc197c8160e01b9b8c89523360048a01526024890152870160a0905260a4870161263291613183565b9084878303019087015261264591613183565b91848303019084015261265791612f0a565b03815a602094600091f1600091816126eb575b506126c3575050600161267b6135f2565b6308c379a01461268c575b61055957005b612694613610565b8061269f5750612686565b60405162461bcd60e51b815260206004820152908190610572906024830190612f0a565b6001600160e01b031916146104db5760405162461bcd60e51b815280610572600482016135a9565b61270491925060203d81116105fd576105ee8183612fcf565b908361266a565b96949398929590979160005b85518110156127c15761272a818761344b565b51612735828961344b565b5190806000526020600481526040600020549183831061276e5761276994939291600491600052520360406000205561342f565b612717565b508b9067616c537570706c7960c01b8f7f455243313135353a206275726e20616d6f756e74206578636565647320746f748e6040519462461bcd60e51b8652600486015260286024860152840152820152fd5b5091979095929893949661250f565b98959996949392919060005b8b5181101561280457808c6106f1826127f86127ff958f61344b565b519261344b565b6127dc565b5090919293949699959861250a565b60405162461bcd60e51b815260206004820152602860248201527f455243313135353a2069647320616e6420616d6f756e7473206c656e6774682081860152670dad2e6dac2e8c6d60c31b818701528790fd5b508960005260016020526040600020336000526020526124eb60ff6040600020541690506124e2565b346102b5576020806003193601126102b5576004356001600160401b0381116102b5576128c090369060040161300b565b906128c9613940565b506128db6128d6336136fb565b613adf565b6128e48261390f565b6129cf578060405181810190828252612912816129046040820188612f0a565b03601f198101835282612fcf565b5190209260405161292281612f63565b3381526000838201526040519061293882612f63565b600082526000848301526040519561294f87612f7e565b600087528487015282604087015260608601526080850152600060a085015261298a600c549283928160405193828580945193849201612ee7565b8101600981520301902055600160401b811015611d7b57826129b58260016129bb9401600c556131ff565b90614042565b61098360405192828493845283019061305f565b6064906040519062461bcd60e51b825260048201526016602482015275426174746c6520616c7265616479206578697374732160501b6044820152fd5b346102b55760203660031901126102b5576001600160a01b03612a2d612ebb565b1660005260086020526020604060002054604051908152f35b346102b55760203660031901126102b5576004356001600160401b0381116102b557612a7c6119dc61098392369060040161300b565b60405191829160208352602083019061305f565b346102b55760203660031901126102b5576004356001600160401b0381116102b557610a2f612ac5602092369060040161300b565b61390f565b346102b55760203660031901126102b557610983612aee612ae9612ebb565b613890565b604051918291602083526020830190612f2f565b346102b5576020806003193601126102b5576040519060008260025491612b2883613234565b92838352600190858282169182600014612b93575050600114612b53575b5061096f92500383612fcf565b849150600260005281600020906000915b858310612b7b57505061096f935082010185612b46565b80548389018501528794508693909201918101612b64565b60ff19168582015261096f95151560051b8501019250879150612b469050565b346102b55760003660031901126102b5576020604051600f8152f35b346102b55760203660031901126102b5576020610a2f612bed612ebb565b6136fb565b346102b55760003660031901126102b557602060405160038152f35b346102b5576020806003193601126102b5576001600160401b036004358181116102b557612c4090369060040161300b565b91612c49613352565b8251918211611d7b57612c5d600254613234565b601f8111612d04575b5080601f8311600114612ca057508192600092612c95575b50508160011b916000199060031b1c191617600255005b015190508280612c7e565b90601f19831693600260005282600020926000905b868210612cec5750508360019510612cd3575b505050811b01600255005b015160001960f88460031b161c19169055828080612cc8565b80600185968294968601518155019501930190612cb5565b612d2f90600260005282600020601f850160051c810191848610611d7157601f0160051c0190613ac8565b83612c66565b346102b55760203660031901126102b55760043563ffffffff60e01b81168091036102b557602090636cdb3d1360e11b8114908115612d92575b8115612d81575b506040519015158152f35b6301ffc9a760e01b14905082612d76565b6303a24d0760e21b81149150612d6f565b346102b55760003660031901126102b557600b54612dc08161310e565b90612dce6040519283612fcf565b808252600b6000908152602091828401917f0175b7a638427703f0dbe7bb9bbf987a2551717b34e79f33b5b1008d1fa01db9835b838310612e695750505050604051918083019381845251809452604083019360408160051b85010192916000955b828710612e3d5785850386f35b909192938280612e59600193603f198a82030186528851612f2f565b9601920196019592919092612e30565b600486600192612e7b859a999a613857565b815201920192019190959495612e02565b346102b55760403660031901126102b5576020612eb3612eaa612ebb565b602435906133aa565b604051908152f35b600435906001600160a01b03821682036102b557565b602435906001600160a01b03821682036102b557565b60005b838110612efa5750506000910152565b8181015183820152602001612eea565b90602091612f2381518092818552858086019101612ee7565b601f01601f1916010190565b90606080612f468451608085526080850190612f0a565b936020810151602085015260408101516040850152015191015290565b604081019081106001600160401b03821117611d7b57604052565b60c081019081106001600160401b03821117611d7b57604052565b60a081019081106001600160401b03821117611d7b57604052565b608081019081106001600160401b03821117611d7b57604052565b90601f801991011681019081106001600160401b03821117611d7b57604052565b6001600160401b038111611d7b57601f01601f191660200190565b81601f820112156102b55780359061302282612ff0565b926130306040519485612fcf565b828452602083830101116102b557816000926020809301838601378301015290565b90600382101561193b5752565b9061306b818351613052565b602091828101518383015261308f6040820151610100806040860152840190612f0a565b926060820151606084016000905b83600283106130f05750505050608082015190600060a085015b600282106130d8575050505060e09060a0600180821b039101511691015290565b828060019260ff8751168152019401910190926130b7565b83516001600160a01b0316825292830192600192909201910161309d565b6001600160401b038111611d7b5760051b60200190565b81601f820112156102b55780359161313c8361310e565b9261314a6040519485612fcf565b808452602092838086019260051b8201019283116102b5578301905b828210613174575050505090565b81358152908301908301613166565b90815180825260208080930193019160005b8281106131a3575050505090565b835185529381019392810192600101613195565b9060018060a01b0382511681526080806131e0602085015160a0602086015260a0850190612f0a565b9360408101516040850152606081015160608501520151151591015290565b600c5481101561321e57600c6000526007602060002091020190600090565b634e487b7160e01b600052603260045260246000fd5b90600182811c92168015613264575b602083101461324e57565b634e487b7160e01b600052602260045260246000fd5b91607f1691613243565b906040519182600082549261328284613234565b9081845260019485811690816000146132f157506001146132ae575b50506132ac92500383612fcf565b565b9093915060005260209081600020936000915b8183106132d95750506132ac9350820101388061329e565b855488840185015294850194879450918301916132c1565b9150506132ac94506020925060ff191682840152151560051b820101388061329e565b600b5481101561321e57600b60005260206000209060021b0190600090565b600a5481101561321e57600a6000526005602060002091020190600090565b6003546001600160a01b0316330361336657565b606460405162461bcd60e51b815260206004820152602060248201527f4f776e61626c653a2063616c6c6572206973206e6f7420746865206f776e65726044820152fd5b6001600160a01b03169081156133d757600052600060205260406000209060005260205260406000205490565b60405162461bcd60e51b815260206004820152602a60248201527f455243313135353a2061646472657373207a65726f206973206e6f742061207660448201526930b634b21037bbb732b960b11b6064820152608490fd5b6000198114611e505760010190565b80511561321e5760200190565b805182101561321e5760209160051b010190565b1561346657565b60405162461bcd60e51b815260206004820152602f60248201527f455243313135353a2063616c6c6572206973206e6f7420746f6b656e206f776e60448201526e195c881b9bdc88185c1c1c9bdd9959608a1b6064820152608490fd5b156134ca57565b60405162461bcd60e51b815260206004820152602560248201527f455243313135353a207472616e7366657220746f20746865207a65726f206164604482015264647265737360d81b6064820152608490fd5b1561352457565b60405162461bcd60e51b815260206004820152602a60248201527f455243313135353a20696e73756666696369656e742062616c616e636520666f60448201526939103a3930b739b332b960b11b6064820152608490fd5b91908201809211611e5057565b908160209103126102b557516001600160e01b0319811681036102b55790565b60809060208152602860208201527f455243313135353a204552433131353552656365697665722072656a656374656040820152676420746f6b656e7360c01b60608201520190565b60009060033d116135ff57565b905060046000803e60005160e01c90565b600060443d1061366d57604051600319913d83016004833e81516001600160401b03918282113d60248401111761367057818401948551938411613678573d85010160208487010111613670575061366d92910160200190612fcf565b90565b949350505050565b50949350505050565b60809060208152603460208201527f455243313135353a207472616e7366657220746f206e6f6e20455243313135356040820152732932b1b2b4bb32b91034b6b83632b6b2b73a32b960611b60608201520190565b604051906136e382612f63565b60018252602036818401376136f78261343e565b5290565b6001600160a01b031660009081526007602052604090205461371c57600090565b600190565b9060405161372e81612f99565b608060ff6004839560018060a01b03815416855261374e6001820161326e565b602086015260028101546040860152600381015460608601520154161515910152565b608060405161377f81612f99565b60009181838093526060602082015282604082015282606082015201526137a5826136fb565b156137d4576001600160a01b0390911681526007602052604090205461366d906137ce90613333565b50613721565b60405162461bcd60e51b8152602060048201526015602482015274506c6179657220646f65736e27742065786973742160581b6044820152606490fd5b6001600160a01b031660009081526008602052604090205461371c57600090565b6040519061383f82612fb4565b60006060838181528260208201528260408201520152565b9060405161386481612fb4565b6060600382946138738161326e565b845260018101546020850152600281015460408501520154910152565b613898613832565b506138a281613811565b156138ce5760018060a01b0316600052600860205261366d6138c8604060002054613314565b50613857565b60405162461bcd60e51b815260206004820152601960248201527847616d6520746f6b656e20646f65736e27742065786973742160381b6044820152606490fd5b6020613928918160405193828580945193849201612ee7565b81016009815203019020541560001461371c57600090565b604090600060a0835161395281612f7e565b8094838252836020830152606081830152805161396e81612f63565b81368237606083015280519061398382612f63565b36823760808201520152565b9060405161399c81612f7e565b809260ff815416600381101561193b57825260018082015490602091828501526002906139ca82850161326e565b60408601526040519182600386016000915b838310613a3357505050505090816139f660a09493612f63565b60608501526040519060ff6005840154818116845260081c1690820152613a1c81612f63565b6080840152600601546000196001831b0116910152565b81546001600160a01b03168152918401919084019086016139dc565b613a57613940565b50613a618161390f565b15613a8b57613a85610c17602061366d938160405193828580945193849201612ee7565b5061398f565b60405162461bcd60e51b8152602060048201526015602482015274426174746c6520646f65736e27742065786973742160581b6044820152606490fd5b818110613ad3575050565b60008155600101613ac8565b15613ae657565b60405162461bcd60e51b815260206004820152601c60248201527f506c6561736520526567697374657220506c61796572204669727374000000006044820152606490fd5b6080613b3633613771565b0151613fbc57613b486128d6336136fb565b613b50613832565b50613b59614006565b80600f0390600f8211611e50576040908151602090818101904282523360601b858201526034815260608101966001600160401b0392828910848a1117611d7b5760ff60646006928b8a528551902006160660ff8116918215613fa6575b60ff9250613bc48a612fb4565b89521696608082019188835260c060a08201918783520190888252600b5493600160401b851015611d7b57600195868601600b55613c0186613314565b959095611d9157518051918211611d7b57613c1c8654613234565b601f8111613f76575b508890601f8311600114613f0e576003959493929160009183613f03575b505060001982871b1c191690881b1785555b518685015551600284015551910155336000526008835284600020558351613c7c81612f63565b600381526203078360ec1b838201523315613eb557613c9a876136d6565b82865191613ca783612f63565b81835285368185013781613cba8461343e565b526000825b613e71575b5050505086600052600083528460002033600052835284600020805490838201809211611e50575584518781528284820152600033917fc3d58168c5ae7397731d063d5bbf3d657854427343f4c083240f7aacaa2d0f62883392a4333b613d69575b5050613d3360065461342f565b60065582519485528401528201527fca8ab07e9ed17d119729fc652dd24df9d8430ca862dda4631925b5b4b99da36260603392a2565b8451838180613da763f23a6e6160e01b95868352336004840152600060248401528c604484015287606484015260a0608484015260a4830190612f0a565b03816000335af160009181613e52575b50613e29575050613dc66135f2565b6308c379a014613df5575b613ddd575b3880613d26565b825162461bcd60e51b81528061057260048201613681565b613dfd613610565b80613e085750613dd1565b82610572865192839262461bcd60e51b845260048401526024830190612f0a565b6001600160e01b031916149050613dd657825162461bcd60e51b815280610572600482016135a9565b613e6a919250853d87116105fd576105ee8183612fcf565b9038613db7565b8151811015613eb05780613e88613eaa928661344b565b51613e93828561344b565b516000526004895261070a8b60002091825461357c565b82613cbf565b613cc4565b845162461bcd60e51b815260048101849052602160248201527f455243313135353a206d696e7420746f20746865207a65726f206164647265736044820152607360f81b6064820152608490fd5b015190503880613c43565b949392918891601f19821690886000528b6000209160005b8d828210613f60575050978360039910613f48575b505050811b018555613c55565b015160001983891b60f8161c19169055388080613f3b565b838b015185558d96909401939283019201613f26565b613fa090876000528a600020601f850160051c8101918c8610611d7157601f0160051c0190613ac8565b38613c25565b905060ff8214611e5057600160ff920190613bb7565b60405162461bcd60e51b8152602060048201526015602482015274506c6179657220697320696e206120626174746c6560581b6044820152606490fd5b91908203918211611e5057565b600f60405160208101904482524260408201523360601b60608201526054815261402f81612fb4565b51902006801561403c5790565b50600790565b929190611d915780519260038085101561193b5760ff1982541660ff80961617825560209081840151906001918285015560029081850160408701518051906001600160401b038211611d7b57819061409b8454613234565b601f81116141e2575b508790601f831160011461418057600092614175575b505060001982851b1c191690851b1790555b606086015160005b8381106141595750505090608085015191600093845b828110614129575050505050600582015560a09091015160069190910180546001600160a01b0319166001600160a01b03929092169190911790559050565b9091928261414d8697848d85995116919060031b60ff811b9283911b169119161790565b960194939291016140ea565b81516001600160a01b03168782018401559085019084016140d4565b0151905038806140ba565b90879350601f1983169185600052896000209260005b8b8282106141cc57505084116141b4575b505050811b0190556140cc565b015160001983871b60f8161c191690553880806141a7565b8385015186558b97909501949384019301614196565b61420c908560005289600020601f850160051c8101918b8610611d7157601f0160051c0190613ac8565b386140a4565b9061421c8261390f565b15614240576129b5610c1760206132ac948160405193828580945193849201612ee7565b60405162461bcd60e51b815260206004820152601460248201527310985d1d1b1948191bd95cdb89dd08195e1a5cdd60621b6044820152606490fd5b60009291815461428b81613234565b926001918083169081156142e457506001146142a8575b50505050565b90919293945060005260209081600020906000915b8583106142d357505050500190388080806142a2565b8054858401529183019181016142bd565b60ff19168452505050811515909102019150388080806142a2565b614307613940565b508151600381101561193b5760021461440657600282527fef50ed5920f81c37468aa9114164197f642d73e9ddb502023574253301e6e04661440060018060a01b03809316928360a0860152600a60026143e8604088019361436a898651614212565b606089019080825151166000526007602052602060406000205492510151166000526040600020549084846143c560046143a385613333565b50019360ff1994858154169055601960036143bd83613333565b500155613333565b50015560046143d383613333565b5001908154169055601960036143bd83613333565b50015551604051918291602083526020830190612f0a565b0390a290565b60405162461bcd60e51b815260206004820152601460248201527310985d1d1b1948185b1c9958591e48195b99195960621b6044820152606490fd5b80156145025780816000925b6144ee57508061445d83612ff0565b9261446b6040519485612fcf565b808452601f1961447a82612ff0565b01366020860137915b61448c57505090565b8160001991828401938411611e505783600a808304809504811185151516611e50576144be60ff938492870290613ff9565b16603001918211611e50578551111561321e5760f81b6001600160f81b03191660001a908401601f015380614483565b916144fa600a9161342f565b92048061444e565b5060405161450f81612f63565b60018152600360fc1b60208201529056fea26469706673582212201efa775a0124b66190e278fc42061f4c995841d0360f13c138031fd8c6b6333564736f6c63430008100033405787fa12a823e0f2b7631cc41b3ba8828b3321ca811111fa75cd3aa3bb5ace",
  "linkReferences": {},
  "deployedLinkReferences": {}
}