{
  "_format": "hh-sol-artifact-1",
  "contractName": "AVAXGods",
  "sourceName": "contracts/AVAXGods.sol",
  "abi": [
    {
      "inputs": [
        {
          "internalType": "string",
          "name": "_metadataURI",
          "type": "string"
        }
      ],
      "stateMutability": "nonpayable",
      "type": "constructor"
    },
    {
      "anonymous": false,
      "inputs": [
        {
          "indexed": true,
          "internalType": "address",
          "name": "account",
          "type": "address"
        },
        {
          "indexed": true,
          "internalType": "address",
          "name": "operator",
          "type": "address"
        },
        {
          "indexed": false,
          "internalType": "bool",
          "name": "approved",
          "type": "bool"
        }
      ],
      "name": "ApprovalForAll",
      "type": "event"
    },
    {
      "anonymous": false,
      "inputs": [
        {
          "indexed": false,
          "internalType": "string",
          "name": "battleName",
          "type": "string"
        },
        {
          "indexed": true,
          "internalType": "address",
          "name": "winner",
          "type": "address"
        }
      ],
      "name": "BattleEnded",
      "type": "event"
    },
    {
      "anonymous": false,
      "inputs": [
        {
          "indexed": true,
          "internalType": "string",
          "name": "battleName",
          "type": "string"
        },
        {
          "indexed": true,
          "internalType": "bool",
          "name": "isFirstMove",
          "type": "bool"
        }
      ],
      "name": "BattleMove",
      "type": "event"
    },
    {
      "anonymous": false,
      "inputs": [
        {
          "indexed": false,
          "internalType": "bytes32",
          "name": "battleHash",
          "type": "bytes32"
        },
        {
          "indexed": true,
          "internalType": "address",
          "name": "player1",
          "type": "address"
        },
        {
          "indexed": true,
          "internalType": "address",
          "name": "player2",
          "type": "address"
        }
      ],
      "name": "BattleStarted",
      "type": "event"
    },
    {
      "anonymous": false,
      "inputs": [
        {
          "indexed": false,
          "internalType": "bytes32",
          "name": "battleHash",
          "type": "bytes32"
        },
        {
          "indexed": true,
          "internalType": "address",
          "name": "player1",
          "type": "address"
        },
        {
          "indexed": true,
          "internalType": "address",
          "name": "player2",
          "type": "address"
        }
      ],
      "name": "NewBattle",
      "type": "event"
    },
    {
      "anonymous": false,
      "inputs": [
        {
          "indexed": true,
          "internalType": "address",
          "name": "owner",
          "type": "address"
        },
        {
          "indexed": false,
          "internalType": "uint256",
          "name": "id",
          "type": "uint256"
        },
        {
          "indexed": false,
          "internalType": "uint256",
          "name": "attackStrength",
          "type": "uint256"
        },
        {
          "indexed": false,
          "internalType": "uint256",
          "name": "defenseStrength",
          "type": "uint256"
        }
      ],
      "name": "NewGameToken",
      "type": "event"
    },
    {
      "anonymous": false,
      "inputs": [
        {
          "indexed": true,
          "internalType": "address",
          "name": "owner",
          "type": "address"
        },
        {
          "indexed": false,
          "internalType": "string",
          "name": "name",
          "type": "string"
        }
      ],
      "name": "NewPlayer",
      "type": "event"
    },
    {
      "anonymous": false,
      "inputs": [
        {
          "indexed": true,
          "internalType": "address",
          "name": "previousOwner",
          "type": "address"
        },
        {
          "indexed": true,
          "internalType": "address",
          "name": "newOwner",
          "type": "address"
        }
      ],
      "name": "OwnershipTransferred",
      "type": "event"
    },
    {
      "anonymous": false,
      "inputs": [
        {
          "indexed": false,
          "internalType": "string",
          "name": "battleName",
          "type": "string"
        },
        {
          "indexed": true,
          "internalType": "string",
          "name": "player1",
          "type": "string"
        },
        {
          "indexed": true,
          "internalType": "string",
          "name": "player2",
          "type": "string"
        },
        {
          "indexed": false,
          "internalType": "uint256",
          "name": "player1Mana",
          "type": "uint256"
        },
        {
          "indexed": false,
          "internalType": "uint256",
          "name": "player2Mana",
          "type": "uint256"
        },
        {
          "indexed": false,
          "internalType": "uint256",
          "name": "player1Health",
          "type": "uint256"
        },
        {
          "indexed": false,
          "internalType": "uint256",
          "name": "player2Health",
          "type": "uint256"
        }
      ],
      "name": "RoundEnded",
      "type": "event"
    },
    {
      "anonymous": false,
      "inputs": [
        {
          "indexed": true,
          "internalType": "address",
          "name": "operator",
          "type": "address"
        },
        {
          "indexed": true,
          "internalType": "address",
          "name": "from",
          "type": "address"
        },
        {
          "indexed": true,
          "internalType": "address",
          "name": "to",
          "type": "address"
        },
        {
          "indexed": false,
          "internalType": "uint256[]",
          "name": "ids",
          "type": "uint256[]"
        },
        {
          "indexed": false,
          "internalType": "uint256[]",
          "name": "values",
          "type": "uint256[]"
        }
      ],
      "name": "TransferBatch",
      "type": "event"
    },
    {
      "anonymous": false,
      "inputs": [
        {
          "indexed": true,
          "internalType": "address",
          "name": "operator",
          "type": "address"
        },
        {
          "indexed": true,
          "internalType": "address",
          "name": "from",
          "type": "address"
        },
        {
          "indexed": true,
          "internalType": "address",
          "name": "to",
          "type": "address"
        },
        {
          "indexed": false,
          "internalType": "uint256",
          "name": "id",
          "type": "uint256"
        },
        {
          "indexed": false,
          "internalType": "uint256",
          "name": "value",
          "type": "uint256"
        }
      ],
      "name": "TransferSingle",
      "type": "event"
    },
    {
      "anonymous": false,
      "inputs": [
        {
          "indexed": false,
          "internalType": "string",
          "name": "value",
          "type": "string"
        },
        {
          "indexed": true,
          "internalType": "uint256",
          "name": "id",
          "type": "uint256"
        }
      ],
      "name": "URI",
      "type": "event"
    },
    {
      "inputs": [],
      "name": "CELESTION",
      "outputs": [
        {
          "internalType": "uint256",
          "name": "",
          "type": "uint256"
        }
      ],
      "stateMutability": "view",
      "type": "function"
    },
    {
      "inputs": [],
      "name": "DEVIL",
      "outputs": [
        {
          "internalType": "uint256",
          "name": "",
          "type": "uint256"
        }
      ],
      "stateMutability": "view",
      "type": "function"
    },
    {
      "inputs": [],
      "name": "FIREBIRD",
      "outputs": [
        {
          "internalType": "uint256",
          "name": "",
          "type": "uint256"
        }
      ],
      "stateMutability": "view",
      "type": "function"
    },
    {
      "inputs": [],
      "name": "GRIFFIN",
      "outputs": [
        {
          "internalType": "uint256",
          "name": "",
          "type": "uint256"
        }
      ],
      "stateMutability": "view",
      "type": "function"
    },
    {
      "inputs": [],
      "name": "KAMO",
      "outputs": [
        {
          "internalType": "uint256",
          "name": "",
          "type": "uint256"
        }
      ],
      "stateMutability": "view",
      "type": "function"
    },
    {
      "inputs": [],
      "name": "KUKULKAN",
      "outputs": [
        {
          "internalType": "uint256",
          "name": "",
          "type": "uint256"
        }
      ],
      "stateMutability": "view",
      "type": "function"
    },
    {
      "inputs": [],
      "name": "MAX_ATTACK_DEFEND_STRENGTH",
      "outputs": [
        {
          "internalType": "uint256",
          "name": "",
          "type": "uint256"
        }
      ],
      "stateMutability": "view",
      "type": "function"
    },
    {
      "inputs": [
        {
          "internalType": "uint8",
          "name": "_choice",
          "type": "uint8"
        },
        {
          "internalType": "string",
          "name": "_battleName",
          "type": "string"
        }
      ],
      "name": "attackOrDefendChoice",
      "outputs": [],
      "stateMutability": "nonpayable",
      "type": "function"
    },
    {
      "inputs": [
        {
          "internalType": "address",
          "name": "account",
          "type": "address"
        },
        {
          "internalType": "uint256",
          "name": "id",
          "type": "uint256"
        }
      ],
      "name": "balanceOf",
      "outputs": [
        {
          "internalType": "uint256",
          "name": "",
          "type": "uint256"
        }
      ],
      "stateMutability": "view",
      "type": "function"
    },
    {
      "inputs": [
        {
          "internalType": "address[]",
          "name": "accounts",
          "type": "address[]"
        },
        {
          "internalType": "uint256[]",
          "name": "ids",
          "type": "uint256[]"
        }
      ],
      "name": "balanceOfBatch",
      "outputs": [
        {
          "internalType": "uint256[]",
          "name": "",
          "type": "uint256[]"
        }
      ],
      "stateMutability": "view",
      "type": "function"
    },
    {
      "inputs": [],
      "name": "baseURI",
      "outputs": [
        {
          "internalType": "string",
          "name": "",
          "type": "string"
        }
      ],
      "stateMutability": "view",
      "type": "function"
    },
    {
      "inputs": [
        {
          "internalType": "string",
          "name": "",
          "type": "string"
        }
      ],
      "name": "battleInfo",
      "outputs": [
        {
          "internalType": "uint256",
          "name": "",
          "type": "uint256"
        }
      ],
      "stateMutability": "view",
      "type": "function"
    },
    {
      "inputs": [
        {
          "internalType": "uint256",
          "name": "",
          "type": "uint256"
        }
      ],
      "name": "battles",
      "outputs": [
        {
          "internalType": "enum AVAXGods.BattleStatus",
          "name": "battleStatus",
          "type": "uint8"
        },
        {
          "internalType": "bytes32",
          "name": "battleHash",
          "type": "bytes32"
        },
        {
          "internalType": "string",
          "name": "name",
          "type": "string"
        },
        {
          "internalType": "address",
          "name": "winner",
          "type": "address"
        }
      ],
      "stateMutability": "view",
      "type": "function"
    },
    {
      "inputs": [
        {
          "internalType": "string",
          "name": "_name",
          "type": "string"
        }
      ],
      "name": "createBattle",
      "outputs": [
        {
          "components": [
            {
              "internalType": "enum AVAXGods.BattleStatus",
              "name": "battleStatus",
              "type": "uint8"
            },
            {
              "internalType": "bytes32",
              "name": "battleHash",
              "type": "bytes32"
            },
            {
              "internalType": "string",
              "name": "name",
              "type": "string"
            },
            {
              "internalType": "address[2]",
              "name": "players",
              "type": "address[2]"
            },
            {
              "internalType": "uint8[2]",
              "name": "moves",
              "type": "uint8[2]"
            },
            {
              "internalType": "address",
              "name": "winner",
              "type": "address"
            }
          ],
          "internalType": "struct AVAXGods.Battle",
          "name": "",
          "type": "tuple"
        }
      ],
      "stateMutability": "nonpayable",
      "type": "function"
    },
    {
      "inputs": [
        {
          "internalType": "string",
          "name": "_name",
          "type": "string"
        }
      ],
      "name": "createRandomGameToken",
      "outputs": [],
      "stateMutability": "nonpayable",
      "type": "function"
    },
    {
      "inputs": [],
      "name": "drinkPotion",
      "outputs": [],
      "stateMutability": "nonpayable",
      "type": "function"
    },
    {
      "inputs": [
        {
          "internalType": "uint256",
          "name": "id",
          "type": "uint256"
        }
      ],
      "name": "exists",
      "outputs": [
        {
          "internalType": "bool",
          "name": "",
          "type": "bool"
        }
      ],
      "stateMutability": "view",
      "type": "function"
    },
    {
      "inputs": [
        {
          "internalType": "uint256",
          "name": "",
          "type": "uint256"
        }
      ],
      "name": "gameTokens",
      "outputs": [
        {
          "internalType": "string",
          "name": "name",
          "type": "string"
        },
        {
          "internalType": "uint256",
          "name": "id",
          "type": "uint256"
        },
        {
          "internalType": "uint256",
          "name": "attackStrength",
          "type": "uint256"
        },
        {
          "internalType": "uint256",
          "name": "defenseStrength",
          "type": "uint256"
        }
      ],
      "stateMutability": "view",
      "type": "function"
    },
    {
      "inputs": [],
      "name": "getAllBattles",
      "outputs": [
        {
          "components": [
            {
              "internalType": "enum AVAXGods.BattleStatus",
              "name": "battleStatus",
              "type": "uint8"
            },
            {
              "internalType": "bytes32",
              "name": "battleHash",
              "type": "bytes32"
            },
            {
              "internalType": "string",
              "name": "name",
              "type": "string"
            },
            {
              "internalType": "address[2]",
              "name": "players",
              "type": "address[2]"
            },
            {
              "internalType": "uint8[2]",
              "name": "moves",
              "type": "uint8[2]"
            },
            {
              "internalType": "address",
              "name": "winner",
              "type": "address"
            }
          ],
          "internalType": "struct AVAXGods.Battle[]",
          "name": "",
          "type": "tuple[]"
        }
      ],
      "stateMutability": "view",
      "type": "function"
    },
    {
      "inputs": [],
      "name": "getAllPlayerTokens",
      "outputs": [
        {
          "components": [
            {
              "internalType": "string",
              "name": "name",
              "type": "string"
            },
            {
              "internalType": "uint256",
              "name": "id",
              "type": "uint256"
            },
            {
              "internalType": "uint256",
              "name": "attackStrength",
              "type": "uint256"
            },
            {
              "internalType": "uint256",
              "name": "defenseStrength",
              "type": "uint256"
            }
          ],
          "internalType": "struct AVAXGods.GameToken[]",
          "name": "",
          "type": "tuple[]"
        }
      ],
      "stateMutability": "view",
      "type": "function"
    },
    {
      "inputs": [],
      "name": "getAllPlayers",
      "outputs": [
        {
          "components": [
            {
              "internalType": "address",
              "name": "playerAddress",
              "type": "address"
            },
            {
              "internalType": "string",
              "name": "playerName",
              "type": "string"
            },
            {
              "internalType": "uint256",
              "name": "playerMana",
              "type": "uint256"
            },
            {
              "internalType": "uint256",
              "name": "playerHealth",
              "type": "uint256"
            },
            {
              "internalType": "bool",
              "name": "inBattle",
              "type": "bool"
            }
          ],
          "internalType": "struct AVAXGods.Player[]",
          "name": "",
          "type": "tuple[]"
        }
      ],
      "stateMutability": "view",
      "type": "function"
    },
    {
      "inputs": [
        {
          "internalType": "string",
          "name": "_name",
          "type": "string"
        }
      ],
      "name": "getBattle",
      "outputs": [
        {
          "components": [
            {
              "internalType": "enum AVAXGods.BattleStatus",
              "name": "battleStatus",
              "type": "uint8"
            },
            {
              "internalType": "bytes32",
              "name": "battleHash",
              "type": "bytes32"
            },
            {
              "internalType": "string",
              "name": "name",
              "type": "string"
            },
            {
              "internalType": "address[2]",
              "name": "players",
              "type": "address[2]"
            },
            {
              "internalType": "uint8[2]",
              "name": "moves",
              "type": "uint8[2]"
            },
            {
              "internalType": "address",
              "name": "winner",
              "type": "address"
            }
          ],
          "internalType": "struct AVAXGods.Battle",
          "name": "",
          "type": "tuple"
        }
      ],
      "stateMutability": "view",
      "type": "function"
    },
    {
      "inputs": [
        {
          "internalType": "string",
          "name": "_battleName",
          "type": "string"
        }
      ],
      "name": "getBattleMoves",
      "outputs": [
        {
          "internalType": "uint256",
          "name": "P1Move",
          "type": "uint256"
        },
        {
          "internalType": "uint256",
          "name": "P2Move",
          "type": "uint256"
        }
      ],
      "stateMutability": "view",
      "type": "function"
    },
    {
      "inputs": [
        {
          "internalType": "address",
          "name": "addr",
          "type": "address"
        }
      ],
      "name": "getPlayer",
      "outputs": [
        {
          "components": [
            {
              "internalType": "address",
              "name": "playerAddress",
              "type": "address"
            },
            {
              "internalType": "string",
              "name": "playerName",
              "type": "string"
            },
            {
              "internalType": "uint256",
              "name": "playerMana",
              "type": "uint256"
            },
            {
              "internalType": "uint256",
              "name": "playerHealth",
              "type": "uint256"
            },
            {
              "internalType": "bool",
              "name": "inBattle",
              "type": "bool"
            }
          ],
          "internalType": "struct AVAXGods.Player",
          "name": "",
          "type": "tuple"
        }
      ],
      "stateMutability": "view",
      "type": "function"
    },
    {
      "inputs": [
        {
          "internalType": "address",
          "name": "addr",
          "type": "address"
        }
      ],
      "name": "getPlayerToken",
      "outputs": [
        {
          "components": [
            {
              "internalType": "string",
              "name": "name",
              "type": "string"
            },
            {
              "internalType": "uint256",
              "name": "id",
              "type": "uint256"
            },
            {
              "internalType": "uint256",
              "name": "attackStrength",
              "type": "uint256"
            },
            {
              "internalType": "uint256",
              "name": "defenseStrength",
              "type": "uint256"
            }
          ],
          "internalType": "struct AVAXGods.GameToken",
          "name": "",
          "type": "tuple"
        }
      ],
      "stateMutability": "view",
      "type": "function"
    },
    {
      "inputs": [],
      "name": "getTotalSupply",
      "outputs": [
        {
          "internalType": "uint256",
          "name": "",
          "type": "uint256"
        }
      ],
      "stateMutability": "view",
      "type": "function"
    },
    {
      "inputs": [
        {
          "internalType": "address",
          "name": "account",
          "type": "address"
        },
        {
          "internalType": "address",
          "name": "operator",
          "type": "address"
        }
      ],
      "name": "isApprovedForAll",
      "outputs": [
        {
          "internalType": "bool",
          "name": "",
          "type": "bool"
        }
      ],
      "stateMutability": "view",
      "type": "function"
    },
    {
      "inputs": [
        {
          "internalType": "string",
          "name": "_name",
          "type": "string"
        }
      ],
      "name": "isBattle",
      "outputs": [
        {
          "internalType": "bool",
          "name": "",
          "type": "bool"
        }
      ],
      "stateMutability": "view",
      "type": "function"
    },
    {
      "inputs": [
        {
          "internalType": "address",
          "name": "addr",
          "type": "address"
        }
      ],
      "name": "isPlayer",
      "outputs": [
        {
          "internalType": "bool",
          "name": "",
          "type": "bool"
        }
      ],
      "stateMutability": "view",
      "type": "function"
    },
    {
      "inputs": [
        {
          "internalType": "address",
          "name": "addr",
          "type": "address"
        }
      ],
      "name": "isPlayerToken",
      "outputs": [
        {
          "internalType": "bool",
          "name": "",
          "type": "bool"
        }
      ],
      "stateMutability": "view",
      "type": "function"
    },
    {
      "inputs": [
        {
          "internalType": "string",
          "name": "_name",
          "type": "string"
        }
      ],
      "name": "joinBattle",
      "outputs": [
        {
          "components": [
            {
              "internalType": "enum AVAXGods.BattleStatus",
              "name": "battleStatus",
              "type": "uint8"
            },
            {
              "internalType": "bytes32",
              "name": "battleHash",
              "type": "bytes32"
            },
            {
              "internalType": "string",
              "name": "name",
              "type": "string"
            },
            {
              "internalType": "address[2]",
              "name": "players",
              "type": "address[2]"
            },
            {
              "internalType": "uint8[2]",
              "name": "moves",
              "type": "uint8[2]"
            },
            {
              "internalType": "address",
              "name": "winner",
              "type": "address"
            }
          ],
          "internalType": "struct AVAXGods.Battle",
          "name": "",
          "type": "tuple"
        }
      ],
      "stateMutability": "nonpayable",
      "type": "function"
    },
    {
      "inputs": [],
      "name": "owner",
      "outputs": [
        {
          "internalType": "address",
          "name": "",
          "type": "address"
        }
      ],
      "stateMutability": "view",
      "type": "function"
    },
    {
      "inputs": [
        {
          "internalType": "address",
          "name": "",
          "type": "address"
        }
      ],
      "name": "playerInfo",
      "outputs": [
        {
          "internalType": "uint256",
          "name": "",
          "type": "uint256"
        }
      ],
      "stateMutability": "view",
      "type": "function"
    },
    {
      "inputs": [
        {
          "internalType": "address",
          "name": "",
          "type": "address"
        }
      ],
      "name": "playerTokenInfo",
      "outputs": [
        {
          "internalType": "uint256",
          "name": "",
          "type": "uint256"
        }
      ],
      "stateMutability": "view",
      "type": "function"
    },
    {
      "inputs": [
        {
          "internalType": "uint256",
          "name": "",
          "type": "uint256"
        }
      ],
      "name": "players",
      "outputs": [
        {
          "internalType": "address",
          "name": "playerAddress",
          "type": "address"
        },
        {
          "internalType": "string",
          "name": "playerName",
          "type": "string"
        },
        {
          "internalType": "uint256",
          "name": "playerMana",
          "type": "uint256"
        },
        {
          "internalType": "uint256",
          "name": "playerHealth",
          "type": "uint256"
        },
        {
          "internalType": "bool",
          "name": "inBattle",
          "type": "bool"
        }
      ],
      "stateMutability": "view",
      "type": "function"
    },
    {
      "inputs": [
        {
          "internalType": "string",
          "name": "_name",
          "type": "string"
        },
        {
          "internalType": "string",
          "name": "_gameTokenName",
          "type": "string"
        }
      ],
      "name": "registerPlayer",
      "outputs": [],
      "stateMutability": "nonpayable",
      "type": "function"
    },
    {
      "inputs": [],
      "name": "renounceOwnership",
      "outputs": [],
      "stateMutability": "nonpayable",
      "type": "function"
    },
    {
      "inputs": [
        {
          "internalType": "address",
          "name": "from",
          "type": "address"
        },
        {
          "internalType": "address",
          "name": "to",
          "type": "address"
        },
        {
          "internalType": "uint256[]",
          "name": "ids",
          "type": "uint256[]"
        },
        {
          "internalType": "uint256[]",
          "name": "amounts",
          "type": "uint256[]"
        },
        {
          "internalType": "bytes",
          "name": "data",
          "type": "bytes"
        }
      ],
      "name": "safeBatchTransferFrom",
      "outputs": [],
      "stateMutability": "nonpayable",
      "type": "function"
    },
    {
      "inputs": [
        {
          "internalType": "address",
          "name": "from",
          "type": "address"
        },
        {
          "internalType": "address",
          "name": "to",
          "type": "address"
        },
        {
          "internalType": "uint256",
          "name": "id",
          "type": "uint256"
        },
        {
          "internalType": "uint256",
          "name": "amount",
          "type": "uint256"
        },
        {
          "internalType": "bytes",
          "name": "data",
          "type": "bytes"
        }
      ],
      "name": "safeTransferFrom",
      "outputs": [],
      "stateMutability": "nonpayable",
      "type": "function"
    },
    {
      "inputs": [
        {
          "internalType": "address",
          "name": "operator",
          "type": "address"
        },
        {
          "internalType": "bool",
          "name": "approved",
          "type": "bool"
        }
      ],
      "name": "setApprovalForAll",
      "outputs": [],
      "stateMutability": "nonpayable",
      "type": "function"
    },
    {
      "inputs": [
        {
          "internalType": "string",
          "name": "newuri",
          "type": "string"
        }
      ],
      "name": "setURI",
      "outputs": [],
      "stateMutability": "nonpayable",
      "type": "function"
    },
    {
      "inputs": [
        {
          "internalType": "bytes4",
          "name": "interfaceId",
          "type": "bytes4"
        }
      ],
      "name": "supportsInterface",
      "outputs": [
        {
          "internalType": "bool",
          "name": "",
          "type": "bool"
        }
      ],
      "stateMutability": "view",
      "type": "function"
    },
    {
      "inputs": [
        {
          "internalType": "uint256",
          "name": "tokenId",
          "type": "uint256"
        }
      ],
      "name": "tokenURI",
      "outputs": [
        {
          "internalType": "string",
          "name": "",
          "type": "string"
        }
      ],
      "stateMutability": "view",
      "type": "function"
    },
    {
      "inputs": [],
      "name": "totalSupply",
      "outputs": [
        {
          "internalType": "uint256",
          "name": "",
          "type": "uint256"
        }
      ],
      "stateMutability": "view",
      "type": "function"
    },
    {
      "inputs": [
        {
          "internalType": "uint256",
          "name": "id",
          "type": "uint256"
        }
      ],
      "name": "totalSupply",
      "outputs": [
        {
          "internalType": "uint256",
          "name": "",
          "type": "uint256"
        }
      ],
      "stateMutability": "view",
      "type": "function"
    },
    {
      "inputs": [
        {
          "internalType": "address",
          "name": "newOwner",
          "type": "address"
        }
      ],
      "name": "transferOwnership",
      "outputs": [],
      "stateMutability": "nonpayable",
      "type": "function"
    },
    {
      "inputs": [
        {
          "internalType": "uint256",
          "name": "",
          "type": "uint256"
        }
      ],
      "name": "uri",
      "outputs": [
        {
          "internalType": "string",
          "name": "",
          "type": "string"
        }
      ],
      "stateMutability": "view",
      "type": "function"
    }
  ],
  "bytecode": "0x60806040523462000ab45762004fe7803803806200001d8162000af9565b92833981019060208183031262000ab4578051906001600160401b03821162000ab4570181601f8201121562000ab4578051906001600160401b0382116200073c5762000074601f8301601f191660200162000af9565b928284526020838301011162000ab45760005b82811062000a9e57600083850160200152835184906001600160401b0381116200073c57600254600181811c9116801562000a93575b60208210146200071b57601f811162000a51575b50806020601f8211600114620009d957600091620009cd575b508160011b916000199060031b1c1916176002555b60038054336001600160a01b0319821681179092556040516001600160a01b03909116907f8be0079c531659141344cd1fd0a4f28419497f9722a3daafe3b4186f6b6457e090600090a380516001600160401b0381116200073c57600554600181811c91168015620009c2575b60208210146200071b57601f81116200098b575b50602091601f8211600114620009215791819260009262000915575b50508160011b916000199060031b1c1916176005555b604051608081016001600160401b038111828210176200073c57604052620001d962000ad9565b6000815281526020810190600082526040810160008152606082019060008252600b54680100000000000000008110156200073c576001810180600b558110156200076857600b600052925180519460029490941b7f0175b7a638427703f0dbe7bb9bbf987a2551717b34e79f33b5b1008d1fa01db90193906001600160401b0386116200073c578454600181811c911680156200090a575b60208210146200071b57601f8111620008d4575b50602090601f871160011462000865579580916003969760009262000859575b50508160011b9160001990871b1c19161785555b5160018501555160028401555191015560405160a081016001600160401b038111828210176200073c5760405260008152620002f562000ad9565b600081526020820152600060408201526000606082015260006080820152600a5490680100000000000000008210156200073c576001820180600a558210156200076857600a6000528051600583027fc65a7bb8d6351c1cf70c95a316cc6a92839c986682d98bc35f958f4883f9d2a890810180546001600160a01b0319166001600160a01b039390931692909217909155602082015180519093906001600160401b0381116200073c5760016005830284010154600181811c911680156200084e575b60208210146200071b57601f811162000810575b506020601f82116001146200078a57918160059260049594608097986000926200077e575b50508160011b916000199060031b1c1916176001838302850101555b60408601516002838302850101556060860151600383830285010155020101910151151560ff801983541691161790556200044862000ab9565b60008152600060208201526200045d62000ab9565b60008082526020820152604051916001600160401b0360c08401908111908411176200073c5760c0830160405260008352600060208401526200049f62000ad9565b60008152604084015260608301526080820152600060a0820152600c5490680100000000000000008210156200073c576001820180600c558210156200076857600c60005280517fdf6966c971051c3d54ec59162606531493a51404a002842f56009d7e5cf4a8c79060038110156200075257600784028201805460ff191660ff929092169190911781556020830151600182015560408301518051600290920191906001600160401b0382116200073c57825490600182811c9216801562000731575b60208310146200071b5781601f849311620006d9575b50602090601f83116001146200066e5760009262000662575b50508160011b916000199060031b1c19161790555b606082015160005b600281106200063c575050608082015192600093845b6002811062000614576007830284016005810187905560a086015160069190910180546001600160a01b0319166001600160a01b039290921691909117905560405161448e908162000b398239f35b9094602060019160ff885116908460031b60ff811b9283911b169119161796019101620005c5565b81516001600160a01b0316600360078702850183010155602090910190600101620005af565b01519050868062000592565b6000858152602081209350601f198516905b818110620006c05750908460019594939210620006a6575b505050811b019055620005a7565b015160001960f88460031b161c1916905586808062000698565b9293602060018192878601518155019501930162000680565b6200070990856000526020600020601f850160051c8101916020861062000710575b601f0160051c019062000b1f565b8762000579565b9091508190620006fb565b634e487b7160e01b600052602260045260246000fd5b91607f169162000563565b634e487b7160e01b600052604160045260246000fd5b634e487b7160e01b600052602160045260246000fd5b634e487b7160e01b600052603260045260246000fd5b015190508880620003f2565b60016005840285010160005260206000209560005b601f1984168110620007f7575082608096976004969593600193600596601f19811610620007dd575b505050811b016001838302850101556200040e565b015160001960f88460031b161c19169055888080620007c8565b828201518855600190970196602092830192016200079f565b62000847906001600585028601016000526020600020601f840160051c810191602085106200071057601f0160051c019062000b1f565b85620003cd565b90607f1690620003b9565b015190508780620002a6565b90601f198716918660005260206000209260005b818110620008bb57509160019391896003999a9410620008a2575b505050811b018555620002ba565b015160001983891b60f8161c1916905587808062000894565b9293602060018192878601518155019501930162000879565b6200090390866000526020600020601f890160051c81019160208a106200071057601f0160051c019062000b1f565b8662000286565b90607f169062000272565b0151905082806200019c565b601f19821692600560005260206000209160005b858110620009725750836001951062000958575b505050811b01600555620001b2565b015160001960f88460031b161c1916905582808062000949565b9192602060018192868501518155019401920162000935565b620009bb9060056000526020600020601f840160051c810191602085106200071057601f0160051c019062000b1f565b8262000180565b90607f16906200016c565b905082015183620000ea565b6002600090815260008051602062004fc78339815191529250601f198416905b81811062000a385750908360019493921062000a1e575b5050811b01600255620000ff565b84015160001960f88460031b161c19169055838062000a10565b91926020600181928689015181550194019201620009f9565b600260005262000a8c9060008051602062004fc7833981519152601f840160051c810191602085106200071057601f0160051c019062000b1f565b82620000d1565b90607f1690620000bd565b8060208092840101518282870101520162000087565b600080fd5b60408051919082016001600160401b038111838210176200073c57604052565b60405190602082016001600160401b038111838210176200073c57604052565b6040519190601f01601f191682016001600160401b038111838210176200073c57604052565b81811062000b2b575050565b6000815560010162000b1f56fe6080604052600436101561001257600080fd5b60003560e01c8062fdd58e14612dae578063015a379214612cc557806301ffc9a714612c5757806302fe530514612b305780630677aa4e14612b1457806309c95e1014612af15780630daea2cd14612ad55780630e89341c14612a2457806310898e4c146129ec5780631107ae3d146129b257806316801d171461296857806318160ddd146109e35780632711162e1461292e5780632ca04522146127b15780632eb2c2d6146123705780633835e2b5146123145780634b114691146122da5780634e1273f41461213c5780634f558e791461210e5780635c12cd4b146120d65780635c93fc3d14611fed578063606d2e9614611f665780636c0360eb14611e84578063703730a514611e68578063715018a614611e06578063811e0acc14611d0a578063845f433b14611a195780638da5cb5b146119f05780639b09cc871461199a5780639e4ecd111461197e5780639ec40aa314611946578063a1b4f57c1461173b578063a22cb4651461164e578063ba27495614610ae9578063bd85b03914610abd578063bf034b6914610a2e578063bf103a4d14610a01578063c4e41b22146109e3578063c87b56dd146108d7578063d2198cc5146108bb578063de96cefc1461089f578063e985e9c514610849578063efa1c48214610760578063f1da733914610744578063f242432a1461037b578063f2fde38b146102af5763f71d96cb1461022057600080fd5b346102aa5760203660031901126102aa57600435600a548110156102aa57600a6000526005602060002091020160018060a01b0381541661026360018301613190565b9160028101549060ff600460038301549201541690610294604051958695865260a0602087015260a0860190612e2c565b9260408501526060840152151560808301520390f35b600080fd5b346102aa5760203660031901126102aa576102c8612ddd565b6102d0613274565b6001600160a01b0390811690811561032757600380546001600160a01b03198116841790915560405160009390929091167f8be0079c531659141344cd1fd0a4f28419497f9722a3daafe3b4186f6b6457e08484a3f35b60405162461bcd60e51b815260206004820152602660248201527f4f776e61626c653a206e6577206f776e657220697320746865207a65726f206160448201526564647265737360d01b6064820152608490fd5b346102aa5760a03660031901126102aa57610394612ddd565b61039c612df3565b90608480356001600160401b0381116102aa576103bd903690600401612f2d565b6001600160a01b03919083831633148015610719575b6103dc90613381565b828516156103ea81156133e5565b6103f56044356135f8565b6104006064356135f8565b91858716156106b9575b6105f9575b5050604435600052602094600086526040600020848616600052865260406000205461043f60643582101561343f565b604435600052600087526040600020858716600052875260643590036040600020556044356000526000865260406000208482166000528652604060002061048a606435825461349e565b905560405160443581526064358782015284821690858716907fc3d58168c5ae7397731d063d5bbf3d657854427343f4c083240f7aacaa2d0f6260403392a4803b6104d2575b005b60a0600061051c958895604051978896879586938563f23a6e6160e01b9d8e87523360048801521660248601526044356044860152606435606486015284015260a4830190612e2c565b0393165af1600091816105ca575b506105a057505060019061053c613514565b6308c379a01461056b575b5061054e57005b60405162461bcd60e51b815280610567600482016135a3565b0390fd5b610573613532565b908161057f5750610547565b61056760405192839262461bcd60e51b845260048401526024830190612e2c565b6001600160e01b0319161490506104d05760405162461bcd60e51b815280610567600482016134cb565b6105eb919250843d86116105f2575b6105e38183612ef1565b8101906134ab565b908461052a565b503d6105d9565b92959194909360005b84518110156106aa57610615818661336d565b5190610621818861336d565b518260005260046020526040600020548181106106555761065093600052600460205203604060002055613351565b610602565b60405162461bcd60e51b815260206004820152602860248201527f455243313135353a206275726e20616d6f756e74206578636565647320746f74604482015267616c537570706c7960c01b60648201528b90fd5b5093509390949150858061040f565b959260009794919592975b865181101561070b57806106db610706928b61336d565b516106e6828a61336d565b5160005260046020526106ff604060002091825461349e565b9055613351565b6106c4565b50929596919490939661040a565b5082841660005260016020526040600020336000526020526103dc60ff6040600020541690506103d3565b346102aa5760003660031901126102aa57602060405160048152f35b346102aa5760003660031901126102aa57600a5461077d81613030565b9061078b6040519283612ef1565b808252600a6000908152602091828401917fc65a7bb8d6351c1cf70c95a316cc6a92839c986682d98bc35f958f4883f9d2a8835b8383106108265750505050604051918083019381845251809452604083019360408160051b85010192916000955b8287106107fa5785850386f35b909192938280610816600193603f198a820301865288516130d9565b96019201960195929190926107ed565b600586600192610838859a999a613643565b8152019201920191909594956107bf565b346102aa5760403660031901126102aa57610862612ddd565b61086a612df3565b9060018060a01b03809116600052600160205260406000209116600052602052602060ff604060002054166040519015158152f35b346102aa5760003660031901126102aa57602060405160018152f35b346102aa5760003660031901126102aa57602060405160008152f35b346102aa576020806003193601126102aa576108f460043561437a565b9060405191826000916005549261090a84613156565b6001948686821691826000146109be57505060011461097c575b509264173539b7b760d91b6006939285602f60f81b6109649752610950825180938a8785019101612e09565b019182015203601919810185520183612ef1565b610978604051928284938452830190612e2c565b0390f35b8591506005600052816000206000905b8282106109a657505083010164173539b7b760d91b610924565b8054898301850152889550879390910190860161098c565b60ff1916818701528215159092028501909101915064173539b7b760d91b9050610924565b346102aa5760003660031901126102aa576020600654604051908152f35b346102aa5760203660031901126102aa576020610a24610a1f612ddd565b613733565b6040519015158152f35b346102aa5760203660031901126102aa57600435600b548110156102aa57600b600052610aa99060021b7f0175b7a638427703f0dbe7bb9bbf987a2551717b34e79f33b5b1008d1fa01db901610a8381613190565b906001810154906003600282015491015490604051948594608086526080860190612e2c565b926020850152604084015260608301520390f35b346102aa5760203660031901126102aa5760043560005260046020526020604060002054604051908152f35b346102aa5760403660031901126102aa5760043560ff81168091036102aa5760249081356001600160401b0381116102aa57610b29903690600401612f2d565b90610b3382613971565b805160038110156115c5576001036115da57805160038110156115c557600214611586576060810190815160018060a01b03815116331490811561156f575b501561152b57608001518151516001600160a01b03163303611523576000905b600260ff8316101561141f57611fe060ff9260051b160151166114df5751516001600160a01b031633036114d85760005b600182148080156114ce575b1561148a57156114835760036040610be633613693565b015110155b156114345760405191610c1c84519360208181880196610c0c81838a612e09565b8101600981520301902054613121565b5090600260ff8416101561141f57601f6005610c5293600786831c160101931683549060031b60ff811b9283911b169119161790565b90556080610c5f83613971565b0180515160ff166114165760ff60005b166002039060ff821161140157516020015160ff166113f75760ff8060005b1691160360ff81116113e25760ff1690600182036113d757610cbe6001915b604051809281928751928391612e09565b8101039020901515907f54b82b77e7ae55a8e6c9e89deba70c7191dea2a3b08ae647b380e9f981d6a0f86000604051a315610cf557005b610cfe90613971565b606081015180516001600160a01b031633149081156113c0575b501561136857608081015160ff81511615159081611357575b50156113095760018060a01b036060820151511660005260076020526040600020549060ff608082015151166060610d7460018060a01b03828501515116613693565b0151606083015151604090610d91906001600160a01b03166137b2565b015160608481015151919291610daf906001600160a01b03166137b2565b01519260405195610dbf87612ebb565b8652602086015260408501526060840152608083015260018060a01b036020606083015101511660005260076020526040600020549160ff602060808401510151166060610e1b60018060a01b03602083870151015116613693565b0151606084015160200151604090610e3b906001600160a01b03166137b2565b015160608581015160200151919391610e5c906001600160a01b03166137b2565b01519060405196610e6c88612ebb565b87528060208801526040870192835260608701938452608087019182526020850151600181148080916112ff575b156110fb575050505060608301519051116110265750606082015151610fc29390610ecf9084906001600160a01b0316614237565b505b60408301917f2bac8c3f6044cb1139104a12b204201700e0e274bbf9e1cf6507f960472ea581610f918451610f068451613255565b5093610f128651613255565b50946003610f2f6002610f258551613255565b5001549351613255565b500154966001806003610f516002610f478651613255565b5001549451613255565b50015493610f6560405180938193016141b4565b03902097610f7960405180938193016141b4565b0390209760405195869560a0875260a0870190612e2c565b9360208601526040850152606084015260808301520390a3600060808301515260006020608084015101525161414a565b610fca613f35565b336000526008602052806002610fe4604060002054613236565b500155600a0390600a82116110125750336000526008602052600361100d604060002054613236565b500155005b634e487b7160e01b60009081526011600452fd5b516040820151811061105b5750606082015160200151610fc293906110559084906001600160a01b0316614237565b50610ed1565b611074600361106a8451613255565b5001918254613f28565b9055606081015161108a600361106a8651613255565b905560026110988251613255565b5001805460021994918582019182116110e6575560026110b88251613255565b50019384549081019081116110d157610fc29455610ed1565b85634e487b7160e01b60005260116004526000fd5b86634e487b7160e01b60005260116004526000fd5b93949293806112f5575b156111b85750505061111a825182519061349e565b60608401519181831061114a57505050606083015151610fc29491506110559084906001600160a01b0316614237565b518210156111a9575050515b60036111628551613255565b50015560026111718251613255565b500180546002198101919082116110d15755600261118f8451613255565b5001928354600381018091116110d157610fc29455610ed1565b6111b39250613f28565b611156565b9193506002909114915081806112eb575b156112875750506111e3604083015160808401519061349e565b9051818110611210575050606082015160200151610fc293906110559084906001600160a01b0316614237565b8060808401511160001461127957505060408101515b60036112328351613255565b50015560026112418251613255565b5001805490600382018092116110d15755600261125e8451613255565b500192835460021981019081116110d157610fc29455610ed1565b61128291613f28565b611226565b909150816112e0575b5061129f575b610fc292610ed1565b60026112ab8251613255565b5001805490600382018092116110d1575560026112c88451613255565b5001928354600381018091116110d157909355611296565b600291501485611290565b50600181146111c9565b5060028214611105565b5060018314610e9a565b60405162461bcd60e51b8152602060048201526021818401527f506c6179657273207374696c6c206e65656420746f206d616b652061206d6f766044820152606560f81b6064820152608490fd5b60ff91506020015116151583610d31565b60405162461bcd60e51b815260206004820152602b818401527f4f6e6c7920706c617965727320696e207468697320626174746c652063616e2060448201526a6d616b652061206d6f766560a81b6064820152608490fd5b602001516001600160a01b03163314905083610d18565b610cbe600091610cad565b83634e487b7160e01b60005260116004526000fd5b60ff806001610c8e565b84634e487b7160e01b60005260116004526000fd5b60ff6001610c6f565b85634e487b7160e01b60005260326004526000fd5b60405162461bcd60e51b8152602060048201526022818601527f4d616e61206e6f742073756666696369656e7420666f722061747461636b696e604482015261672160f01b6064820152608490fd5b6001610beb565b60405162461bcd60e51b815260206004820152601f818701527f43686f6963652073686f756c64206265206569746865722031206f72203221006044820152606490fd5b5060028314610bcf565b6001610bc3565b60405162461bcd60e51b815260206004820152601d818601527f596f75206861766520616c7265616479206d6164652061206d6f7665210000006044820152606490fd5b600190610b92565b60405162461bcd60e51b815260206004820152601a818701527f596f7520617265206e6f7420696e207468697320626174746c650000000000006044820152606490fd5b602001516001600160a01b03163314905086610b72565b60405162461bcd60e51b8152602060048201526018818601527710985d1d1b19481a185cc8185b1c9958591e48195b99195960421b6044820152606490fd5b84634e487b7160e01b60005260216004526000fd5b60405162461bcd60e51b8152602060048201526041818601527f426174746c65206e6f7420737461727465642e20506c656173652074656c6c2060448201527f616e6f7468657220706c6179657220746f206a6f696e2074686520626174746c6064820152606560f81b608482015260a490fd5b346102aa5760403660031901126102aa57611667612ddd565b60243590811515908183036102aa576001600160a01b0316913383146116e4576116b69033600052600160205260406000208460005260205260406000209060ff801983541691151516179055565b6040519081527f17307eab39ab6107e8899845ad3d59bd9653f200f220920489ca2b5937696c3160203392a3005b60405162461bcd60e51b815260206004820152602960248201527f455243313135353a2073657474696e6720617070726f76616c20737461747573604482015268103337b91039b2b63360b91b6064820152608490fd5b346102aa576020806003193601126102aa576004356001600160401b0381116102aa5761176c903690600401612f2d565b90611775613862565b5061177f82613971565b9182516003811015611930576118f1576060830180515190916001600160a01b0391821633146118a25760806117b433613693565b015161186957846117ce916001825233868651015261414a565b80825151166000526007835260046117ea604060002054613255565b500160ff1990600182825416179055818484510151166000526007845260016004611819604060002054613255565b50019182541617905582840151915151166040519182527f3726b144f253954160bd0bb1f002a28f904f6e83596cbb62e9e1f2082644ca93833393a3610978604051928284938452830190612f81565b60405162461bcd60e51b8152600481018590526011602482015270416c726561647920696e20626174746c6560781b6044820152606490fd5b60405162461bcd60e51b815260048101859052602160248201527f4f6e6c7920706c617965722074776f2063616e206a6f696e206120626174746c6044820152606560f81b6064820152608490fd5b60405162461bcd60e51b8152600481018390526017602482015276426174746c6520616c726561647920737461727465642160481b6044820152606490fd5b634e487b7160e01b600052602160045260246000fd5b346102aa5760203660031901126102aa576004356001600160401b0381116102aa576119796104d0913690600401612f2d565b613a4d565b346102aa5760003660031901126102aa57602060405160058152f35b346102aa5760203660031901126102aa576004356001600160401b0381116102aa5760806119d66119d16040933690600401612f2d565b613971565b015160ff6020818351169201511682519182526020820152f35b346102aa5760003660031901126102aa576003546040516001600160a01b039091168152602090f35b346102aa5760403660031901126102aa576001600160401b036004358181116102aa57611a4a903690600401612f2d565b6024358281116102aa57611a62903690600401612f2d565b611a6b3361361d565b611cc957600a54604051611a7e81612ebb565b33815260209485820185815260408301600a8152606084019160198352608085019360008552600160401b871015611c9d5760018701600a55611ac087613255565b969096611cb3575186546001600160a01b0319166001600160a01b03919091161786559051805160018701929091908211611c9d57611aff8354613156565b8b601f8211611c61575b50508a90601f8311600114611bc55794611b8f94611ba2989484600495611bb59d9a957f81ef79d1cda814a60c0fc60792e648a06d9c6bae67176346d1cc8b63030bfccd9f9d9a600092611bba575b50508160011b916000199060031b1c19161790555b51600285015551600384015551151591019060ff801983541691151516179055565b3360005260078752604060002055613a4d565b6040519182918583523395830190612e2c565b0390a2005b015190503880611b58565b60008481528c8120929190601f198516908e5b828210611c4957505094600185611bb59d9a957f81ef79d1cda814a60c0fc60792e648a06d9c6bae67176346d1cc8b63030bfccd9f9d9a95611b8f9a95600499611ba29f9b10611c30575b505050811b019055611b6d565b015160001960f88460031b161c19169055388080611c23565b80600186978294978701518155019601940190611bd8565b611c8c91856000528160002090601f860160051c8201928610611c93575b601f0160051c01906139ea565b8b8b611b09565b9091508190611c7f565b634e487b7160e01b600052604160045260246000fd5b634e487b7160e01b600052600060045260246000fd5b60405162461bcd60e51b8152602060048201526019602482015278141b185e595c88185b1c9958591e481c9959da5cdd195c9959603a1b6044820152606490fd5b346102aa5760003660031901126102aa5760196060611d2833613693565b01511015611dc85760016080611d3d33613693565b0151151503611d88573360005260076020526003611d5f604060002054613255565b500180549060058201809211611d725755005b634e487b7160e01b600052601160045260246000fd5b60405162461bcd60e51b8152602060048201526018602482015277506c61796572206d75737420626520696e20626174746c6560401b6044820152606490fd5b60405162461bcd60e51b81526020600482015260166024820152751219585b1d1a081a5cc8185b1c9958591e48199d5b1b60521b6044820152606490fd5b346102aa5760003660031901126102aa57611e1f613274565b600380546001600160a01b0319811690915560405160009182906001600160a01b03167f8be0079c531659141344cd1fd0a4f28419497f9722a3daafe3b4186f6b6457e08284a3f35b346102aa5760003660031901126102aa57602060405160028152f35b346102aa5760003660031901126102aa57604051600090600554611ea781613156565b808352600191808316908115611f3e5750600114611ee4575b61097883611ed081870382612ef1565b604051918291602083526020830190612e2c565b6005600090815260209450917f036b6384b5eca791c62761152d0c79bb0604c104a5fb6f4eb0703f3154bb3db05b828410611f2b57505050810190910190611ed081611ec0565b8054858501870152928501928101611f12565b6109789550611ed093506020915091849260ff191682840152151560051b8201019350611ec0565b346102aa5760203660031901126102aa57600435600c548110156102aa57611fcd90600c6000526007602060002091020160ff81541690611fe3600182015491611fb260028201613190565b90600660018060a01b03910154169260405195868096612f74565b6020850152608060408501526080840190612e2c565b9060608301520390f35b346102aa5760003660031901126102aa57600c5461200a81613030565b906120186040519283612ef1565b808252600c6000908152602091828401917fdf6966c971051c3d54ec59162606531493a51404a002842f56009d7e5cf4a8c7835b8383106120b35750505050604051918083019381845251809452604083019360408160051b85010192916000955b8287106120875785850386f35b9091929382806120a3600193603f198a82030186528851612f81565b960192019601959291909261207a565b6007866001926120c5859a999a6138b1565b81520192019201919095949561204c565b346102aa5760203660031901126102aa576109786120fa6120f5612ddd565b613693565b6040519182916020835260208301906130d9565b346102aa5760203660031901126102aa57600435600052600460205260206040600020541515604051908152f35b346102aa5760403660031901126102aa576004356001600160401b038082116102aa57366023830112156102aa5781600401359061217982613030565b926121876040519485612ef1565b82845260209260248486019160051b830101913683116102aa57602401905b8282106122bb575050506024359081116102aa576121c8903690600401613047565b8251815103612264578251926121dd84613030565b936121eb6040519586612ef1565b8085526121fa601f1991613030565b01368486013760005b815181101561224d57612248906122386001600160a01b03612225838661336d565b5116612231838761336d565b51906132cc565b612242828861336d565b52613351565b612203565b5050506109786040519282849384528301906130a5565b60405162461bcd60e51b815260048101839052602960248201527f455243313135353a206163636f756e747320616e6420696473206c656e677468604482015268040dad2e6dac2e8c6d60bb1b6064820152608490fd5b81356001600160a01b03811681036102aa5781529084019084016121a6565b346102aa5760203660031901126102aa576001600160a01b036122fb612ddd565b1660005260076020526020604060002054604051908152f35b346102aa5760203660031901126102aa576004356001600160401b0381116102aa5761235d602061234a81933690600401612f2d565b8160405193828580945193849201612e09565b8101600981520301902054604051908152f35b346102aa5760031960a0368201126102aa5761238a612ddd565b90612393612df3565b906001600160401b03604480358281116102aa576123b5903690600401613047565b9060649081358481116102aa576123d0903690600401613047565b9460849485359081116102aa576123eb903690600401612f2d565b6001600160a01b0398891698909190338a148015612788575b61240d90613381565b855188510361273557881695861561242581156133e5565b8a156126f2575b61262d575b60005b86518110156124c4578061244b6124bf928961336d565b518c612457838d61336d565b51918060005282602092600084526040600020816000528452604060002054906124838383101561343f565b8360005260008552604060002090600052845203604060002055600052600081526040600020908b600052526106ff604060002091825461349e565b612434565b5090919293968998878a604051604081527f4a39dc06d4c0dbc64b70af90fd698a233a518aa5d07e595d983b8c0526c8f7fb612503604083018c6130a5565b918083036020820152806125183394896130a5565b0390a43b61252257005b604051978896879663bc197c8160e01b9b8c89523360048a01526024890152870160a0905260a48701612554916130a5565b90848783030190870152612567916130a5565b91848303019084015261257991612e2c565b03815a602094600091f16000918161260d575b506125e5575050600161259d613514565b6308c379a0146125ae575b61054e57005b6125b6613532565b806125c157506125a8565b60405162461bcd60e51b815260206004820152908190610567906024830190612e2c565b6001600160e01b031916146104d05760405162461bcd60e51b815280610567600482016134cb565b61262691925060203d81116105f2576105e38183612ef1565b908361258c565b96949398929590979160005b85518110156126e35761264c818761336d565b51612657828961336d565b519080600052602060048152604060002054918383106126905761268b949392916004916000525203604060002055613351565b612639565b508b9067616c537570706c7960c01b8f7f455243313135353a206275726e20616d6f756e74206578636565647320746f748e6040519462461bcd60e51b8652600486015260286024860152840152820152fd5b50919790959298939496612431565b98959996949392919060005b8b5181101561272657808c6106e68261271a612721958f61336d565b519261336d565b6126fe565b5090919293949699959861242c565b60405162461bcd60e51b815260206004820152602860248201527f455243313135353a2069647320616e6420616d6f756e7473206c656e6774682081860152670dad2e6dac2e8c6d60c31b818701528790fd5b5089600052600160205260406000203360005260205261240d60ff604060002054169050612404565b346102aa576020806003193601126102aa576004356001600160401b0381116102aa576127e2903690600401612f2d565b906127eb613862565b506127fd6127f83361361d565b613a01565b61280682613831565b6128f1578060405181810190828252612834816128266040820188612e2c565b03601f198101835282612ef1565b5190209260405161284481612e85565b3381526000838201526040519061285a82612e85565b600082526000848301526040519561287187612ea0565b600087528487015282604087015260608601526080850152600060a08501526128ac600c549283928160405193828580945193849201612e09565b8101600981520301902055600160401b811015611c9d57826128d78260016128dd9401600c55613121565b90613f7a565b610978604051928284938452830190612f81565b6064906040519062461bcd60e51b825260048201526016602482015275426174746c6520616c7265616479206578697374732160501b6044820152fd5b346102aa5760203660031901126102aa576001600160a01b0361294f612ddd565b1660005260086020526020604060002054604051908152f35b346102aa5760203660031901126102aa576004356001600160401b0381116102aa5761299e6119d1610978923690600401612f2d565b604051918291602083526020830190612f81565b346102aa5760203660031901126102aa576004356001600160401b0381116102aa57610a246129e76020923690600401612f2d565b613831565b346102aa5760203660031901126102aa57610978612a10612a0b612ddd565b6137b2565b604051918291602083526020830190612e51565b346102aa576020806003193601126102aa576040519060008260025491612a4a83613156565b92838352600190858282169182600014612ab5575050600114612a75575b5061096492500383612ef1565b849150600260005281600020906000915b858310612a9d575050610964935082010185612a68565b80548389018501528794508693909201918101612a86565b60ff19168582015261096495151560051b8501019250879150612a689050565b346102aa5760003660031901126102aa576020604051600a8152f35b346102aa5760203660031901126102aa576020610a24612b0f612ddd565b61361d565b346102aa5760003660031901126102aa57602060405160038152f35b346102aa576020806003193601126102aa576001600160401b036004358181116102aa57612b62903690600401612f2d565b91612b6b613274565b8251918211611c9d57612b7f600254613156565b601f8111612c26575b5080601f8311600114612bc257508192600092612bb7575b50508160011b916000199060031b1c191617600255005b015190508280612ba0565b90601f19831693600260005282600020926000905b868210612c0e5750508360019510612bf5575b505050811b01600255005b015160001960f88460031b161c19169055828080612bea565b80600185968294968601518155019501930190612bd7565b612c5190600260005282600020601f850160051c810191848610611c9357601f0160051c01906139ea565b83612b88565b346102aa5760203660031901126102aa5760043563ffffffff60e01b81168091036102aa57602090636cdb3d1360e11b8114908115612cb4575b8115612ca3575b506040519015158152f35b6301ffc9a760e01b14905082612c98565b6303a24d0760e21b81149150612c91565b346102aa5760003660031901126102aa57600b54612ce281613030565b90612cf06040519283612ef1565b808252600b6000908152602091828401917f0175b7a638427703f0dbe7bb9bbf987a2551717b34e79f33b5b1008d1fa01db9835b838310612d8b5750505050604051918083019381845251809452604083019360408160051b85010192916000955b828710612d5f5785850386f35b909192938280612d7b600193603f198a82030186528851612e51565b9601920196019592919092612d52565b600486600192612d9d859a999a613779565b815201920192019190959495612d24565b346102aa5760403660031901126102aa576020612dd5612dcc612ddd565b602435906132cc565b604051908152f35b600435906001600160a01b03821682036102aa57565b602435906001600160a01b03821682036102aa57565b60005b838110612e1c5750506000910152565b8181015183820152602001612e0c565b90602091612e4581518092818552858086019101612e09565b601f01601f1916010190565b90606080612e688451608085526080850190612e2c565b936020810151602085015260408101516040850152015191015290565b604081019081106001600160401b03821117611c9d57604052565b60c081019081106001600160401b03821117611c9d57604052565b60a081019081106001600160401b03821117611c9d57604052565b608081019081106001600160401b03821117611c9d57604052565b90601f801991011681019081106001600160401b03821117611c9d57604052565b6001600160401b038111611c9d57601f01601f191660200190565b81601f820112156102aa57803590612f4482612f12565b92612f526040519485612ef1565b828452602083830101116102aa57816000926020809301838601378301015290565b9060038210156119305752565b90612f8d818351612f74565b6020918281015183830152612fb16040820151610100806040860152840190612e2c565b926060820151606084016000905b83600283106130125750505050608082015190600060a085015b60028210612ffa575050505060e09060a0600180821b039101511691015290565b828060019260ff875116815201940191019092612fd9565b83516001600160a01b03168252928301926001929092019101612fbf565b6001600160401b038111611c9d5760051b60200190565b81601f820112156102aa5780359161305e83613030565b9261306c6040519485612ef1565b808452602092838086019260051b8201019283116102aa578301905b828210613096575050505090565b81358152908301908301613088565b90815180825260208080930193019160005b8281106130c5575050505090565b8351855293810193928101926001016130b7565b9060018060a01b038251168152608080613102602085015160a0602086015260a0850190612e2c565b9360408101516040850152606081015160608501520151151591015290565b600c5481101561314057600c6000526007602060002091020190600090565b634e487b7160e01b600052603260045260246000fd5b90600182811c92168015613186575b602083101461317057565b634e487b7160e01b600052602260045260246000fd5b91607f1691613165565b90604051918260008254926131a484613156565b90818452600194858116908160001461321357506001146131d0575b50506131ce92500383612ef1565b565b9093915060005260209081600020936000915b8183106131fb5750506131ce935082010138806131c0565b855488840185015294850194879450918301916131e3565b9150506131ce94506020925060ff191682840152151560051b82010138806131c0565b600b5481101561314057600b60005260206000209060021b0190600090565b600a5481101561314057600a6000526005602060002091020190600090565b6003546001600160a01b0316330361328857565b606460405162461bcd60e51b815260206004820152602060248201527f4f776e61626c653a2063616c6c6572206973206e6f7420746865206f776e65726044820152fd5b6001600160a01b03169081156132f957600052600060205260406000209060005260205260406000205490565b60405162461bcd60e51b815260206004820152602a60248201527f455243313135353a2061646472657373207a65726f206973206e6f742061207660448201526930b634b21037bbb732b960b11b6064820152608490fd5b6000198114611d725760010190565b8051156131405760200190565b80518210156131405760209160051b010190565b1561338857565b60405162461bcd60e51b815260206004820152602f60248201527f455243313135353a2063616c6c6572206973206e6f7420746f6b656e206f776e60448201526e195c881b9bdc88185c1c1c9bdd9959608a1b6064820152608490fd5b156133ec57565b60405162461bcd60e51b815260206004820152602560248201527f455243313135353a207472616e7366657220746f20746865207a65726f206164604482015264647265737360d81b6064820152608490fd5b1561344657565b60405162461bcd60e51b815260206004820152602a60248201527f455243313135353a20696e73756666696369656e742062616c616e636520666f60448201526939103a3930b739b332b960b11b6064820152608490fd5b91908201809211611d7257565b908160209103126102aa57516001600160e01b0319811681036102aa5790565b60809060208152602860208201527f455243313135353a204552433131353552656365697665722072656a656374656040820152676420746f6b656e7360c01b60608201520190565b60009060033d1161352157565b905060046000803e60005160e01c90565b600060443d1061358f57604051600319913d83016004833e81516001600160401b03918282113d6024840111176135925781840194855193841161359a573d85010160208487010111613592575061358f92910160200190612ef1565b90565b949350505050565b50949350505050565b60809060208152603460208201527f455243313135353a207472616e7366657220746f206e6f6e20455243313135356040820152732932b1b2b4bb32b91034b6b83632b6b2b73a32b960611b60608201520190565b6040519061360582612e85565b600182526020368184013761361982613360565b5290565b6001600160a01b031660009081526007602052604090205461363e57600090565b600190565b9060405161365081612ebb565b608060ff6004839560018060a01b03815416855261367060018201613190565b602086015260028101546040860152600381015460608601520154161515910152565b60806040516136a181612ebb565b60009181838093526060602082015282604082015282606082015201526136c78261361d565b156136f6576001600160a01b0390911681526007602052604090205461358f906136f090613255565b50613643565b60405162461bcd60e51b8152602060048201526015602482015274506c6179657220646f65736e27742065786973742160581b6044820152606490fd5b6001600160a01b031660009081526008602052604090205461363e57600090565b6040519061376182612ed6565b60006060838181528260208201528260408201520152565b9060405161378681612ed6565b60606003829461379581613190565b845260018101546020850152600281015460408501520154910152565b6137ba613754565b506137c481613733565b156137f05760018060a01b0316600052600860205261358f6137ea604060002054613236565b50613779565b60405162461bcd60e51b815260206004820152601960248201527847616d6520746f6b656e20646f65736e27742065786973742160381b6044820152606490fd5b602061384a918160405193828580945193849201612e09565b81016009815203019020541560001461363e57600090565b604090600060a0835161387481612ea0565b8094838252836020830152606081830152805161389081612e85565b8136823760608301528051906138a582612e85565b36823760808201520152565b906040516138be81612ea0565b809260ff815416600381101561193057825260018082015490602091828501526002906138ec828501613190565b60408601526040519182600386016000915b838310613955575050505050908161391860a09493612e85565b60608501526040519060ff6005840154818116845260081c169082015261393e81612e85565b6080840152600601546000196001831b0116910152565b81546001600160a01b03168152918401919084019086016138fe565b613979613862565b5061398381613831565b156139ad576139a7610c0c602061358f938160405193828580945193849201612e09565b506138b1565b60405162461bcd60e51b8152602060048201526015602482015274426174746c6520646f65736e27742065786973742160581b6044820152606490fd5b8181106139f5575050565b600081556001016139ea565b15613a0857565b60405162461bcd60e51b815260206004820152601c60248201527f506c6561736520526567697374657220506c61796572204669727374000000006044820152606490fd5b6080613a5833613693565b0151613eeb57613a6a6127f83361361d565b613a72613754565b50613a7b613f35565b80600a0390600a8211611d7257604090815193602090600660ff606484890189613abf334284909160349282526001600160601b03199060601b1660208201520190565b0399613ad3601f199b8c8101835282612ef1565b51902006160660ff8116908115613ed7575b60ff9150855192613af584612ed6565b83521695828201918783528581019185835260608201888152600b5493600160401b851015611c9d57600195868601600b55613b3086613236565b959095611cb35751938451906001600160401b038211611c9d57613b548754613156565b601f8111613ea7575b508990601f8311600114613e4457508190600396600092613e39575b505060001982871b1c191690881b1785555b518685015551600284015551910155336000526008835284600020558351613bb281612e85565b600381526203078360ec1b838201523315613deb57613bd0876135f8565b82865191613bdd83612e85565b81835285368185013781613bf084613360565b526000825b613da7575b5050505086600052600083528460002033600052835284600020805490838201809211611d72575584518781528284820152600033917fc3d58168c5ae7397731d063d5bbf3d657854427343f4c083240f7aacaa2d0f62883392a4333b613c9f575b5050613c69600654613351565b60065582519485528401528201527fca8ab07e9ed17d119729fc652dd24df9d8430ca862dda4631925b5b4b99da36260603392a2565b8451838180613cdd63f23a6e6160e01b95868352336004840152600060248401528c604484015287606484015260a0608484015260a4830190612e2c565b03816000335af160009181613d88575b50613d5f575050613cfc613514565b6308c379a014613d2b575b613d13575b3880613c5c565b825162461bcd60e51b815280610567600482016135a3565b613d33613532565b80613d3e5750613d07565b82610567865192839262461bcd60e51b845260048401526024830190612e2c565b6001600160e01b031916149050613d0c57825162461bcd60e51b815280610567600482016134cb565b613da0919250853d87116105f2576105e38183612ef1565b9038613ced565b8151811015613de65780613dbe613de0928661336d565b51613dc9828561336d565b51600052600489526106ff8b60002091825461349e565b82613bf5565b613bfa565b845162461bcd60e51b815260048101849052602160248201527f455243313135353a206d696e7420746f20746865207a65726f206164647265736044820152607360f81b6064820152608490fd5b015190503880613b79565b9082918a931690886000528b6000209160005b8d828210613e91575050978360039910613e79575b505050811b018555613b8b565b015160001983891b60f8161c19169055388080613e6c565b838b015185558d96909401939283019201613e57565b613ed190886000528b600020601f850160051c8101918d8610611c9357601f0160051c01906139ea565b38613b5d565b5060ff8114611d7257600160ff9101613ae5565b60405162461bcd60e51b8152602060048201526015602482015274506c6179657220697320696e206120626174746c6560581b6044820152606490fd5b91908203918211611d7257565b600a6040516020810190613f6781612826334286909160349282526001600160601b03199060601b1660208201520190565b519020068015613f745790565b50600590565b929190611cb3578051926003808510156119305760ff1982541660ff80961617825560209081840151906001918285015560029081850160408701518051906001600160401b038211611c9d578190613fd38454613156565b601f811161411a575b508790601f83116001146140b8576000926140ad575b505060001982851b1c191690851b1790555b606086015160005b8381106140915750505090608085015191600093845b828110614061575050505050600582015560a09091015160069190910180546001600160a01b0319166001600160a01b03929092169190911790559050565b909192826140858697848d85995116919060031b60ff811b9283911b169119161790565b96019493929101614022565b81516001600160a01b031687820184015590850190840161400c565b015190503880613ff2565b90879350601f1983169185600052896000209260005b8b82821061410457505084116140ec575b505050811b019055614004565b015160001983871b60f8161c191690553880806140df565b8385015186558b979095019493840193016140ce565b614144908560005289600020601f850160051c8101918b8610611c9357601f0160051c01906139ea565b38613fdc565b9061415482613831565b15614178576128d7610c0c60206131ce948160405193828580945193849201612e09565b60405162461bcd60e51b815260206004820152601460248201527310985d1d1b1948191bd95cdb89dd08195e1a5cdd60621b6044820152606490fd5b6000929181546141c381613156565b9260019180831690811561421c57506001146141e0575b50505050565b90919293945060005260209081600020906000915b85831061420b57505050500190388080806141da565b8054858401529183019181016141f5565b60ff19168452505050811515909102019150388080806141da565b61423f613862565b50815160038110156119305760021461433e57600282527fef50ed5920f81c37468aa9114164197f642d73e9ddb502023574253301e6e04661433860018060a01b03809316928360a0860152600a600261432060408801936142a289865161414a565b606089019080825151166000526007602052602060406000205492510151166000526040600020549084846142fd60046142db85613255565b50019360ff1994858154169055601960036142f583613255565b500155613255565b500155600461430b83613255565b5001908154169055601960036142f583613255565b50015551604051918291602083526020830190612e2c565b0390a290565b60405162461bcd60e51b815260206004820152601460248201527310985d1d1b1948185b1c9958591e48195b99195960621b6044820152606490fd5b801561443a5780816000925b61442657508061439583612f12565b926143a36040519485612ef1565b808452601f196143b282612f12565b01366020860137915b6143c457505090565b8160001991828401938411611d725783600a808304809504811185151516611d72576143f660ff938492870290613f28565b16603001918211611d7257855111156131405760f81b6001600160f81b03191660001a908401601f0153806143bb565b91614432600a91613351565b920480614386565b5060405161444781612e85565b60018152600360fc1b60208201529056fea264697066735822122000f6d6df7fc4c052887df1902175ceeb22ea4d1938bed1b8c64809905548679b64736f6c63430008100033405787fa12a823e0f2b7631cc41b3ba8828b3321ca811111fa75cd3aa3bb5ace",
  "linkReferences": {},
  "deployedLinkReferences": {}
}