{
  "_format": "hh-sol-artifact-1",
  "contractName": "AVAXGods",
  "sourceName": "contracts/AVAXGods.sol",
  "abi": [
    {
      "inputs": [
        {
          "internalType": "string",
          "name": "_metadataURI",
          "type": "string"
        }
      ],
      "stateMutability": "nonpayable",
      "type": "constructor"
    },
    {
      "anonymous": false,
      "inputs": [
        {
          "indexed": true,
          "internalType": "address",
          "name": "account",
          "type": "address"
        },
        {
          "indexed": true,
          "internalType": "address",
          "name": "operator",
          "type": "address"
        },
        {
          "indexed": false,
          "internalType": "bool",
          "name": "approved",
          "type": "bool"
        }
      ],
      "name": "ApprovalForAll",
      "type": "event"
    },
    {
      "anonymous": false,
      "inputs": [
        {
          "indexed": false,
          "internalType": "string",
          "name": "battleName",
          "type": "string"
        },
        {
          "indexed": true,
          "internalType": "address",
          "name": "winner",
          "type": "address"
        }
      ],
      "name": "BattleEnded",
      "type": "event"
    },
    {
      "anonymous": false,
      "inputs": [
        {
          "indexed": false,
          "internalType": "bytes32",
          "name": "battleHash",
          "type": "bytes32"
        },
        {
          "indexed": true,
          "internalType": "address",
          "name": "player1",
          "type": "address"
        },
        {
          "indexed": true,
          "internalType": "address",
          "name": "player2",
          "type": "address"
        }
      ],
      "name": "BattleStarted",
      "type": "event"
    },
    {
      "anonymous": false,
      "inputs": [
        {
          "indexed": false,
          "internalType": "bytes32",
          "name": "battleHash",
          "type": "bytes32"
        },
        {
          "indexed": true,
          "internalType": "address",
          "name": "player1",
          "type": "address"
        },
        {
          "indexed": true,
          "internalType": "address",
          "name": "player2",
          "type": "address"
        }
      ],
      "name": "NewBattle",
      "type": "event"
    },
    {
      "anonymous": false,
      "inputs": [
        {
          "indexed": true,
          "internalType": "address",
          "name": "owner",
          "type": "address"
        },
        {
          "indexed": false,
          "internalType": "uint256",
          "name": "id",
          "type": "uint256"
        },
        {
          "indexed": false,
          "internalType": "uint256",
          "name": "attackStrength",
          "type": "uint256"
        },
        {
          "indexed": false,
          "internalType": "uint256",
          "name": "defenseStrength",
          "type": "uint256"
        }
      ],
      "name": "NewGameToken",
      "type": "event"
    },
    {
      "anonymous": false,
      "inputs": [
        {
          "indexed": true,
          "internalType": "address",
          "name": "owner",
          "type": "address"
        },
        {
          "indexed": false,
          "internalType": "string",
          "name": "name",
          "type": "string"
        }
      ],
      "name": "NewPlayer",
      "type": "event"
    },
    {
      "anonymous": false,
      "inputs": [
        {
          "indexed": true,
          "internalType": "address",
          "name": "previousOwner",
          "type": "address"
        },
        {
          "indexed": true,
          "internalType": "address",
          "name": "newOwner",
          "type": "address"
        }
      ],
      "name": "OwnershipTransferred",
      "type": "event"
    },
    {
      "anonymous": false,
      "inputs": [
        {
          "indexed": false,
          "internalType": "string",
          "name": "battleName",
          "type": "string"
        },
        {
          "indexed": true,
          "internalType": "string",
          "name": "player1",
          "type": "string"
        },
        {
          "indexed": true,
          "internalType": "string",
          "name": "player2",
          "type": "string"
        },
        {
          "indexed": false,
          "internalType": "uint256",
          "name": "player1Mana",
          "type": "uint256"
        },
        {
          "indexed": false,
          "internalType": "uint256",
          "name": "player2Mana",
          "type": "uint256"
        },
        {
          "indexed": false,
          "internalType": "uint256",
          "name": "player1Health",
          "type": "uint256"
        },
        {
          "indexed": false,
          "internalType": "uint256",
          "name": "player2Health",
          "type": "uint256"
        }
      ],
      "name": "RoundEnded",
      "type": "event"
    },
    {
      "anonymous": false,
      "inputs": [
        {
          "indexed": true,
          "internalType": "address",
          "name": "operator",
          "type": "address"
        },
        {
          "indexed": true,
          "internalType": "address",
          "name": "from",
          "type": "address"
        },
        {
          "indexed": true,
          "internalType": "address",
          "name": "to",
          "type": "address"
        },
        {
          "indexed": false,
          "internalType": "uint256[]",
          "name": "ids",
          "type": "uint256[]"
        },
        {
          "indexed": false,
          "internalType": "uint256[]",
          "name": "values",
          "type": "uint256[]"
        }
      ],
      "name": "TransferBatch",
      "type": "event"
    },
    {
      "anonymous": false,
      "inputs": [
        {
          "indexed": true,
          "internalType": "address",
          "name": "operator",
          "type": "address"
        },
        {
          "indexed": true,
          "internalType": "address",
          "name": "from",
          "type": "address"
        },
        {
          "indexed": true,
          "internalType": "address",
          "name": "to",
          "type": "address"
        },
        {
          "indexed": false,
          "internalType": "uint256",
          "name": "id",
          "type": "uint256"
        },
        {
          "indexed": false,
          "internalType": "uint256",
          "name": "value",
          "type": "uint256"
        }
      ],
      "name": "TransferSingle",
      "type": "event"
    },
    {
      "anonymous": false,
      "inputs": [
        {
          "indexed": false,
          "internalType": "string",
          "name": "value",
          "type": "string"
        },
        {
          "indexed": true,
          "internalType": "uint256",
          "name": "id",
          "type": "uint256"
        }
      ],
      "name": "URI",
      "type": "event"
    },
    {
      "inputs": [],
      "name": "CELESTION",
      "outputs": [
        {
          "internalType": "uint256",
          "name": "",
          "type": "uint256"
        }
      ],
      "stateMutability": "view",
      "type": "function"
    },
    {
      "inputs": [],
      "name": "DEVIL",
      "outputs": [
        {
          "internalType": "uint256",
          "name": "",
          "type": "uint256"
        }
      ],
      "stateMutability": "view",
      "type": "function"
    },
    {
      "inputs": [],
      "name": "FIREBIRD",
      "outputs": [
        {
          "internalType": "uint256",
          "name": "",
          "type": "uint256"
        }
      ],
      "stateMutability": "view",
      "type": "function"
    },
    {
      "inputs": [],
      "name": "GRIFFIN",
      "outputs": [
        {
          "internalType": "uint256",
          "name": "",
          "type": "uint256"
        }
      ],
      "stateMutability": "view",
      "type": "function"
    },
    {
      "inputs": [],
      "name": "KAMO",
      "outputs": [
        {
          "internalType": "uint256",
          "name": "",
          "type": "uint256"
        }
      ],
      "stateMutability": "view",
      "type": "function"
    },
    {
      "inputs": [],
      "name": "KUKULKAN",
      "outputs": [
        {
          "internalType": "uint256",
          "name": "",
          "type": "uint256"
        }
      ],
      "stateMutability": "view",
      "type": "function"
    },
    {
      "inputs": [
        {
          "internalType": "uint8",
          "name": "_choice",
          "type": "uint8"
        },
        {
          "internalType": "string",
          "name": "_battleName",
          "type": "string"
        }
      ],
      "name": "attackOrDefendChoice",
      "outputs": [],
      "stateMutability": "nonpayable",
      "type": "function"
    },
    {
      "inputs": [
        {
          "internalType": "string",
          "name": "_battleName",
          "type": "string"
        }
      ],
      "name": "awaitBattleResults",
      "outputs": [],
      "stateMutability": "nonpayable",
      "type": "function"
    },
    {
      "inputs": [
        {
          "internalType": "address",
          "name": "account",
          "type": "address"
        },
        {
          "internalType": "uint256",
          "name": "id",
          "type": "uint256"
        }
      ],
      "name": "balanceOf",
      "outputs": [
        {
          "internalType": "uint256",
          "name": "",
          "type": "uint256"
        }
      ],
      "stateMutability": "view",
      "type": "function"
    },
    {
      "inputs": [
        {
          "internalType": "address[]",
          "name": "accounts",
          "type": "address[]"
        },
        {
          "internalType": "uint256[]",
          "name": "ids",
          "type": "uint256[]"
        }
      ],
      "name": "balanceOfBatch",
      "outputs": [
        {
          "internalType": "uint256[]",
          "name": "",
          "type": "uint256[]"
        }
      ],
      "stateMutability": "view",
      "type": "function"
    },
    {
      "inputs": [],
      "name": "baseURI",
      "outputs": [
        {
          "internalType": "string",
          "name": "",
          "type": "string"
        }
      ],
      "stateMutability": "view",
      "type": "function"
    },
    {
      "inputs": [
        {
          "internalType": "string",
          "name": "",
          "type": "string"
        }
      ],
      "name": "battleInfo",
      "outputs": [
        {
          "internalType": "uint256",
          "name": "",
          "type": "uint256"
        }
      ],
      "stateMutability": "view",
      "type": "function"
    },
    {
      "inputs": [
        {
          "internalType": "uint256",
          "name": "",
          "type": "uint256"
        }
      ],
      "name": "battles",
      "outputs": [
        {
          "internalType": "enum AVAXGods.BattleStatus",
          "name": "battleStatus",
          "type": "uint8"
        },
        {
          "internalType": "bytes32",
          "name": "battleHash",
          "type": "bytes32"
        },
        {
          "internalType": "string",
          "name": "name",
          "type": "string"
        },
        {
          "internalType": "address",
          "name": "winner",
          "type": "address"
        }
      ],
      "stateMutability": "view",
      "type": "function"
    },
    {
      "inputs": [
        {
          "internalType": "string",
          "name": "_name",
          "type": "string"
        }
      ],
      "name": "createBattle",
      "outputs": [
        {
          "components": [
            {
              "internalType": "enum AVAXGods.BattleStatus",
              "name": "battleStatus",
              "type": "uint8"
            },
            {
              "internalType": "bytes32",
              "name": "battleHash",
              "type": "bytes32"
            },
            {
              "internalType": "string",
              "name": "name",
              "type": "string"
            },
            {
              "internalType": "address[2]",
              "name": "players",
              "type": "address[2]"
            },
            {
              "internalType": "uint8[2]",
              "name": "moves",
              "type": "uint8[2]"
            },
            {
              "internalType": "address",
              "name": "winner",
              "type": "address"
            }
          ],
          "internalType": "struct AVAXGods.Battle",
          "name": "",
          "type": "tuple"
        }
      ],
      "stateMutability": "nonpayable",
      "type": "function"
    },
    {
      "inputs": [
        {
          "internalType": "string",
          "name": "_name",
          "type": "string"
        }
      ],
      "name": "createRandomGameToken",
      "outputs": [],
      "stateMutability": "nonpayable",
      "type": "function"
    },
    {
      "inputs": [],
      "name": "drinkPotion",
      "outputs": [],
      "stateMutability": "nonpayable",
      "type": "function"
    },
    {
      "inputs": [
        {
          "internalType": "uint256",
          "name": "id",
          "type": "uint256"
        }
      ],
      "name": "exists",
      "outputs": [
        {
          "internalType": "bool",
          "name": "",
          "type": "bool"
        }
      ],
      "stateMutability": "view",
      "type": "function"
    },
    {
      "inputs": [
        {
          "internalType": "uint256",
          "name": "",
          "type": "uint256"
        }
      ],
      "name": "gameTokens",
      "outputs": [
        {
          "internalType": "string",
          "name": "name",
          "type": "string"
        },
        {
          "internalType": "uint256",
          "name": "id",
          "type": "uint256"
        },
        {
          "internalType": "uint256",
          "name": "attackStrength",
          "type": "uint256"
        },
        {
          "internalType": "uint256",
          "name": "defenseStrength",
          "type": "uint256"
        }
      ],
      "stateMutability": "view",
      "type": "function"
    },
    {
      "inputs": [],
      "name": "getAllBattles",
      "outputs": [
        {
          "components": [
            {
              "internalType": "enum AVAXGods.BattleStatus",
              "name": "battleStatus",
              "type": "uint8"
            },
            {
              "internalType": "bytes32",
              "name": "battleHash",
              "type": "bytes32"
            },
            {
              "internalType": "string",
              "name": "name",
              "type": "string"
            },
            {
              "internalType": "address[2]",
              "name": "players",
              "type": "address[2]"
            },
            {
              "internalType": "uint8[2]",
              "name": "moves",
              "type": "uint8[2]"
            },
            {
              "internalType": "address",
              "name": "winner",
              "type": "address"
            }
          ],
          "internalType": "struct AVAXGods.Battle[]",
          "name": "",
          "type": "tuple[]"
        }
      ],
      "stateMutability": "view",
      "type": "function"
    },
    {
      "inputs": [],
      "name": "getAllPlayerTokens",
      "outputs": [
        {
          "components": [
            {
              "internalType": "string",
              "name": "name",
              "type": "string"
            },
            {
              "internalType": "uint256",
              "name": "id",
              "type": "uint256"
            },
            {
              "internalType": "uint256",
              "name": "attackStrength",
              "type": "uint256"
            },
            {
              "internalType": "uint256",
              "name": "defenseStrength",
              "type": "uint256"
            }
          ],
          "internalType": "struct AVAXGods.GameToken[]",
          "name": "",
          "type": "tuple[]"
        }
      ],
      "stateMutability": "view",
      "type": "function"
    },
    {
      "inputs": [],
      "name": "getAllPlayers",
      "outputs": [
        {
          "components": [
            {
              "internalType": "address",
              "name": "playerAddress",
              "type": "address"
            },
            {
              "internalType": "string",
              "name": "playerName",
              "type": "string"
            },
            {
              "internalType": "uint256",
              "name": "playerMana",
              "type": "uint256"
            },
            {
              "internalType": "uint256",
              "name": "playerHealth",
              "type": "uint256"
            },
            {
              "internalType": "bool",
              "name": "inBattle",
              "type": "bool"
            }
          ],
          "internalType": "struct AVAXGods.Player[]",
          "name": "",
          "type": "tuple[]"
        }
      ],
      "stateMutability": "view",
      "type": "function"
    },
    {
      "inputs": [
        {
          "internalType": "string",
          "name": "_name",
          "type": "string"
        }
      ],
      "name": "getBattle",
      "outputs": [
        {
          "components": [
            {
              "internalType": "enum AVAXGods.BattleStatus",
              "name": "battleStatus",
              "type": "uint8"
            },
            {
              "internalType": "bytes32",
              "name": "battleHash",
              "type": "bytes32"
            },
            {
              "internalType": "string",
              "name": "name",
              "type": "string"
            },
            {
              "internalType": "address[2]",
              "name": "players",
              "type": "address[2]"
            },
            {
              "internalType": "uint8[2]",
              "name": "moves",
              "type": "uint8[2]"
            },
            {
              "internalType": "address",
              "name": "winner",
              "type": "address"
            }
          ],
          "internalType": "struct AVAXGods.Battle",
          "name": "",
          "type": "tuple"
        }
      ],
      "stateMutability": "view",
      "type": "function"
    },
    {
      "inputs": [
        {
          "internalType": "string",
          "name": "_battleName",
          "type": "string"
        }
      ],
      "name": "getBattleMoves",
      "outputs": [
        {
          "internalType": "uint256",
          "name": "P1Move",
          "type": "uint256"
        },
        {
          "internalType": "uint256",
          "name": "P2Move",
          "type": "uint256"
        }
      ],
      "stateMutability": "view",
      "type": "function"
    },
    {
      "inputs": [
        {
          "internalType": "address",
          "name": "addr",
          "type": "address"
        }
      ],
      "name": "getPlayer",
      "outputs": [
        {
          "components": [
            {
              "internalType": "address",
              "name": "playerAddress",
              "type": "address"
            },
            {
              "internalType": "string",
              "name": "playerName",
              "type": "string"
            },
            {
              "internalType": "uint256",
              "name": "playerMana",
              "type": "uint256"
            },
            {
              "internalType": "uint256",
              "name": "playerHealth",
              "type": "uint256"
            },
            {
              "internalType": "bool",
              "name": "inBattle",
              "type": "bool"
            }
          ],
          "internalType": "struct AVAXGods.Player",
          "name": "",
          "type": "tuple"
        }
      ],
      "stateMutability": "view",
      "type": "function"
    },
    {
      "inputs": [
        {
          "internalType": "address",
          "name": "addr",
          "type": "address"
        }
      ],
      "name": "getPlayerToken",
      "outputs": [
        {
          "components": [
            {
              "internalType": "string",
              "name": "name",
              "type": "string"
            },
            {
              "internalType": "uint256",
              "name": "id",
              "type": "uint256"
            },
            {
              "internalType": "uint256",
              "name": "attackStrength",
              "type": "uint256"
            },
            {
              "internalType": "uint256",
              "name": "defenseStrength",
              "type": "uint256"
            }
          ],
          "internalType": "struct AVAXGods.GameToken",
          "name": "",
          "type": "tuple"
        }
      ],
      "stateMutability": "view",
      "type": "function"
    },
    {
      "inputs": [],
      "name": "getTotalSupply",
      "outputs": [
        {
          "internalType": "uint256",
          "name": "",
          "type": "uint256"
        }
      ],
      "stateMutability": "view",
      "type": "function"
    },
    {
      "inputs": [
        {
          "internalType": "address",
          "name": "account",
          "type": "address"
        },
        {
          "internalType": "address",
          "name": "operator",
          "type": "address"
        }
      ],
      "name": "isApprovedForAll",
      "outputs": [
        {
          "internalType": "bool",
          "name": "",
          "type": "bool"
        }
      ],
      "stateMutability": "view",
      "type": "function"
    },
    {
      "inputs": [
        {
          "internalType": "string",
          "name": "_name",
          "type": "string"
        }
      ],
      "name": "isBattle",
      "outputs": [
        {
          "internalType": "bool",
          "name": "",
          "type": "bool"
        }
      ],
      "stateMutability": "view",
      "type": "function"
    },
    {
      "inputs": [
        {
          "internalType": "address",
          "name": "addr",
          "type": "address"
        }
      ],
      "name": "isPlayer",
      "outputs": [
        {
          "internalType": "bool",
          "name": "",
          "type": "bool"
        }
      ],
      "stateMutability": "view",
      "type": "function"
    },
    {
      "inputs": [
        {
          "internalType": "address",
          "name": "addr",
          "type": "address"
        }
      ],
      "name": "isPlayerToken",
      "outputs": [
        {
          "internalType": "bool",
          "name": "",
          "type": "bool"
        }
      ],
      "stateMutability": "view",
      "type": "function"
    },
    {
      "inputs": [
        {
          "internalType": "string",
          "name": "_name",
          "type": "string"
        }
      ],
      "name": "joinBattle",
      "outputs": [
        {
          "components": [
            {
              "internalType": "enum AVAXGods.BattleStatus",
              "name": "battleStatus",
              "type": "uint8"
            },
            {
              "internalType": "bytes32",
              "name": "battleHash",
              "type": "bytes32"
            },
            {
              "internalType": "string",
              "name": "name",
              "type": "string"
            },
            {
              "internalType": "address[2]",
              "name": "players",
              "type": "address[2]"
            },
            {
              "internalType": "uint8[2]",
              "name": "moves",
              "type": "uint8[2]"
            },
            {
              "internalType": "address",
              "name": "winner",
              "type": "address"
            }
          ],
          "internalType": "struct AVAXGods.Battle",
          "name": "",
          "type": "tuple"
        }
      ],
      "stateMutability": "nonpayable",
      "type": "function"
    },
    {
      "inputs": [],
      "name": "owner",
      "outputs": [
        {
          "internalType": "address",
          "name": "",
          "type": "address"
        }
      ],
      "stateMutability": "view",
      "type": "function"
    },
    {
      "inputs": [
        {
          "internalType": "address",
          "name": "",
          "type": "address"
        }
      ],
      "name": "playerInfo",
      "outputs": [
        {
          "internalType": "uint256",
          "name": "",
          "type": "uint256"
        }
      ],
      "stateMutability": "view",
      "type": "function"
    },
    {
      "inputs": [
        {
          "internalType": "address",
          "name": "",
          "type": "address"
        }
      ],
      "name": "playerTokenInfo",
      "outputs": [
        {
          "internalType": "uint256",
          "name": "",
          "type": "uint256"
        }
      ],
      "stateMutability": "view",
      "type": "function"
    },
    {
      "inputs": [
        {
          "internalType": "uint256",
          "name": "",
          "type": "uint256"
        }
      ],
      "name": "players",
      "outputs": [
        {
          "internalType": "address",
          "name": "playerAddress",
          "type": "address"
        },
        {
          "internalType": "string",
          "name": "playerName",
          "type": "string"
        },
        {
          "internalType": "uint256",
          "name": "playerMana",
          "type": "uint256"
        },
        {
          "internalType": "uint256",
          "name": "playerHealth",
          "type": "uint256"
        },
        {
          "internalType": "bool",
          "name": "inBattle",
          "type": "bool"
        }
      ],
      "stateMutability": "view",
      "type": "function"
    },
    {
      "inputs": [
        {
          "internalType": "string",
          "name": "_name",
          "type": "string"
        }
      ],
      "name": "registerPlayer",
      "outputs": [],
      "stateMutability": "nonpayable",
      "type": "function"
    },
    {
      "inputs": [],
      "name": "renounceOwnership",
      "outputs": [],
      "stateMutability": "nonpayable",
      "type": "function"
    },
    {
      "inputs": [
        {
          "internalType": "address",
          "name": "from",
          "type": "address"
        },
        {
          "internalType": "address",
          "name": "to",
          "type": "address"
        },
        {
          "internalType": "uint256[]",
          "name": "ids",
          "type": "uint256[]"
        },
        {
          "internalType": "uint256[]",
          "name": "amounts",
          "type": "uint256[]"
        },
        {
          "internalType": "bytes",
          "name": "data",
          "type": "bytes"
        }
      ],
      "name": "safeBatchTransferFrom",
      "outputs": [],
      "stateMutability": "nonpayable",
      "type": "function"
    },
    {
      "inputs": [
        {
          "internalType": "address",
          "name": "from",
          "type": "address"
        },
        {
          "internalType": "address",
          "name": "to",
          "type": "address"
        },
        {
          "internalType": "uint256",
          "name": "id",
          "type": "uint256"
        },
        {
          "internalType": "uint256",
          "name": "amount",
          "type": "uint256"
        },
        {
          "internalType": "bytes",
          "name": "data",
          "type": "bytes"
        }
      ],
      "name": "safeTransferFrom",
      "outputs": [],
      "stateMutability": "nonpayable",
      "type": "function"
    },
    {
      "inputs": [
        {
          "internalType": "address",
          "name": "operator",
          "type": "address"
        },
        {
          "internalType": "bool",
          "name": "approved",
          "type": "bool"
        }
      ],
      "name": "setApprovalForAll",
      "outputs": [],
      "stateMutability": "nonpayable",
      "type": "function"
    },
    {
      "inputs": [
        {
          "internalType": "string",
          "name": "newuri",
          "type": "string"
        }
      ],
      "name": "setURI",
      "outputs": [],
      "stateMutability": "nonpayable",
      "type": "function"
    },
    {
      "inputs": [
        {
          "internalType": "bytes4",
          "name": "interfaceId",
          "type": "bytes4"
        }
      ],
      "name": "supportsInterface",
      "outputs": [
        {
          "internalType": "bool",
          "name": "",
          "type": "bool"
        }
      ],
      "stateMutability": "view",
      "type": "function"
    },
    {
      "inputs": [
        {
          "internalType": "uint256",
          "name": "tokenId",
          "type": "uint256"
        }
      ],
      "name": "tokenURI",
      "outputs": [
        {
          "internalType": "string",
          "name": "",
          "type": "string"
        }
      ],
      "stateMutability": "view",
      "type": "function"
    },
    {
      "inputs": [],
      "name": "totalSupply",
      "outputs": [
        {
          "internalType": "uint256",
          "name": "",
          "type": "uint256"
        }
      ],
      "stateMutability": "view",
      "type": "function"
    },
    {
      "inputs": [
        {
          "internalType": "uint256",
          "name": "id",
          "type": "uint256"
        }
      ],
      "name": "totalSupply",
      "outputs": [
        {
          "internalType": "uint256",
          "name": "",
          "type": "uint256"
        }
      ],
      "stateMutability": "view",
      "type": "function"
    },
    {
      "inputs": [
        {
          "internalType": "address",
          "name": "newOwner",
          "type": "address"
        }
      ],
      "name": "transferOwnership",
      "outputs": [],
      "stateMutability": "nonpayable",
      "type": "function"
    },
    {
      "inputs": [
        {
          "internalType": "uint256",
          "name": "",
          "type": "uint256"
        }
      ],
      "name": "uri",
      "outputs": [
        {
          "internalType": "string",
          "name": "",
          "type": "string"
        }
      ],
      "stateMutability": "view",
      "type": "function"
    }
  ],
  "bytecode": "0x60806040523462000ab45762004dbf803803806200001d8162000af9565b92833981019060208183031262000ab4578051906001600160401b03821162000ab4570181601f8201121562000ab4578051906001600160401b0382116200073c5762000074601f8301601f191660200162000af9565b928284526020838301011162000ab45760005b82811062000a9e57600083850160200152835184906001600160401b0381116200073c57600254600181811c9116801562000a93575b60208210146200071b57601f811162000a51575b50806020601f8211600114620009d957600091620009cd575b508160011b916000199060031b1c1916176002555b60038054336001600160a01b0319821681179092556040516001600160a01b03909116907f8be0079c531659141344cd1fd0a4f28419497f9722a3daafe3b4186f6b6457e090600090a380516001600160401b0381116200073c57600554600181811c91168015620009c2575b60208210146200071b57601f81116200098b575b50602091601f8211600114620009215791819260009262000915575b50508160011b916000199060031b1c1916176005555b604051608081016001600160401b038111828210176200073c57604052620001d962000ad9565b6000815281526020810190600082526040810160008152606082019060008252600b54680100000000000000008110156200073c576001810180600b558110156200076857600b600052925180519460029490941b7f0175b7a638427703f0dbe7bb9bbf987a2551717b34e79f33b5b1008d1fa01db90193906001600160401b0386116200073c578454600181811c911680156200090a575b60208210146200071b57601f8111620008d4575b50602090601f871160011462000865579580916003969760009262000859575b50508160011b9160001990871b1c19161785555b5160018501555160028401555191015560405160a081016001600160401b038111828210176200073c5760405260008152620002f562000ad9565b600081526020820152600060408201526000606082015260006080820152600a5490680100000000000000008210156200073c576001820180600a558210156200076857600a6000528051600583027fc65a7bb8d6351c1cf70c95a316cc6a92839c986682d98bc35f958f4883f9d2a890810180546001600160a01b0319166001600160a01b039390931692909217909155602082015180519093906001600160401b0381116200073c5760016005830284010154600181811c911680156200084e575b60208210146200071b57601f811162000810575b506020601f82116001146200078a57918160059260049594608097986000926200077e575b50508160011b916000199060031b1c1916176001838302850101555b60408601516002838302850101556060860151600383830285010155020101910151151560ff801983541691161790556200044862000ab9565b60008152600060208201526200045d62000ab9565b60008082526020820152604051916001600160401b0360c08401908111908411176200073c5760c0830160405260008352600060208401526200049f62000ad9565b60008152604084015260608301526080820152600060a0820152600c5490680100000000000000008210156200073c576001820180600c558210156200076857600c60005280517fdf6966c971051c3d54ec59162606531493a51404a002842f56009d7e5cf4a8c79060038110156200075257600784028201805460ff191660ff929092169190911781556020830151600182015560408301518051600290920191906001600160401b0382116200073c57825490600182811c9216801562000731575b60208310146200071b5781601f849311620006d9575b50602090601f83116001146200066e5760009262000662575b50508160011b916000199060031b1c19161790555b606082015160005b600281106200063c575050608082015192600093845b6002811062000614576007830284016005810187905560a086015160069190910180546001600160a01b0319166001600160a01b0392909216919091179055604051614266908162000b398239f35b9094602060019160ff885116908460031b60ff811b9283911b169119161796019101620005c5565b81516001600160a01b0316600360078702850183010155602090910190600101620005af565b01519050868062000592565b6000858152602081209350601f198516905b818110620006c05750908460019594939210620006a6575b505050811b019055620005a7565b015160001960f88460031b161c1916905586808062000698565b9293602060018192878601518155019501930162000680565b6200070990856000526020600020601f850160051c8101916020861062000710575b601f0160051c019062000b1f565b8762000579565b9091508190620006fb565b634e487b7160e01b600052602260045260246000fd5b91607f169162000563565b634e487b7160e01b600052604160045260246000fd5b634e487b7160e01b600052602160045260246000fd5b634e487b7160e01b600052603260045260246000fd5b015190508880620003f2565b60016005840285010160005260206000209560005b601f1984168110620007f7575082608096976004969593600193600596601f19811610620007dd575b505050811b016001838302850101556200040e565b015160001960f88460031b161c19169055888080620007c8565b828201518855600190970196602092830192016200079f565b62000847906001600585028601016000526020600020601f840160051c810191602085106200071057601f0160051c019062000b1f565b85620003cd565b90607f1690620003b9565b015190508780620002a6565b90601f198716918660005260206000209260005b818110620008bb57509160019391896003999a9410620008a2575b505050811b018555620002ba565b015160001983891b60f8161c1916905587808062000894565b9293602060018192878601518155019501930162000879565b6200090390866000526020600020601f890160051c81019160208a106200071057601f0160051c019062000b1f565b8662000286565b90607f169062000272565b0151905082806200019c565b601f19821692600560005260206000209160005b858110620009725750836001951062000958575b505050811b01600555620001b2565b015160001960f88460031b161c1916905582808062000949565b9192602060018192868501518155019401920162000935565b620009bb9060056000526020600020601f840160051c810191602085106200071057601f0160051c019062000b1f565b8262000180565b90607f16906200016c565b905082015183620000ea565b6002600090815260008051602062004d9f8339815191529250601f198416905b81811062000a385750908360019493921062000a1e575b5050811b01600255620000ff565b84015160001960f88460031b161c19169055838062000a10565b91926020600181928689015181550194019201620009f9565b600260005262000a8c9060008051602062004d9f833981519152601f840160051c810191602085106200071057601f0160051c019062000b1f565b82620000d1565b90607f1690620000bd565b8060208092840101518282870101520162000087565b600080fd5b60408051919082016001600160401b038111838210176200073c57604052565b60405190602082016001600160401b038111838210176200073c57604052565b6040519190601f01601f191682016001600160401b038111838210176200073c57604052565b81811062000b2b575050565b6000815560010162000b1f56fe6080604052600436101561001257600080fd5b60003560e01c8062fdd58e14613040578063015a379214612f5757806301ffc9a714612ee957806302fe530514612dc25780630677aa4e14612da657806309c95e1014612d835780630e89341c14612cd257806310898e4c14612c9a5780631107ae3d14612c6057806316801d1714612c1657806318160ddd14610a2c5780632711162e14612bdc5780632ca0452214612a645780632eb2c2d6146126235780633835e2b5146125da5780634b114691146125a05780634e1273f4146124025780634f558e79146123d457806350ca904814611ddc5780635c12cd4b14611da45780635c93fc3d14611cbb578063606d2e9614611c345780636c0360eb14611b52578063703730a514611b36578063715018a614611ad4578063811e0acc146119ee5780638da5cb5b146119c55780639b09cc871461196f5780639e4ecd11146119535780639ec40aa314611431578063a1b4f57c14611226578063a22cb46514611139578063b3446f8514610e6a578063ba27495614610b32578063bd85b03914610b06578063bf034b6914610a77578063bf103a4d14610a4a578063c4e41b2214610a2c578063c87b56dd14610920578063d2198cc514610904578063de96cefc146108e8578063e985e9c514610892578063efa1c482146107a9578063f1da73391461078d578063f242432a1461037b578063f2fde38b146102af5763f71d96cb1461022057600080fd5b346102aa5760203660031901126102aa57600435600a548110156102aa57600a6000526005602060002091020160018060a01b0381541661026360018301613422565b9160028101549060ff600460038301549201541690610294604051958695865260a0602087015260a08601906130be565b9260408501526060840152151560808301520390f35b600080fd5b346102aa5760203660031901126102aa576102c861306f565b6102d0613506565b6001600160a01b0390811690811561032757600380546001600160a01b03198116841790915560405160009390929091167f8be0079c531659141344cd1fd0a4f28419497f9722a3daafe3b4186f6b6457e08484a3f35b60405162461bcd60e51b815260206004820152602660248201527f4f776e61626c653a206e6577206f776e657220697320746865207a65726f206160448201526564647265737360d01b6064820152608490fd5b346102aa5760a03660031901126102aa5761039461306f565b61039c613085565b90608480356001600160401b0381116102aa576103bd9036906004016131bf565b6001600160a01b03919083831633148015610762575b6103dc90613623565b828516156103ea8115613687565b6103f5604435613845565b610400606435613845565b9185871615610702575b610642575b5050604435600052602094600086526040600020848616600052865260406000205461043f6064358210156136e1565b604435600052600087526040600020858716600052875260643590036040600020556044356000526000865260406000208482166000528652604060002061048a6064358254613740565b905560405160443581526064358782015284821690858716907fc3d58168c5ae7397731d063d5bbf3d657854427343f4c083240f7aacaa2d0f6260403392a4803b6104d2575b005b60a0600061051c958895604051978896879586938563f23a6e6160e01b9d8e87523360048801521660248601526044356044860152606435606486015284015260a48301906130be565b0393165af160009181610613575b506105e957505060019061053c6137b6565b6308c379a0146105b4575b5061054e57005b60405162461bcd60e51b815260206004820152603460248201527f455243313135353a207472616e7366657220746f206e6f6e20455243313135356044820152732932b1b2b4bb32b91034b6b83632b6b2b73a32b960611b6064820152608490fd5b0390fd5b6105bc6137d4565b90816105c85750610547565b6105b060405192839262461bcd60e51b8452600484015260248301906130be565b6001600160e01b0319161490506104d05760405162461bcd60e51b8152806105b06004820161376d565b610634919250843d861161063b575b61062c8183613183565b81019061374d565b908461052a565b503d610622565b92959194909360005b84518110156106f35761065e818661360f565b519061066a818861360f565b5182600052600460205260406000205481811061069e57610699936000526004602052036040600020556135e3565b61064b565b60405162461bcd60e51b815260206004820152602860248201527f455243313135353a206275726e20616d6f756e74206578636565647320746f74604482015267616c537570706c7960c01b60648201528b90fd5b5093509390949150858061040f565b959260009794919592975b8651811015610754578061072461074f928b61360f565b5161072f828a61360f565b5160005260046020526107486040600020918254613740565b90556135e3565b61070d565b50929596919490939661040a565b5082841660005260016020526040600020336000526020526103dc60ff6040600020541690506103d3565b346102aa5760003660031901126102aa57602060405160048152f35b346102aa5760003660031901126102aa57600a546107c6816132c2565b906107d46040519283613183565b808252600a6000908152602091828401917fc65a7bb8d6351c1cf70c95a316cc6a92839c986682d98bc35f958f4883f9d2a8835b83831061086f5750505050604051918083019381845251809452604083019360408160051b85010192916000955b8287106108435785850386f35b90919293828061085f600193603f198a8203018652885161336b565b9601920196019592919092610836565b600586600192610881859a999a613890565b815201920192019190959495610808565b346102aa5760403660031901126102aa576108ab61306f565b6108b3613085565b9060018060a01b03809116600052600160205260406000209116600052602052602060ff604060002054166040519015158152f35b346102aa5760003660031901126102aa57602060405160018152f35b346102aa5760003660031901126102aa57602060405160008152f35b346102aa576020806003193601126102aa5761093d600435614152565b90604051918260009160055492610953846133e8565b600194868682169182600014610a075750506001146109c5575b509264173539b7b760d91b6006939285602f60f81b6109ad9752610999825180938a878501910161309b565b019182015203601919810185520183613183565b6109c16040519282849384528301906130be565b0390f35b8591506005600052816000206000905b8282106109ef57505083010164173539b7b760d91b61096d565b805489830185015288955087939091019086016109d5565b60ff1916818701528215159092028501909101915064173539b7b760d91b905061096d565b346102aa5760003660031901126102aa576020600654604051908152f35b346102aa5760203660031901126102aa576020610a6d610a6861306f565b613980565b6040519015158152f35b346102aa5760203660031901126102aa57600435600b548110156102aa57600b600052610af29060021b7f0175b7a638427703f0dbe7bb9bbf987a2551717b34e79f33b5b1008d1fa01db901610acc81613422565b9060018101549060036002820154910154906040519485946080865260808601906130be565b926020850152604084015260608301520390f35b346102aa5760203660031901126102aa5760043560005260046020526020604060002054604051908152f35b346102aa5760403660031901126102aa5760043560ff81168091036102aa5760249081356001600160401b0381116102aa57610b729036906004016131bf565b91610b7c83613bbe565b80516003811015610de157600103610df65780516003811015610de157600214610da257606081019081519060018060a01b039182808251163314918215610d91575b505015610d4d576080015182515182163303610d465760005b600260ff82161015610d315760051b611fe016015160ff16610ced57610c04610bff613c9a565b6135f2565b51818351511660005260086020526002610c226040600020546134c8565b500155610c30610bff613c9a565b51816020845101511660005260086020526002610c516040600020546134c8565b500155905151163303610cdd57610c8d610c7d60206000955b816040519382858094519384920161309b565b81016009815203019020546133b3565b5090600260ff85161015610cc9575090601f6005610cc593600786831c160101931683549060031b60ff811b9283911b169119161790565b9055005b634e487b7160e01b60009081526032600452fd5b610c8d610c7d6020600195610c6a565b60405162461bcd60e51b815260206004820152601d818501527f596f75206861766520616c7265616479206d6164652061206d6f7665210000006044820152606490fd5b84634e487b7160e01b60005260326004526000fd5b6001610bd8565b60405162461bcd60e51b815260206004820152601a818601527f596f7520617265206e6f7420696e207468697320626174746c650000000000006044820152606490fd5b602091925001511633148288610bbf565b60405162461bcd60e51b8152602060048201526018818401527710985d1d1b19481a185cc8185b1c9958591e48195b99195960421b6044820152606490fd5b82634e487b7160e01b60005260216004526000fd5b60405162461bcd60e51b8152602060048201526041818401527f426174746c65206e6f7420737461727465642e20506c656173652074656c6c2060448201527f616e6f7468657220706c6179657220746f206a6f696e2074686520626174746c6064820152606560f81b608482015260a490fd5b346102aa576020806003193601126102aa576001600160401b036004358181116102aa57610e9c9036906004016131bf565b90610ea63361386a565b6110f857600a549060405190610ebb8261314d565b33825284820184815260408301600a8152606084019160198352608085019360008552600160401b8710156110cc576001808801600a55610efb886134e7565b9790976110e2575187546001600160a01b0319166001600160a01b03919091161787559151805183880193909290919083116110cc57610f3b84546133e8565b8b601f8211611090575b50508a90601f8411600114610ff757938380610fe79b9995610fc699957f81ef79d1cda814a60c0fc60792e648a06d9c6bae67176346d1cc8b63030bfccd9e9c9995600499600094610fec575b50501b916000199060031b1c19161790555b51600285015551600384015551151591019060ff801983541691151516179055565b336000526007855260406000205560405191829185835233958301906130be565b0390a2005b015192503880610f92565b60008581528c8120939493929190601f198516908e5b828210611079575050937f81ef79d1cda814a60c0fc60792e648a06d9c6bae67176346d1cc8b63030bfccd9c9a979360049793610fe79d9b979383610fc69c9810611060575b505050811b019055610fa4565b015160001960f88460031b161c191690558e8080611053565b80888697829497870151815501960194019061100d565b6110bb91866000528160002090601f870160051c82019287106110c2575b601f0160051c0190613c37565b8b8b610f45565b90915081906110ae565b634e487b7160e01b600052604160045260246000fd5b634e487b7160e01b600052600060045260246000fd5b60405162461bcd60e51b8152600481018490526019602482015278141b185e595c88185b1c9958591e481c9959da5cdd195c9959603a1b6044820152606490fd5b346102aa5760403660031901126102aa5761115261306f565b60243590811515908183036102aa576001600160a01b0316913383146111cf576111a19033600052600160205260406000208460005260205260406000209060ff801983541691151516179055565b6040519081527f17307eab39ab6107e8899845ad3d59bd9653f200f220920489ca2b5937696c3160203392a3005b60405162461bcd60e51b815260206004820152602960248201527f455243313135353a2073657474696e6720617070726f76616c20737461747573604482015268103337b91039b2b63360b91b6064820152608490fd5b346102aa576020806003193601126102aa576004356001600160401b0381116102aa576112579036906004016131bf565b90611260613aaf565b5061126a82613bbe565b918251600381101561141b576113dc576060830180515190916001600160a01b03918216331461138d57608061129f336138e0565b015161135457846112b99160018252338686510152613f15565b80825151166000526007835260046112d56040600020546134e7565b500160ff19906001828254161790558184845101511660005260078452600160046113046040600020546134e7565b50019182541617905582840151915151166040519182527f3726b144f253954160bd0bb1f002a28f904f6e83596cbb62e9e1f2082644ca93833393a36109c1604051928284938452830190613213565b60405162461bcd60e51b8152600481018590526011602482015270416c726561647920696e20626174746c6560781b6044820152606490fd5b60405162461bcd60e51b815260048101859052602160248201527f4f6e6c7920706c617965722074776f2063616e206a6f696e206120626174746c6044820152606560f81b6064820152608490fd5b60405162461bcd60e51b8152600481018390526017602482015276426174746c6520616c726561647920737461727465642160481b6044820152606490fd5b634e487b7160e01b600052602160045260246000fd5b346102aa576020806003193601126102aa576001600160401b036004358181116102aa576114639036906004016131bf565b91608061146f336138e0565b0151611917576114866114813361386a565b613c4e565b61148e6139a1565b5061149a610bff613c9a565b51906114ac6114a7613c9a565b6135ff565b5192604051600660ff6064858401846114e4334284909160349282526bffffffffffffffffffffffff199060601b1660208201520190565b03946114f8601f1996878101835282613183565b51902006160660ff8116908115611903575b60ff91506040519761151b89613168565b8852169583810191878352604082018681526060830190888252600b5494600160401b8610156110cc57600196878701600b55611557876134c8565b9690966110e257519485519182116110cc5761157387546133e8565b601f81116118d3575b508990601f831160011461187057508190600396600092611865575b505060001982871b1c191690881b1785555b51868501555160028401555191015533600052600883526040600020556040516115d381613117565b600381526203078360ec1b838201523315611816576115f186613845565b82604051916115ff83613117565b81835285368185013781611612846135f2565b526000825b6117d1575b505050508560005260008352604060002033600052835260406000208054908382018092116117bb57556040518681528284820152600033917fc3d58168c5ae7397731d063d5bbf3d657854427343f4c083240f7aacaa2d0f6260403392a4333b6116c8575b505061168f6006546135e3565b60065560405193845283015260408201527fca8ab07e9ed17d119729fc652dd24df9d8430ca862dda4631925b5b4b99da36260603392a2005b60405183818061170763f23a6e6160e01b95868352336004840152600060248401528b604484015287606484015260a0608484015260a48301906130be565b03816000335af16000918161179c575b506117725750506117266137b6565b6308c379a01461173d575b61054e575b8480611682565b6117456137d4565b806117505750611731565b826105b060405192839262461bcd60e51b8452600484015260248301906130be565b6001600160e01b0319161490506117365760405162461bcd60e51b8152806105b06004820161376d565b6117b4919250853d871161063b5761062c8183613183565b9088611717565b634e487b7160e01b600052601160045260246000fd5b815181101561181157806117e861180b928661360f565b516117f3828561360f565b51600052600489526107486040600020918254613740565b82611617565b61161c565b60405162461bcd60e51b815260048101849052602160248201527f455243313135353a206d696e7420746f20746865207a65726f206164647265736044820152607360f81b6064820152608490fd5b015190508d80611598565b9082918a931690886000528b6000209160005b8d8282106118bd5750509783600399106118a5575b505050811b0185556115aa565b015160001983891b60f8161c191690558d8080611898565b838b015185558d96909401939283019201611883565b6118fd90886000528b600020601f850160051c8101918d86106110c257601f0160051c0190613c37565b8d61157c565b5060ff81146117bb57600160ff910161150a565b6064906040519062461bcd60e51b825260048201526015602482015274506c6179657220697320696e206120626174746c6560581b6044820152fd5b346102aa5760003660031901126102aa57602060405160058152f35b346102aa5760203660031901126102aa576004356001600160401b0381116102aa5760806119ab6119a660409336906004016131bf565b613bbe565b015160ff6020818351169201511682519182526020820152f35b346102aa5760003660031901126102aa576003546040516001600160a01b039091168152602090f35b346102aa5760003660031901126102aa5760196060611a0c336138e0565b01511015611a965760016080611a21336138e0565b0151151503611a56573360005260076020526003611a436040600020546134e7565b5001805490600582018092116117bb5755005b60405162461bcd60e51b8152602060048201526018602482015277506c61796572206d75737420626520696e20626174746c6560401b6044820152606490fd5b60405162461bcd60e51b81526020600482015260166024820152751219585b1d1a081a5cc8185b1c9958591e48199d5b1b60521b6044820152606490fd5b346102aa5760003660031901126102aa57611aed613506565b600380546001600160a01b0319811690915560405160009182906001600160a01b03167f8be0079c531659141344cd1fd0a4f28419497f9722a3daafe3b4186f6b6457e08284a3f35b346102aa5760003660031901126102aa57602060405160028152f35b346102aa5760003660031901126102aa57604051600090600554611b75816133e8565b808352600191808316908115611c0c5750600114611bb2575b6109c183611b9e81870382613183565b6040519182916020835260208301906130be565b6005600090815260209450917f036b6384b5eca791c62761152d0c79bb0604c104a5fb6f4eb0703f3154bb3db05b828410611bf957505050810190910190611b9e81611b8e565b8054858501870152928501928101611be0565b6109c19550611b9e93506020915091849260ff191682840152151560051b8201019350611b8e565b346102aa5760203660031901126102aa57600435600c548110156102aa57611c9b90600c6000526007602060002091020160ff81541690611cb1600182015491611c8060028201613422565b90600660018060a01b03910154169260405195868096613206565b60208501526080604085015260808401906130be565b9060608301520390f35b346102aa5760003660031901126102aa57600c54611cd8816132c2565b90611ce66040519283613183565b808252600c6000908152602091828401917fdf6966c971051c3d54ec59162606531493a51404a002842f56009d7e5cf4a8c7835b838310611d815750505050604051918083019381845251809452604083019360408160051b85010192916000955b828710611d555785850386f35b909192938280611d71600193603f198a82030186528851613213565b9601920196019592919092611d48565b600786600192611d93859a999a613afe565b815201920192019190959495611d1a565b346102aa5760203660031901126102aa576109c1611dc8611dc361306f565b6138e0565b60405191829160208352602083019061336b565b346102aa576020806003193601126102aa576004356001600160401b0381116102aa576119a6611e109136906004016131bf565b606081019182519060018060a01b039182828183511633149283156123c5575b5050501561236d57608083019384518260ff8251161515918261235d575b50501561230e578281515116600052600782526040600020549260ff86515116916060611e7e83835151166138e0565b01516040611e8f84845151166139ff565b0151906060611ea185855151166139ff565b015160405197611eb08961314d565b885286880195865260408801918252606088019283526080880190815284878551015116600052600787526040600020549560ff888c510151166060611efb888b89510151166138e0565b0151916040611f0f898c8a510151166139ff565b0151936060611f238a8d8b510151166139ff565b0151916040519a611f338c61314d565b8b52838c8c015260408b0194855260608b0195865260808b01928352519260018414808091612304575b156121185750505050508351905111156000146120735750505091611f8d866104d098936000969551511661400f565b505b60408601947f2bac8c3f6044cb1139104a12b204201700e0e274bbf9e1cf6507f960472ea58161204f8751611fc484516134e7565b5093611fd086516134e7565b50946003611fed6002611fe385516134e7565b50015493516134e7565b50015496600180600361200f600261200586516134e7565b50015494516134e7565b500154936120236040518093819301613f8c565b039020976120376040518093819301613f8c565b0390209760405195869560a0875260a08701906130be565b938b8601526040850152606084015260808301520390a38281515251015251613f15565b519051811061209c57505091612096866104d0989386600097965101511661400f565b50611f8f565b915091506120bc60036120b287969596516134e7565b5001918254613f7f565b9055516120ce60036120b285516134e7565b905560026120dc84516134e7565b5001805460021996918782019182116117bb575560026120fc84516134e7565b50019283549687019687116117bb576104d09660009455611f8f565b9b9e9b8098979293969498906122fa575b156121ca575050505061214192935051905190613740565b9051908082106121635750509161209686600095936104d0999551511661400f565b9091506121739250969296613f7f565b600361217f87516134e7565b500155600261218e84516134e7565b500180546002198101919082116117bb575560026121ac86516134e7565b500191825495600387018097116117bb576104d09660009455611f8f565b929550925092506002809514908180926122f0575b1561227c5750505190516121f291613740565b90519080821061221757505050916120968660009593896104d09a965101511661400f565b909193506122289250979397613f7f565b600361223486516134e7565b5001558061224285516134e7565b5001805490600382018092116117bb575561225d86516134e7565b50019182549560021987019687116117bb576104d09660009455611f8f565b935094505050819350826122e6575b50506122a0575b50936000916104d095611f8f565b806122ae85979397516134e7565b5001805490600382018092116117bb57556122c986516134e7565b500191825495600387018097116117bb5795909255936000612292565b149050818861228b565b50600181146121df565b5060028114612129565b5060018214611f5d565b60405162461bcd60e51b815260048101839052602160248201527f506c6179657273207374696c6c206e65656420746f206d616b652061206d6f766044820152606560f81b6064820152608490fd5b60ff925001511615158287611e4e565b6084906040519062461bcd60e51b82526004820152602b60248201527f4f6e6c7920706c617965727320696e207468697320626174746c652063616e2060448201526a6d616b652061206d6f766560a81b6064820152fd5b01511633149050828287611e30565b346102aa5760203660031901126102aa57600435600052600460205260206040600020541515604051908152f35b346102aa5760403660031901126102aa576004356001600160401b038082116102aa57366023830112156102aa5781600401359061243f826132c2565b9261244d6040519485613183565b82845260209260248486019160051b830101913683116102aa57602401905b828210612581575050506024359081116102aa5761248e9036906004016132d9565b825181510361252a578251926124a3846132c2565b936124b16040519586613183565b8085526124c0601f19916132c2565b01368486013760005b81518110156125135761250e906124fe6001600160a01b036124eb838661360f565b51166124f7838761360f565b519061355e565b612508828861360f565b526135e3565b6124c9565b5050506109c1604051928284938452830190613337565b60405162461bcd60e51b815260048101839052602960248201527f455243313135353a206163636f756e747320616e6420696473206c656e677468604482015268040dad2e6dac2e8c6d60bb1b6064820152608490fd5b81356001600160a01b03811681036102aa57815290840190840161246c565b346102aa5760203660031901126102aa576001600160a01b036125c161306f565b1660005260076020526020604060002054604051908152f35b346102aa5760203660031901126102aa576004356001600160401b0381116102aa576126106020610c6a819336906004016131bf565b8101600981520301902054604051908152f35b346102aa5760031960a0368201126102aa5761263d61306f565b90612646613085565b906001600160401b03604480358281116102aa576126689036906004016132d9565b9060649081358481116102aa576126839036906004016132d9565b9460849485359081116102aa5761269e9036906004016131bf565b6001600160a01b0398891698909190338a148015612a3b575b6126c090613623565b85518851036129e85788169586156126d88115613687565b8a156129a5575b6128e0575b60005b865181101561277757806126fe612772928961360f565b518c61270a838d61360f565b5191806000528260209260008452604060002081600052845260406000205490612736838310156136e1565b8360005260008552604060002090600052845203604060002055600052600081526040600020908b600052526107486040600020918254613740565b6126e7565b5090919293968998878a604051604081527f4a39dc06d4c0dbc64b70af90fd698a233a518aa5d07e595d983b8c0526c8f7fb6127b6604083018c613337565b918083036020820152806127cb339489613337565b0390a43b6127d557005b604051978896879663bc197c8160e01b9b8c89523360048a01526024890152870160a0905260a4870161280791613337565b9084878303019087015261281a91613337565b91848303019084015261282c916130be565b03815a602094600091f1600091816128c0575b5061289857505060016128506137b6565b6308c379a014612861575b61054e57005b6128696137d4565b80612874575061285b565b60405162461bcd60e51b8152602060048201529081906105b09060248301906130be565b6001600160e01b031916146104d05760405162461bcd60e51b8152806105b06004820161376d565b6128d991925060203d811161063b5761062c8183613183565b908361283f565b96949398929590979160005b8551811015612996576128ff818761360f565b5161290a828961360f565b519080600052602060048152604060002054918383106129435761293e9493929160049160005252036040600020556135e3565b6128ec565b508b9067616c537570706c7960c01b8f7f455243313135353a206275726e20616d6f756e74206578636565647320746f748e6040519462461bcd60e51b8652600486015260286024860152840152820152fd5b509197909592989394966126e4565b98959996949392919060005b8b518110156129d957808c61072f826129cd6129d4958f61360f565b519261360f565b6129b1565b509091929394969995986126df565b60405162461bcd60e51b815260206004820152602860248201527f455243313135353a2069647320616e6420616d6f756e7473206c656e6774682081860152670dad2e6dac2e8c6d60c31b818701528790fd5b508960005260016020526040600020336000526020526126c060ff6040600020541690506126b7565b346102aa576020806003193601126102aa576004356001600160401b0381116102aa57612a959036906004016131bf565b90612a9e613aaf565b50612aab6114813361386a565b612ab482613a7e565b612b9f578060405181810190828252612ae281612ad460408201886130be565b03601f198101835282613183565b51902092604051612af281613117565b33815260008382015260405190612b0882613117565b6000825260008483015260405195612b1f87613132565b600087528487015282604087015260608601526080850152600060a0850152612b5a600c54928392816040519382858094519384920161309b565b8101600981520301902055600160401b8110156110cc5782612b85826001612b8b9401600c556133b3565b90613d45565b6109c1604051928284938452830190613213565b6064906040519062461bcd60e51b825260048201526016602482015275426174746c6520616c7265616479206578697374732160501b6044820152fd5b346102aa5760203660031901126102aa576001600160a01b03612bfd61306f565b1660005260086020526020604060002054604051908152f35b346102aa5760203660031901126102aa576004356001600160401b0381116102aa57612c4c6119a66109c19236906004016131bf565b604051918291602083526020830190613213565b346102aa5760203660031901126102aa576004356001600160401b0381116102aa57610a6d612c9560209236906004016131bf565b613a7e565b346102aa5760203660031901126102aa576109c1612cbe612cb961306f565b6139ff565b6040519182916020835260208301906130e3565b346102aa576020806003193601126102aa576040519060008260025491612cf8836133e8565b92838352600190858282169182600014612d63575050600114612d23575b506109ad92500383613183565b849150600260005281600020906000915b858310612d4b5750506109ad935082010185612d16565b80548389018501528794508693909201918101612d34565b60ff1916858201526109ad95151560051b8501019250879150612d169050565b346102aa5760203660031901126102aa576020610a6d612da161306f565b61386a565b346102aa5760003660031901126102aa57602060405160038152f35b346102aa576020806003193601126102aa576001600160401b036004358181116102aa57612df49036906004016131bf565b91612dfd613506565b82519182116110cc57612e116002546133e8565b601f8111612eb8575b5080601f8311600114612e5457508192600092612e49575b50508160011b916000199060031b1c191617600255005b015190508280612e32565b90601f19831693600260005282600020926000905b868210612ea05750508360019510612e87575b505050811b01600255005b015160001960f88460031b161c19169055828080612e7c565b80600185968294968601518155019501930190612e69565b612ee390600260005282600020601f850160051c8101918486106110c257601f0160051c0190613c37565b83612e1a565b346102aa5760203660031901126102aa5760043563ffffffff60e01b81168091036102aa57602090636cdb3d1360e11b8114908115612f46575b8115612f35575b506040519015158152f35b6301ffc9a760e01b14905082612f2a565b6303a24d0760e21b81149150612f23565b346102aa5760003660031901126102aa57600b54612f74816132c2565b90612f826040519283613183565b808252600b6000908152602091828401917f0175b7a638427703f0dbe7bb9bbf987a2551717b34e79f33b5b1008d1fa01db9835b83831061301d5750505050604051918083019381845251809452604083019360408160051b85010192916000955b828710612ff15785850386f35b90919293828061300d600193603f198a820301865288516130e3565b9601920196019592919092612fe4565b60048660019261302f859a999a6139c6565b815201920192019190959495612fb6565b346102aa5760403660031901126102aa57602061306761305e61306f565b6024359061355e565b604051908152f35b600435906001600160a01b03821682036102aa57565b602435906001600160a01b03821682036102aa57565b60005b8381106130ae5750506000910152565b818101518382015260200161309e565b906020916130d78151809281855285808601910161309b565b601f01601f1916010190565b906060806130fa84516080855260808501906130be565b936020810151602085015260408101516040850152015191015290565b604081019081106001600160401b038211176110cc57604052565b60c081019081106001600160401b038211176110cc57604052565b60a081019081106001600160401b038211176110cc57604052565b608081019081106001600160401b038211176110cc57604052565b90601f801991011681019081106001600160401b038211176110cc57604052565b6001600160401b0381116110cc57601f01601f191660200190565b81601f820112156102aa578035906131d6826131a4565b926131e46040519485613183565b828452602083830101116102aa57816000926020809301838601378301015290565b90600382101561141b5752565b9061321f818351613206565b602091828101518383015261324360408201516101008060408601528401906130be565b926060820151606084016000905b83600283106132a45750505050608082015190600060a085015b6002821061328c575050505060e09060a0600180821b039101511691015290565b828060019260ff87511681520194019101909261326b565b83516001600160a01b03168252928301926001929092019101613251565b6001600160401b0381116110cc5760051b60200190565b81601f820112156102aa578035916132f0836132c2565b926132fe6040519485613183565b808452602092838086019260051b8201019283116102aa578301905b828210613328575050505090565b8135815290830190830161331a565b90815180825260208080930193019160005b828110613357575050505090565b835185529381019392810192600101613349565b9060018060a01b038251168152608080613394602085015160a0602086015260a08501906130be565b9360408101516040850152606081015160608501520151151591015290565b600c548110156133d257600c6000526007602060002091020190600090565b634e487b7160e01b600052603260045260246000fd5b90600182811c92168015613418575b602083101461340257565b634e487b7160e01b600052602260045260246000fd5b91607f16916133f7565b9060405191826000825492613436846133e8565b9081845260019485811690816000146134a55750600114613462575b505061346092500383613183565b565b9093915060005260209081600020936000915b81831061348d57505061346093508201013880613452565b85548884018501529485019487945091830191613475565b91505061346094506020925060ff191682840152151560051b8201013880613452565b600b548110156133d257600b60005260206000209060021b0190600090565b600a548110156133d257600a6000526005602060002091020190600090565b6003546001600160a01b0316330361351a57565b606460405162461bcd60e51b815260206004820152602060248201527f4f776e61626c653a2063616c6c6572206973206e6f7420746865206f776e65726044820152fd5b6001600160a01b031690811561358b57600052600060205260406000209060005260205260406000205490565b60405162461bcd60e51b815260206004820152602a60248201527f455243313135353a2061646472657373207a65726f206973206e6f742061207660448201526930b634b21037bbb732b960b11b6064820152608490fd5b60001981146117bb5760010190565b8051156133d25760200190565b8051600110156133d25760400190565b80518210156133d25760209160051b010190565b1561362a57565b60405162461bcd60e51b815260206004820152602f60248201527f455243313135353a2063616c6c6572206973206e6f7420746f6b656e206f776e60448201526e195c881b9bdc88185c1c1c9bdd9959608a1b6064820152608490fd5b1561368e57565b60405162461bcd60e51b815260206004820152602560248201527f455243313135353a207472616e7366657220746f20746865207a65726f206164604482015264647265737360d81b6064820152608490fd5b156136e857565b60405162461bcd60e51b815260206004820152602a60248201527f455243313135353a20696e73756666696369656e742062616c616e636520666f60448201526939103a3930b739b332b960b11b6064820152608490fd5b919082018092116117bb57565b908160209103126102aa57516001600160e01b0319811681036102aa5790565b60809060208152602860208201527f455243313135353a204552433131353552656365697665722072656a656374656040820152676420746f6b656e7360c01b60608201520190565b60009060033d116137c357565b905060046000803e60005160e01c90565b600060443d1061383157604051600319913d83016004833e81516001600160401b03918282113d6024840111176138345781840194855193841161383c573d85010160208487010111613834575061383192910160200190613183565b90565b949350505050565b50949350505050565b6040519061385282613117565b6001825260203681840137613866826135f2565b5290565b6001600160a01b031660009081526007602052604090205461388b57600090565b600190565b9060405161389d8161314d565b608060ff6004839560018060a01b0381541685526138bd60018201613422565b602086015260028101546040860152600381015460608601520154161515910152565b60806040516138ee8161314d565b60009181838093526060602082015282604082015282606082015201526139148261386a565b15613943576001600160a01b039091168152600760205260409020546138319061393d906134e7565b50613890565b60405162461bcd60e51b8152602060048201526015602482015274506c6179657220646f65736e27742065786973742160581b6044820152606490fd5b6001600160a01b031660009081526008602052604090205461388b57600090565b604051906139ae82613168565b60006060838181528260208201528260408201520152565b906040516139d381613168565b6060600382946139e281613422565b845260018101546020850152600281015460408501520154910152565b613a076139a1565b50613a1181613980565b15613a3d5760018060a01b03166000526008602052613831613a376040600020546134c8565b506139c6565b60405162461bcd60e51b815260206004820152601960248201527847616d6520746f6b656e20646f65736e27742065786973742160381b6044820152606490fd5b6020613a9791816040519382858094519384920161309b565b81016009815203019020541560001461388b57600090565b604090600060a08351613ac181613132565b80948382528360208301526060818301528051613add81613117565b813682376060830152805190613af282613117565b36823760808201520152565b90604051613b0b81613132565b809260ff815416600381101561141b5782526001808201549060209182850152600290613b39828501613422565b60408601526040519182600386016000915b838310613ba25750505050509081613b6560a09493613117565b60608501526040519060ff6005840154818116845260081c1690820152613b8b81613117565b6080840152600601546000196001831b0116910152565b81546001600160a01b0316815291840191908401908601613b4b565b613bc6613aaf565b50613bd081613a7e565b15613bfa57613bf4610c7d602061383193816040519382858094519384920161309b565b50613afe565b60405162461bcd60e51b8152602060048201526015602482015274426174746c6520646f65736e27742065786973742160581b6044820152606490fd5b818110613c42575050565b60008155600101613c37565b15613c5557565b60405162461bcd60e51b815260206004820152601c60248201527f506c6561736520526567697374657220506c61796572204669727374000000006044820152606490fd5b6040805142602082019081523360601b6bffffffffffffffffffffffff191692820192909252613ccd8160548101612ad4565b51902060405190606082018281106001600160401b038211176110cc576040526002825260403660208401376019810690600c8210613d3c575b600181018091116117bb576019900690600c8210613d33575b613d29836135f2565b52613866826135ff565b600c9150613d20565b600c9150613d07565b9291906110e25780519260038085101561141b5760ff1982541660ff80961617825560209081840151906001918285015560029081850160408701518051906001600160401b0382116110cc578190613d9e84546133e8565b601f8111613ee5575b508790601f8311600114613e8357600092613e78575b505060001982851b1c191690851b1790555b606086015160005b838110613e5c5750505090608085015191600093845b828110613e2c575050505050600582015560a09091015160069190910180546001600160a01b0319166001600160a01b03929092169190911790559050565b90919282613e508697848d85995116919060031b60ff811b9283911b169119161790565b96019493929101613ded565b81516001600160a01b0316878201840155908501908401613dd7565b015190503880613dbd565b90879350601f1983169185600052896000209260005b8b828210613ecf5750508411613eb7575b505050811b019055613dcf565b015160001983871b60f8161c19169055388080613eaa565b8385015186558b97909501949384019301613e99565b613f0f908560005289600020601f850160051c8101918b86106110c257601f0160051c0190613c37565b38613da7565b90613f1f82613a7e565b15613f4357612b85610c7d602061346094816040519382858094519384920161309b565b60405162461bcd60e51b815260206004820152601460248201527310985d1d1b1948191bd95cdb89dd08195e1a5cdd60621b6044820152606490fd5b919082039182116117bb57565b600092918154613f9b816133e8565b92600191808316908115613ff45750600114613fb8575b50505050565b90919293945060005260209081600020906000915b858310613fe35750505050019038808080613fb2565b805485840152918301918101613fcd565b60ff1916845250505081151590910201915038808080613fb2565b614017613aaf565b508151600381101561141b5760021461411657600282527fef50ed5920f81c37468aa9114164197f642d73e9ddb502023574253301e6e04661411060018060a01b03809316928360a0860152600a60026140f8604088019361407a898651613f15565b606089019080825151166000526007602052602060406000205492510151166000526040600020549084846140d560046140b3856134e7565b50019360ff1994858154169055601960036140cd836134e7565b5001556134e7565b50015560046140e3836134e7565b5001908154169055601960036140cd836134e7565b500155516040519182916020835260208301906130be565b0390a290565b60405162461bcd60e51b815260206004820152601460248201527310985d1d1b1948185b1c9958591e48195b99195960621b6044820152606490fd5b80156142125780816000925b6141fe57508061416d836131a4565b9261417b6040519485613183565b808452601f1961418a826131a4565b01366020860137915b61419c57505090565b81600019918284019384116117bb5783600a8083048095048111851515166117bb576141ce60ff938492870290613f7f565b166030019182116117bb57855111156133d25760f81b6001600160f81b03191660001a908401601f015380614193565b9161420a600a916135e3565b92048061415e565b5060405161421f81613117565b60018152600360fc1b60208201529056fea2646970667358221220c2f19e1230c6d7617d208bd4df3b2ab4a2ce981a8c537faa59ab19a4d86272ce64736f6c63430008100033405787fa12a823e0f2b7631cc41b3ba8828b3321ca811111fa75cd3aa3bb5ace",
  "linkReferences": {},
  "deployedLinkReferences": {}
}